:020000040800F2
:100000000000032045130008E3100008EB1000086F
:10001000F3100008FB1000080311000800000000A6
:100020000000000000000000000000000B110008AC
:100030001911000800000000271100083511000800
:100040009D1300089D1300089D1300089D130008D0
:100050009D1300089D1300089D1300089D130008C0
:100060009D1300089D1300089D130008411100080E
:10007000551100089D1300089D1300089D130008EA
:100080009D1300089D1300089D13000869110008C6
:100090007D1100089D1300089D1300089D130008A2
:1000A0009D130008911100089D1300089D1300087E
:1000B0009D1300089D130008A5110008B911000840
:1000C0009D1300089D1300089D1300089D13000850
:1000D0009D1300089D1300089D1300089D13000840
:1000E0009D1300089D1300089D1300089D13000830
:1000F0009D1300089D1300089D1300089D13000820
:100100009D1300089D1300089D1300089D1300080F
:100110009D1300089D1300089D1300089D130008FF
:100120009D1300089D1300089D1300089D130008EF
:0C0130009D1300089D1300089D1300089B
:10013C0010B5054C237833B9044B13B10448AFF315
:10014C0000800123237010BD24010020000000005A
:10015C008CB4000808B5034B1BB103490348AFF33B
:10016C00008008BD00000000280100208CB40008AD
:10017C0080B588B004AF03463960FB801346BB8062
:10018C000123FB7300F05CF8B86000F059F80346EB
:10019C00002B01D1FB7B11E0BB681868BB681B7995
:1001AC0019460A23FA880293BB8801933B68009393
:1001BC00012301F0F5FE0346FB73FB7B1846103759
:1001CC00BD4680BD80B588B004AF03463960FB8066
:1001DC001346BB800123FB7300F032F8B86000F0CB
:1001EC002FF80346002B01D1FB7B11E0BB6818688C
:1001FC00BB681B7919460A23FA880293BB880193C2
:10020C003B680093012301F0DFFF0346FB73FB7B8C
:10021C0018461037BD4680BD80B483B000AF064B86
:10022C007B60064A7B6813607B6818460C37BD46BA
:10023C005DF8047B704700BF400100206401002082
:10024C0080B400AF034B1B681846BD465DF8047BB9
:10025C00704700BF6401002080B584B000AF7860A7
:10026C000023BB730023FB7300237B737B689B7B96
:10027C00002B02D17B6801229A737B68DB7B002BFD
:10028C0002D17B680122DA737B681B7C002B02D1C4
:10029C007B6801221A747B685B7C002B02D17B6823
:1002AC0001225A747B689B7C002B02D17B68012253
:1002BC009A747B68DB7C002B02D17B680122DA7498
:1002CC007B681B7D002B02D17B6801221A757B6831
:1002DC005B7D002B02D17B6802225A757B68DB7B2D
:1002EC00013B032B44D801A252F823F00903000868
:1002FC001D03000843030008690300087B6893F89A
:10030C00233023F00303DAB27B6883F8232033E035
:10031C007B6893F8233043F00103DAB27B6883F8EF
:10032C0023207B6893F8233023F00203DAB27B6836
:10033C0083F8232020E07B6893F8233043F00203FA
:10034C00DAB27B6883F823207B6893F8233003F0C0
:10035C000103DAB27B6883F823200DE07B6893F805
:10036C00233043F00303DAB27B6883F8232003E0E5
:10037C000123BB73BB7B41E27B681B7C013B032BE2
:10038C0044D801A252F823F0A5030008B9030008D1
:10039C00DF030008050400087B6893F8233023F082
:1003AC000C03DAB27B6883F8232033E07B6893F884
:1003BC00233043F00403DAB27B6883F823207B6894
:1003CC0093F8233023F00803DAB27B6883F82320F8
:1003DC0020E07B6893F8233023F00403DAB27B68C7
:1003EC0083F823207B6893F8233043F00803DAB2B8
:1003FC007B6883F823200DE07B6893F8233043F06F
:10040C000C03DAB27B6883F8232003E00123BB736F
:10041C00BB7BF3E17B685B7C032B23D0032B36DCAB
:10042C00012B02D0022B0AD031E07B6893F82330E9
:10043C0023F03003DAB27B6883F823202BE07B684F
:10044C0093F8233043F01003DAB27B6883F823204F
:10045C007B6893F8233023F02003DAB27B6883F8AF
:10046C00232018E07B6893F8233003F01003DAB2F2
:10047C007B6883F823207B6893F8233043F02003B8
:10048C00DAB27B6883F823200123FB7303E001239A
:10049C00BB73BB7BB2E1FB7B002B4DD07B689B7CA1
:1004AC00013B032B44D801A252F823F0C9040008E5
:1004BC00DD04000803050008290500087B6893F893
:1004CC00233003F03F03DAB27B6883F8232033E058
:1004DC007B6893F8233043F04003DAB27B6883F8EF
:1004EC0023207B6893F8233003F07F03DAB27B6818
:1004FC0083F8232020E07B6893F8233023F040031B
:10050C00DAB27B6883F823207B6893F8233063F09E
:10051C007F03DAB27B6883F823200DE07B6893F8C5
:10052C00233063F03F03DAB27B6883F8232003E0C7
:10053C000123BB73BB7B61E17B68DB7C013B032B41
:10054C0044D801A252F823F065050008790500088B
:10055C009F050008C50500087B6893F8223023F03E
:10056C000303DAB27B6883F8222033E07B6893F8CC
:10057C00223043F00103DAB27B6883F822207B68D7
:10058C0093F8223023F00203DAB27B6883F822203E
:10059C0020E07B6893F8223023F00103DAB27B6809
:1005AC0083F822207B6893F8223043F00203DAB2FE
:1005BC007B6883F822200DE07B6893F8223043F0AF
:1005CC000303DAB27B6883F8222003E00123BB73B8
:1005DC00BB7B13E17B681B7D013B072B00F29A80F0
:1005EC0001A252F823F000BF1506000829060008E6
:1005FC004F060008750600089B060008C106000897
:10060C00E70600080D0700087B6893F8223023F0FA
:10061C001C03DAB27B6883F822207FE07B6893F8B6
:10062C00223023F01803DAB27B6883F822207B682F
:10063C0093F8223043F00403DAB27B6883F822206B
:10064C006CE07B6893F8223023F01403DAB27B68F9
:10065C0083F822207B6893F8223043F00803DAB247
:10066C007B6883F8222059E07B6893F8223023F0D2
:10067C001003DAB27B6883F822207B6893F822306F
:10068C0043F00C03DAB27B6883F8222046E07B68E7
:10069C0093F8223023F00C03DAB27B6883F8222023
:1006AC007B6893F8223043F01003DAB27B6883F84E
:1006BC00222033E07B6893F8223023F00803DAB26F
:1006CC007B6883F822207B6893F8223043F0140374
:1006DC00DAB27B6883F8222020E07B6893F8223022
:1006EC0023F00403DAB27B6883F822207B6893F84A
:1006FC00223043F01803DAB27B6883F822200DE035
:10070C007B6893F8223043F01C03DAB27B6883F8E1
:10071C00222003E00123BB73BB7B6FE07B685B7D16
:10072C00012B02D0022B0AD013E07B6893F8223005
:10073C0023F04003DAB27B6883F822200DE07B685B
:10074C0093F8223043F04003DAB27B6883F822201E
:10075C0003E00123BB73BB7B50E07B682233022296
:10076C0019460720FFF704FD0346002B03D0012395
:10077C00BB73BB7B42E007F10D031946786800F0B0
:10078C0066F80346002B03D00123BB73BB7B35E01B
:10079C007B7B03F02003002B03D10123BB73BB7BBA
:1007AC002CE07B7B03F00803002B03D00123BB73ED
:1007BC00BB7B23E07B7B03F01003002B03D00123D6
:1007CC00BB73BB7B1AE0BB7B002B13D17B68012274
:1007DC009A757B681B8B1946786800F013F87B6858
:1007EC001A8B7B685A837B680022DA617B68002253
:1007FC001A8402E07B6800229A75BB7B184610377E
:10080C00BD4680BD80B584B000AF786039600023F0
:10081C00FB730023BB8107F10C03022219460C2049
:10082C00FFF7D0FC0346002B01D00123FB733B7B6D
:10083C001BB21B021AB27B7B1BB213431BB29AB2C4
:10084C003B681A80FB7B18461037BD4680BD80B5CF
:10085C0084B000AF786039600023FB7301223968E3
:10086C000B20FFF7AFFC0346002B01D00123FB73D9
:10087C00FB7B18461037BD4680BD80B485B000AFF9
:10088C0078604FF0B0439A6C4FF0B0417B681343E3
:10089C008B644FF0B0439A6C7B681340FB60FB6831
:1008AC0000BF1437BD465DF8047B704780B500AFC0
:1008BC000420FFF7E2FF0120FFF7DFFF00220021F9
:1008CC000B2000F0ECFE0B2000F003FF00220021B7
:1008DC000C2000F0E4FE0C2000F0FBFE00BF80BDFD
:1008EC0080B485B000AF78604FF0B043DA6C4FF055
:1008FC00B0417B681343CB644FF0B043DA6C7B6838
:10090C001340FB60FB6800BF1437BD465DF8047BE9
:10091C007047000080B586B000AF3B1D00221A6006
:10092C005A609A60DA601A610420FFF7D9FF8020C0
:10093C00FFF7D6FF0220FFF7D3FF0120FFF7D0FF10
:10094C001020FFF7CDFF002202214FF0904001F064
:10095C0073FA00221021224801F06EFA08237B6002
:10096C000323BB600023FB603B1D19461D4801F0AF
:10097C00F3F848F2FD737B600323BB600023FB603C
:10098C003B1D19464FF0904001F0E6F802237B60C6
:10099C000123BB600023FB6000233B613B1D194618
:1009AC004FF0904001F0D8F8FF237B600323BB602D
:1009BC000023FB603B1D19460B4801F0CDF81023BA
:1009CC007B600123BB600023FB6000233B613B1D6C
:1009DC001946034801F0C0F800BF1837BD4680BD6A
:1009EC0000100048001C00480004004880B485B08A
:1009FC0000AF78604FF0B043DA6C4FF0B0417B68D9
:100A0C001343CB644FF0B043DA6C7B681340FB604C
:100A1C00FB6800BF1437BD465DF8047B704780B49B
:100A2C0085B000AF78604FF0B0439A6D4FF0B04195
:100A3C007B6813438B654FF0B0439A6D7B68134012
:100A4C00FB60FB6800BF1437BD465DF8047B704744
:100A5C0080B500AF1D4B1E4A1A601C4B1D4A5A60D4
:100A6C001A4B6C229A60194B0122DA60174B002248
:100A7C001A61164B00225A61144B00229A61134BD7
:100A8C000022DA61114B00221A62104801F0ECF9D5
:100A9C000346002B01D000F055FA00210B4802F060
:100AAC0063FD0346002B01D000F04CFA04210748EB
:100ABC0002F0A5FD0346002B01D000F043FA4FF4E1
:100ACC00801002F0E9FD00BF80BD00BF680100206E
:100ADC00005400401807900080B59CB000AF7860BF
:100AEC0007F15C0300221A605A609A60DA601A619E
:100AFC0007F10C035022002118460AF095FC7B6884
:100B0C001B68484A934240F089800423FB604FF4F1
:100B1C004033FB6207F10C03184605F0D6FD034683
:100B2C00002B01D000F00EFA0220FFF75FFF4FF40C
:100B3C004073FB6512233B6600237B660023BB6678
:100B4C000423FB6607F15C031946374801F004F8EF
:100B5C004FF40010FFF763FF344B354A1A60334BE8
:100B6C000A225A60314B00229A60304B0022DA6024
:100B7C002E4B80221A612D4B00225A612B4B0022E6
:100B8C009A612A4B0022DA61284B00221A6227480C
:100B9C0000F0BAFD0346002B01D000F0D3F97B68BE
:100BAC00224ADA63214A7B689362224B224A1A60FA
:100BBC00204B0B225A601F4B10229A601D4B0022B7
:100BCC00DA601C4B80221A611A4B00225A61194BB5
:100BDC0000229A61174B0022DA61164B00221A622E
:100BEC00144800F091FD0346002B01D000F0AAF947
:100BFC007B68104A9A630F4A7B689362002200213B
:100C0C001E2000F04CFD1E2000F063FD0022002190
:100C1C001F2000F044FD1F2000F05BFD00BF70376B
:100C2C00BD4680BD0054004000040048BC010020BB
:100C3C00080002401C0200201C00024080B483B05B
:100C4C0000AF78604FF0B043D3F8903023F0180227
:100C5C004FF0B0417B681343C1F8903000BF0C37A4
:100C6C00BD465DF8047B704780B582B000AF7860FC
:100C7C007B68484A934240F08980474B1B689B7DB8
:100C8C00002B7ED0444B1A68434B1B681833194613
:100C9C001046FFF7B7FD414B00221A703E4B1B6804
:100CAC001B8B19463C4B1B685B8B1A463A4B1B68DB
:100CBC008A1ADA61384B1B68DB69002BB8BF5B42C0
:100CCC00012B54DD344B1A68334B1B68128B5A833F
:100CDC00314B1B68DB69B3F5006F07DD2E4B1B68CE
:100CEC00DA692D4B1B68A2F6FF72DA612A4B1B687E
:100CFC00DB6913F5006F07DA274B1B68DA69264BA3
:100D0C001B6802F6FF72DA61234B1B68D969224B10
:100D1C001A680B46002B00DA0733DB10D3611E4B2D
:100D2C001B68DB69002BB8BF5B42002B04DD012282
:100D3C0010211B4801F080F8174B1B68DB697F2BD7
:100D4C0003DD154B1B687F22DA61134B1B68DB69D3
:100D5C0013F17F0F04DA104B1B686FF07E02DA611F
:100D6C000D4B1B68DB695AB20C4B1A7004E0002265
:100D7C0010210B4801F060F8084B93F90020094B47
:100D8C00DA7004220749084808F026FC00BF08372F
:100D9C00BD4680BDAC0200208002002084020020F1
:100DAC00001000487C0200200003002080B500AF3A
:100DBC0000F0F0FA00F03AF800F0A4F8FFF7AAFD02
:100DCC00FFF774FDFFF744FE00F0F4F809F0FCFEA9
:100DDC0000F062FA00F0BCF8FFF71EFA0346104A66
:100DEC0013600F4B1B680F4A1A600D4B1B686C226B
:100DFC001A710B4B1B6802229A81094B1B684FF02E
:100E0C0090429A60064B1B681846FFF725FA064875
:100E1C0006F08EF94FF4FA7000F042FBFAE700BFCF
:100E2C008002002068010020AC02002080B59AB03E
:100E3C0000AF07F120034822002118460AF0F4FA0B
:100E4C003B1D00221A605A609A60DA601A615A617E
:100E5C009A6104F029F91020FFF7F0FE284B1B686B
:100E6C0023F4C063264A43F400731360244B1B68BD
:100E7C0003F4C0633B603B6807233B624FF4803351
:100E8C007B620123BB624FF48073FB6240233B63A4
:100E9C000223FB6403233B6510237B650C23BB659A
:100EAC004FF40033FB654FF080437B664FF0C0631B
:100EBC003B6607F12003184604F082FC0346002B26
:100ECC0001D000F03FF86F237B600323BB6000234D
:100EDC00FB6000233B6100237B618023BB6100230B
:100EEC00FB613B1D0321184604F0DEFF0346002B7B
:100EFC0001D000F027F800BF6837BD4680BD00BFA9
:100F0C000004005880B594B000AF3B46502200213D
:100F1C0018460AF089FA4FF440533B604FF44043B3
:100F2C007B640023BB641023FB643B46184605F02E
:100F3C00CCFB0346002B01D000F004F800BF503767
:100F4C00BD4680BD80B400AF72B600BF00BFFDE7E8
:100F5C0080B400AF00BFBD465DF8047B704780B421
:100F6C0000AF4FF0B043D3F890304FF0B04243F4A1
:100F7C000043C2F8903000BFBD465DF8047B70475B
:100F8C0080B485B000AF78604FF0B0439A6D4FF0ED
:100F9C00B0417B6813438B654FF0B0439A6D7B680F
:100FAC001340FB60FB6800BF1437BD465DF8047B43
:100FBC007047000080B586B000AF3B1D00221A6060
:100FCC005A609A60DA601A6100233B60264B274A0C
:100FDC001A60254B00225A60234B7F229A60224BC9
:100FEC00FF22DA60204B00221A611F4B00229A610B
:100FFC001D4B0022DA611C4B00225A611A4805F085
:10100C00EBFD0346002B01D0FFF79CFF00233B7147
:10101C0000237B710023BB710023BB6000233B6169
:10102C0000237B613B1D012219460F4805F05EFE33
:10103C000346002B01D0FFF785FF01233B700123F2
:10104C007B700123BB700023FB703B4601221946C9
:10105C00054805F0EAFE0346002B01D0FFF772FFAE
:10106C0000BF1837BD4680BD880200200028004014
:10107C0080B596B000AF786007F1080350220021CC
:10108C0018460AF0D1F97B681B680E4A934215D1B9
:10109C004FF40063BB604FF48073BB6407F108032B
:1010AC00184605F012FB0346002B01D0FFF74AFF50
:1010BC00FFF755FF4FF48060FFF762FF00BF583712
:1010CC00BD4680BD0028004080B400AF00BFBD46C7
:1010DC005DF8047B704780B400AF00BFFDE780B4BF
:1010EC0000AF00BFFDE780B400AF00BFFDE780B4E8
:1010FC0000AF00BFFDE780B400AF00BFFDE780B4D8
:10110C0000AF00BFBD465DF8047B704780B400AFF4
:10111C0000BFBD465DF8047B704780B400AF00BFD4
:10112C00BD465DF8047B704780B500AF00F08CF9CC
:10113C0000BF80BD80B500AF024800F0ECFB00BFE3
:10114C0080BD00BFBC01002080B500AF024800F09C
:10115C00E2FB00BF80BD00BF1C02002080B500AFC9
:10116C00024802F09BFB00BF80BD00BFDC070020E3
:10117C0080B500AF024802F091FB00BF80BD00BFFC
:10118C00DC07002080B500AF024806F01FF800BF56
:10119C0080BD00BFAC02002080B500AF024801F05A
:1011AC002DF900BF80BD00BF6801002080B500AFE5
:1011BC00024801F03DF900BF80BD00BF680100206E
:1011CC0080B400AF244BD3F88830234A43F4700327
:1011DC00C2F888304FF0B0431B684FF0B04243F078
:1011EC00010313604FF0B0434FF4E0229A604FF0CC
:1011FC00B0431A684FF0B041184B13400B604FF0DE
:10120C00B043D3F894304FF0B04223F00503C2F84A
:10121C0094304FF0B043D3F898304FF0B04223F0F5
:10122C000103C2F898304FF0B0430D4ADA604FF02A
:10123C00B0430B4A1A614FF0B0431B684FF0B042F9
:10124C0023F4802313604FF0B04300229A6100BF57
:10125C00BD465DF8047B704700ED00E0FBFEF6FA3E
:10126C000010042280B485B000AF78604FF0B0431A
:10127C001A6E4FF0B0417B6813430B664FF0B043CE
:10128C001A6E7B681340FB60FB6800BF1437BD46C9
:10129C005DF8047B7047000080B500AF104B114A1D
:1012AC001A600F4B40F27F225A600D4B00229A605D
:1012BC000B4B40F2E732DA60094B00221A61084B03
:1012CC0000225A61064B80229A61054805F0D8FE2F
:1012DC000346002B01D0FFF735FE00BF80BD00BFD9
:1012EC00AC0200200044014080B582B000AF7860B1
:1012FC007B681B68094A93420BD14FF40030FFF70F
:10130C00B1FF00220021192000F0C9F9192000F0CA
:10131C00E0F900BF0837BD4680BD00BF0044014066
:10132C00D458C4500433C4188C42F9D370470360AA
:10133C0004308842FBD370470C488546FFF740FFCA
:10134C000B480C490C4A0023FFF7EDFF0B480C49E6
:10135C000C4A0023FFF7E7FF0B480C490023FFF76B
:10136C00E8FF0AF069F8FFF721FDFEE70000032013
:10137C000800002024010020A0B500080000032074
:10138C0000000320BCB6000824010020CC0A002079
:10139C00FEE7000080B582B000AF0023FB710C4B60
:1013AC001B680B4A43F480731360032000F06CF944
:1013BC000F2000F00FF80346002B02D00123FB7125
:1013CC0001E0FFF781FEFB7918460837BD4680BD6A
:1013DC000040005880B584B000AF78600023FB73E8
:1013EC00174B1B78002B24D004F00AFF0246144B39
:1013FC001B7819464FF47A73B3FBF1F3B2FBF3F39A
:10140C00184600F074F90346002B0FD17B680F2BA4
:10141C0009D8002279684FF0FF3000F040F9094AF2
:10142C007B68136007E00123FB7304E00123FB736B
:10143C0001E00123FB73FB7B18461037BD4680BDD2
:10144C00100000200C00002080B400AF064B1B786D
:10145C001A46064B1B681344044A136000BFBD4672
:10146C005DF8047B704700BF10000020F8020020DC
:10147C0080B400AF034B1B681846BD465DF8047B77
:10148C00704700BFF802002080B400AF034B1B680C
:10149C001846BD465DF8047B704700BF0C00002069
:1014AC0080B584B000AF7860FFF7E2FFB8607B686E
:1014BC00FB60FB68B3F1FF3F05D00A4B1B781A4663
:1014CC00FB681344FB6000BFFFF7D2FF0246BB680A
:1014DC00D31AFA689A42F7D800BF00BF1037BD463E
:1014EC0080BD00BF1000002080B485B000AF7860D4
:1014FC007B6803F00703FB600C4BDB68BB60BA68CE
:10150C004FF6FF031340BB60FB681A02BB68134322
:10151C0043F0BF6343F40033BB60044ABB68D36041
:10152C0000BF1437BD465DF8047B704700ED00E04A
:10153C0080B400AF044BDB681B0A03F007031846AA
:10154C00BD465DF8047B704700ED00E080B483B0CD
:10155C0000AF0346FB7197F90730002B0BDBFB79CF
:10156C0003F01F02074997F907305B09012000FAC5
:10157C0002F241F8232000BF0C37BD465DF8047B16
:10158C00704700BF00E100E080B483B000AF0346B9
:10159C003960FB7197F90730002B0ADB3B68DAB234
:1015AC000C4997F907301201D2B20B4483F800238F
:1015BC000AE03B68DAB20849FB7903F00F03043BFD
:1015CC001201D2B20B441A7600BF0C37BD465DF83F
:1015DC00047B704700E100E000ED00E080B489B0CE
:1015EC0000AFF860B9607A60FB6803F00703FB6139
:1015FC00FB69C3F10703042B28BF0423BB61FB6900
:10160C000433062B02D9FB69033B00E000237B610A
:10161C004FF0FF32BB6902FA03F3DA43BB681A409E
:10162C007B699A404FF0FF317B6901FA03F3D94390
:10163C007B680B40134318462437BD465DF8047B8A
:10164C007047000080B582B000AF78607B68013BCA
:10165C00B3F1807F01D301230FE00A4A7B68013B81
:10166C0053600F214FF0FF30FFF78EFF054B002228
:10167C009A60044B07221A60002318460837BD46AF
:10168C0080BD00BF10E000E080B582B000AF786094
:10169C007868FFF729FF00BF0837BD4680BD80B5CD
:1016AC0086B000AF0346B9607A60FB73FFF740FF6A
:1016BC0078617A68B9687869FFF790FF024697F904
:1016CC000F3011461846FFF75FFF00BF1837BD46B5
:1016DC0080BD80B582B000AF0346FB7197F907302F
:1016EC001846FFF733FF00BF0837BD4680BD80B5F5
:1016FC0082B000AF78607868FFF7A4FF0346184605
:10170C000837BD4680BD000080B584B000AF78605E
:10171C007B68002B01D101238EE07B681B681A4685
:10172C00474B9A420FD87B681B681A46454B1344AB
:10173C00454AA2FB03231B099A007B685A647B6809
:10174C00424A1A640EE07B681B681A46404B1344ED
:10175C003D4AA2FB03231B099A007B685A647B68F1
:10176C003C4A1A647B68022283F825207B681B683C
:10177C001B68FB60FB6823F4FF4323F07003FB60E2
:10178C007B689A687B68DB681A437B681B691A4321
:10179C007B685B691A437B689B691A437B68DB69CE
:1017AC001A437B681B6A1343FA681343FB607B681C
:1017BC001B68FA681A60786800F06AF97B689B68A5
:1017CC00B3F5804F02D17B6800225A607B685A685F
:1017DC007B689B6C02F03F021A607B68DB6C7A685A
:1017EC00126D5A607B685B68002B10D07B685B685D
:1017FC00042B0CD8786800F089F97B685B6D0022AB
:10180C001A607B689B6D7A68D26D5A6008E07B68C1
:10181C0000225A657B6800229A657B680022DA6593
:10182C007B680022DA637B68012283F825207B68C1
:10183C00002283F82420002318461037BD4680BDB3
:10184C0007040240F8FFFDBFCDCCCCCC0000024019
:10185C00F8FBFDBF0004024080B584B000AF786097
:10186C000023FB737B6893F82530DBB2022B05D089
:10187C007B680422DA630123FB7347E07B681B68F7
:10188C001A687B681B6822F00E021A607B681B6862
:10189C001A687B681B6822F001021A607B689B6CDB
:1018AC001A687B689B6C22F480721A607B685B6C94
:1018BC0003F01C027B681B6C012101FA02F25A60D6
:1018CC007B68DB6C7A68126D5A607B685B6D002BF1
:1018DC000CD07B685B6D1A687B685B6D22F4807240
:1018EC001A607B689B6D7A68D26D5A607B680122A6
:1018FC0083F825207B68002283F824207B689B6B6F
:10190C00002B03D07B689B6B78689847FB7B184651
:10191C001037BD4680BD80B584B000AF78607B6861
:10192C001B6C1B68FB607B681B681B68BB607B685F
:10193C005B6C03F01C0304229A40FB681340002BE1
:10194C0026D0BB6803F00403002B21D07B681B68F6
:10195C001B6803F02003002B07D17B681B681A68F7
:10196C007B681B6822F004021A607B685B6C03F0D6
:10197C001C027B681B6C042101FA02F25A607B6822
:10198C001B6B002B71D07B681B6B786898476CE0E5
:10199C007B685B6C03F01C0302229A40FB681340CB
:1019AC00002B2ED0BB6803F00203002B29D07B68E0
:1019BC001B681B6803F02003002B0BD17B681B6892
:1019CC001A687B681B6822F00A021A607B68012285
:1019DC0083F825207B685B6C03F01C027B681B6C16
:1019EC00022101FA02F25A607B68002283F824205B
:1019FC007B68DB6A002B38D07B68DB6A7868984799
:101A0C0033E07B685B6C03F01C0308229A40FB6894
:101A1C001340002B2AD0BB6803F00803002B25D001
:101A2C007B681B681A687B681B6822F00E021A60C0
:101A3C007B685B6C03F01C027B681B6C012101FA58
:101A4C0002F25A607B680122DA637B68012283F818
:101A5C0025207B68002283F824207B685B6B002B9D
:101A6C0004D07B685B6B7868984700BF00BF103769
:101A7C00BD4680BD80B483B000AF78607B6893F8BE
:101A8C002530DBB218460C37BD465DF8047B704739
:101A9C0080B485B000AF78607B681B681A46174B22
:101AAC009A420AD87B685B6C9B089B0003F18043CD
:101ABC0003F502337A68936407E07B685B6C9B08E0
:101ACC009A000F4B13447A6893647B681B68DBB2F3
:101ADC00083B0C4AA2FB03231B09FB607B680A4AE8
:101AEC00DA64FB6803F01F0301229A407B681A65D5
:101AFC0000BF1437BD465DF8047B704707040240F5
:101B0C001C080240CDCCCCCC8008024080B485B0FF
:101B1C0000AF78607B685B6803F03F03FB60FA689A
:101B2C000B4B13449B001A467B685A657B68094A29
:101B3C009A65FB68013B03F0030301229A407B6822
:101B4C00DA6500BF1437BD465DF8047B704700BFF3
:101B5C003F8200104009024080B487B000AF78602B
:101B6C00396000237B614CE13B681A6801217B6979
:101B7C0001FA03F31340FB60FB68002B00F03E817D
:101B8C003B685B6803F00303012B05D03B685B6883
:101B9C0003F00303022B30D17B689B683B617B69AC
:101BAC005B00032202FA03F3DB433A6913403B6107
:101BBC003B68DA687B695B0002FA03F33A6913430A
:101BCC003B617B683A699A607B685B683B61012288
:101BDC007B6902FA03F3DB433A6913403B613B68D0
:101BEC005B681B0903F001027B6902FA03F33A6993
:101BFC0013433B617B683A695A603B685B6803F04E
:101C0C000303032B17D07B68DB683B617B695B00AC
:101C1C00032202FA03F3DB433A6913403B613B684E
:101C2C009A687B695B0002FA03F33A6913433B61E0
:101C3C007B683A69DA603B685B6803F00303022B4C
:101C4C0023D17B69DA087B68083253F822303B6178
:101C5C007B6903F007039B000F2202FA03F3DB43BB
:101C6C003A6913403B613B681A697B6903F00703CF
:101C7C009B0002FA03F33A6913433B617B69DA0870
:101C8C007B680832396943F822107B681B683B611A
:101C9C007B695B00032202FA03F3DB433A691340CE
:101CAC003B613B685B6803F003027B695B0002FAF3
:101CBC0003F33A6913433B617B683A691A603B68EA
:101CCC005B6803F44033002B00F09880544A7B6926
:101CDC009B08023352F823303B617B6903F003030A
:101CEC009B000F2202FA03F3DB433A6913403B617A
:101CFC007B68B3F1904F19D07B684A4A934213D05A
:101D0C007B68494A93420DD07B68484A934207D07E
:101D1C007B68474A934201D1042308E0072306E07D
:101D2C00032304E0022302E0012300E000237A698C
:101D3C0002F00302920093403A6913433B61384925
:101D4C007B699B0802333A6941F82320394B1B68A5
:101D5C003B61FB68DB433A6913403B613B685B6862
:101D6C0003F48013002B03D03A69FB6813433B61E7
:101D7C00304A3B6913602F4B5B683B61FB68DB436C
:101D8C003A6913403B613B685B6803F40013002B1A
:101D9C0003D03A69FB6813433B61264A3B695360A5
:101DAC00244BD3F880303B61FB68DB433A6913402A
:101DBC003B613B685B6803F48033002B03D03A69CA
:101DCC00FB6813433B611B4A3B69C2F88030194BDB
:101DDC00D3F884303B61FB68DB433A6913403B61C9
:101DEC003B685B6803F40033002B03D03A69FB6853
:101DFC0013433B610F4A3B69C2F884307B69013362
:101E0C007B613B681A687B6922FA03F3002B7FF431
:101E1C00ABAE00BF00BF1C37BD465DF8047B7047FE
:101E2C00000001400004004800080048000C004875
:101E3C00001000480008005880B483B000AF7860F0
:101E4C000B467B8013467B707B78002B03D07A8803
:101E5C007B689A6102E07A887B689A6200BF0C37D3
:101E6C00BD465DF8047B704780B582B000AF7860EA
:101E7C007B68002B01D101238DE07B6893F8413006
:101E8C00DBB2002B06D17B68002283F840207868F7
:101E9C00FEF722FE7B68242283F841207B681B68B6
:101EAC001A687B681B6822F001021A607B685A680A
:101EBC007B681B6822F070621A617B681B689A68E9
:101ECC007B681B6822F400429A607B68DB68012BFC
:101EDC0007D17B689A687B681B6842F400429A6061
:101EEC0006E07B689A687B681B6842F404429A603F
:101EFC007B68DB68022B08D17B681B685A687B689F
:101F0C001B6842F400625A6007E07B681B685A68E1
:101F1C007B681B6822F400625A607B681B685B68F4
:101F2C007A68126843F0007343F4004353607B6893
:101F3C001B68DA687B681B6822F40042DA607B68F5
:101F4C001A697B685B6942EA03017B689B691A0228
:101F5C007B681B680A43DA607B68D9697B681A6AFC
:101F6C007B681B680A431A607B681B681A687B686D
:101F7C001B6842F001021A607B6800225A647B687D
:101F8C00202283F841207B6800221A637B680022A0
:101F9C0083F84220002318460837BD4680BD000058
:101FAC0080B588B002AFF860084611461A46034661
:101FBC007B810B463B811346FB80FB6893F84130D9
:101FCC00DBB2202B40F0F9803B6A002B02D0BB8C9B
:101FDC00002B05D1FB684FF400725A640123EDE02D
:101FEC00FB6893F84030012B01D10223E6E0FB683B
:101FFC00012283F84020FFF73BFA78617B6900935C
:10200C00192301224FF40041F86801F05AF80346F5
:10201C00002B01D00123D1E0FB68212283F8412061
:10202C00FB68402283F84220FB6800225A64FB685C
:10203C003A6A5A62FB68BA8C5A85FB6800225A636A
:10204C00F8883A8979897B690193BB6A00930346C6
:10205C00F86800F093FB0346002B05D0FB680022C8
:10206C0083F840200123A9E0FB685B8D9BB2FF2B1A
:10207C000ED9FB68FF221A85FB681B8DDAB27989B1
:10208C00002300934FF08073F86801F0DDF90FE046
:10209C00FB685B8D9AB2FB681A85FB681B8DDAB204
:1020AC007989002300934FF00073F86801F0CCF9A4
:1020BC007A69B96AF86801F05DF80346002B01D023
:1020CC0001237BE0FB685B6A1A78FB681B689A62E9
:1020DC00FB685B6A5A1CFB685A62FB685B8D9BB29F
:1020EC00013B9AB2FB685A85FB681B8D013B9AB287
:1020FC00FB681A85FB685B8D9BB2002B34D0FB68A8
:10210C001B8D002B30D17B690093BB6A0022802190
:10211C00F86800F0D6FF0346002B01D001234DE0F8
:10212C00FB685B8D9BB2FF2B0ED9FB68FF221A85D7
:10213C00FB681B8DDAB27989002300934FF0807312
:10214C00F86801F081F90FE0FB685B8D9AB2FB68CF
:10215C001A85FB681B8DDAB27989002300934FF046
:10216C000073F86801F070F9FB685B8D9BB2002B73
:10217C009ED17A69B96AF86801F043F80346002BDE
:10218C0001D001231AE0FB681B682022DA61FB688E
:10219C001B685968FB681A680A4B0B405360FB6854
:1021AC00202283F84120FB68002283F84220FB6840
:1021BC00002283F84020002300E002231846183741
:1021CC00BD4680BD00E800FE80B588B002AFF86067
:1021DC00084611461A4603467B810B463B81134643
:1021EC00FB80FB6893F84130DBB2202B40F0FD8084
:1021FC003B6A002B02D0BB8C002B05D1FB684FF443
:10220C0000725A640123F1E0FB6893F84030012B13
:10221C0001D10223EAE0FB68012283F84020FFF79A
:10222C0027F978617B690093192301224FF400414F
:10223C00F86800F046FF0346002B01D00123D5E0DF
:10224C00FB68222283F84120FB68402283F842205D
:10225C00FB6800225A64FB683A6A5A62FB68BA8CC3
:10226C005A85FB6800225A63F8883A8979897B6918
:10227C000193BB6A00930346F86800F0D3FA034657
:10228C00002B05D0FB68002283F840200123ADE031
:10229C00FB685B8D9BB2FF2B0ED9FB68FF221A8566
:1022AC00FB681B8DDAB27989524B00934FF0807327
:1022BC00F86801F0C9F80FE0FB685B8D9AB2FB6817
:1022CC001A85FB681B8DDAB279894A4B00934FF063
:1022DC000073F86801F0B8F87B690093BB6A0022C0
:1022EC000421F86800F0EDFE0346002B01D0012319
:1022FC007CE0FB681B685A6AFB685B6AD2B21A7096
:10230C00FB685B6A5A1CFB685A62FB681B8D013BBD
:10231C009AB2FB681A85FB685B8D9BB2013B9AB243
:10232C00FB685A85FB685B8D9BB2002B34D0FB6835
:10233C001B8D002B30D17B690093BB6A002280215E
:10234C00F86800F0BEFE0346002B01D001234DE0DF
:10235C00FB685B8D9BB2FF2B0ED9FB68FF221A85A5
:10236C00FB681B8DDAB27989002300934FF08073E0
:10237C00F86801F069F80FE0FB685B8D9AB2FB68B6
:10238C001A85FB681B8DDAB27989002300934FF014
:10239C000073F86801F058F8FB685B8D9BB2002B5A
:1023AC009AD17A69B96AF86800F02BFF0346002BC2
:1023BC0001D001231AE0FB681B682022DA61FB685C
:1023CC001B685968FB681A680B4B0B405360FB6821
:1023DC00202283F84120FB68002283F84220FB680E
:1023EC00002283F84020002300E00223184618370F
:1023FC00BD4680BD0024008000E800FE80B584B09E
:10240C0000AF78607B681B689B69FB607B681B680E
:10241C001B68BB607B685B6B002B05D07B685B6BC0
:10242C00BA68F9687868984700BF1037BD4680BD18
:10243C0080B586B000AF78607B681B689B697B6158
:10244C007B681B681B683B617B691B0A03F00103FB
:10245C00002B10D03B69DB0903F00103002B0AD0E1
:10246C007B685B6C43F001027B685A647B681B6879
:10247C004FF48072DA617B699B0A03F00103002B35
:10248C0010D03B69DB0903F00103002B0AD07B68F9
:10249C005B6C43F008027B685A647B681B684FF4E2
:1024AC008062DA617B695B0A03F00103002B10D0B8
:1024BC003B69DB0903F00103002B0AD07B685B6CE2
:1024CC0043F002027B685A647B681B684FF400720D
:1024DC00DA617B685B6CFB60FB6803F00B03002B21
:1024EC0003D0F968786800F093FC00BF1837BD463C
:1024FC0080BD80B483B000AF786000BF0C37BD46A0
:10250C005DF8047B704780B483B000AF786000BF87
:10251C000C37BD465DF8047B704780B483B000AFC8
:10252C0078600B46FB7013463B8000BF0C37BD46F2
:10253C005DF8047B704780B483B000AF786000BF57
:10254C000C37BD465DF8047B704780B483B000AF98
:10255C00786000BF0C37BD465DF8047B704780B4D3
:10256C0083B000AF786000BF0C37BD465DF8047BCC
:10257C00704780B586B000AFF860B9607A60FB68D0
:10258C00DB6A7B61BB683B61FB6893F84030012BD5
:10259C0001D10223EDE0FB68012283F840203B6966
:1025AC005B0903F00103002B0AD07B685B0903F085
:1025BC000103002B04D03969F86800F069FAD3E004
:1025CC003B691B0903F00103002B4DD07B681B09F1
:1025DC0003F00103002B47D0FB685B8D9BB2002BF3
:1025EC0028D1FB6893F84130DBB2282B08D17B69EA
:1025FC00B3F1007F04D13969F86800F0B3FB32E025
:10260C00FB6893F84130DBB2292B0ED17B6913F5B3
:10261C00803F0AD0FB681B681022DA61F86800F072
:10262C000EFDF86800F0D6F91DE0FB681B6810225F
:10263C00DA6196E0FB681B681022DA61FB685B6C60
:10264C0043F00402FB685A647B69002B04D07B695D
:10265C00B3F1807F40F08580FB685B6C1946F868AD
:10266C0000F0D6FB7DE07CE03B699B0803F00103A6
:10267C00002B30D07B689B0803F00103002B2AD081
:10268C00FB685B8D9BB2002B18D0FB681B685A6AE9
:10269C00FB685B6AD2B21A70FB685B6A5A1CFB68F7
:1026AC005A62FB681B8D013B9AB2FB681A85FB686A
:1026BC005B8D9BB2013B9AB2FB685A85FB685B8DC4
:1026CC009BB2002B4FD17B6913F5803F4BD0F86840
:1026DC0000F080F947E03B69DB0803F00103002BB5
:1026EC000AD07B68DB0803F00103002B04D03969A6
:1026FC00F86800F0EBF837E03B695B0803F0010386
:10270C00002B31D07B685B0803F00103002B2BD02E
:10271C00FB685B8D9BB2002B18D0FB685B6A1A7848
:10272C00FB681B689A62FB685B6A5A1CFB685A62FE
:10273C00FB685B8D9BB2013B9AB2FB685A85FB68C8
:10274C001B8D013B9AB2FB681A850DE07B69B3F1D6
:10275C00807F02D07B69002B06D1F86800F03AF933
:10276C0002E000BF00E000BFFB68002283F84020BD
:10277C00002318461837BD4680BD000080B586B0D2
:10278C0002AFF860084611461A4603467B810B4699
:10279C003B811346FB80FB88DAB27989204B00938E
:1027AC004FF08073F86800F04FFEFA69B969F86869
:1027BC0000F0E0FC0346002B01D001232CE0FB8849
:1027CC00012B05D13B89DAB2FB681B689A6215E0D4
:1027DC003B891B0A9BB2DAB2FB681B689A62FA69E6
:1027EC00B969F86800F0C6FC0346002B01D0012340
:1027FC0012E03B89DAB2FB681B689A62FB690093B2
:10280C00BB6900228021F86800F05BFC0346002BBA
:10281C0001D0012300E0002318461037BD4680BDCF
:10282C000020008080B586B002AFF86008461146E3
:10283C001A4603467B810B463B811346FB80FB8883
:10284C00DAB27989204B00930023F86800F0FCFD84
:10285C00FA69B969F86800F08DFC0346002B01D0C9
:10286C0001232CE0FB88012B05D13B89DAB2FB68F4
:10287C001B689A6215E03B891B0A9BB2DAB2FB68B3
:10288C001B689A62FA69B969F86800F073FC034630
:10289C00002B01D0012312E03B89DAB2FB681B68E4
:1028AC009A62FB690093BB6900224021F86800F032
:1028BC0008FC0346002B01D0012300E0002318463E
:1028CC001037BD4680BD00BF0020008080B584B0AD
:1028DC0000AF786039607B6893F84130DBB203F06D
:1028EC002803282B6AD17B681B689B691B0CDBB205
:1028FC0003F00103FB737B681B689B691B0C9BB289
:10290C0003F0FE03BB817B681B689B689BB2C3F31F
:10291C0009037B817B681B68DB689BB203F0FE03B9
:10292C003B817B68DB68022B38D17B89DB099AB24F
:10293C00BB8953409BB203F00603002B1CD17B894F
:10294C00BB817B689B6C5A1C7B689A647B689B6C14
:10295C00022B3BD17B6800229A647B681B6808229F
:10296C00DA617B68002283F84020BA89FB7B194628
:10297C007868FFF7D2FD29E03B89BB814FF4004119
:10298C00786800F093FD7B68002283F84020BA89B8
:10299C00FB7B19467868FFF7C0FD17E04FF4004148
:1029AC00786800F083FD7B68002283F84020BA89A8
:1029BC00FB7B19467868FFF7B0FD07E07B681B6866
:1029CC000822DA617B68002283F8402000BF1037B0
:1029DC00BD4680BD80B584B000AF78607B681B6855
:1029EC001B68FB607B68002283F84220FB689B0B12
:1029FC0003F00103002B08D07B681B681A687B6806
:102A0C001B6822F480421A600DE0FB68DB0B03F0BC
:102A1C000103002B07D07B681B681A687B681B6856
:102A2C0022F400421A607B6893F84130DBB2292B08
:102A3C0012D17B68282283F841207B6821221A63FB
:102A4C000121786800F032FD7B68002283F8402079
:102A5C007868FFF74EFD17E07B6893F84130DBB2E6
:102A6C002A2B11D17B68282283F841207B682222F3
:102A7C001A630221786800F019FD7B68002283F844
:102A8C0040207868FFF73FFD00BF1037BD4680BD82
:102A9C0080B586B000AF786039607B681B681B68B6
:102AAC003B613B687B617B68DB6AFB607B6893F80E
:102ABC004130FB727B681B682022DA61FB7A212B88
:102ACC0002D0FB7A292B08D148F20101786800F07A
:102ADC00EDFC7B6821221A6319E0FB7A222B02D0D1
:102AEC00FB7A2A2B08D148F20201786800F0DEFC50
:102AFC007B6822221A630AE0FB7A282B07D148F262
:102B0C000301786800F0D2FC7B6800221A637B68B2
:102B1C001B685A687B681B6842F400425A607B68E9
:102B2C001B6859687B681A688C4B0B40536078683B
:102B3C0000F085FA3B699B0B03F00103002B13D0CB
:102B4C007B681B681A687B681B6822F480421A60D9
:102B5C007B689B6B002B20D07B689B6B1B685B6836
:102B6C009AB27B685A8518E03B69DB0B03F00103D2
:102B7C00002B12D07B681B681A687B681B6822F4D8
:102B8C0000421A607B68DB6B002B06D07B68DB6B2A
:102B9C001B685B689AB27B685A857B699B0803F05B
:102BAC000103002B20D07B6923F004037B617B683D
:102BBC001B685A6A7B685B6AD2B21A707B685B6A64
:102BCC005A1C7B685A627B681B8D002B0CD07B686F
:102BDC001B8D013B9AB27B681A857B685B8D9BB21F
:102BEC00013B9AB27B685A857B685B8D9BB2002B4C
:102BFC0005D07B685B6C43F004027B685A647B698C
:102C0C001B0903F00103002B4AD03B691B0903F09D
:102C1C000103002B44D07B685B8D9BB2002B28D129
:102C2C007B6893F84130DBB2282B08D1FB68B3F1F9
:102C3C00007F04D17969786800F094F830E07B6803
:102C4C0093F84130DBB2292B0ED1FB6813F5803F92
:102C5C000AD07B681B681022DA61786800F0EFF903
:102C6C007868FFF7B7FE1BE07B681B681022DA61FF
:102C7C0016E07B681B681022DA617B685B6C43F0A2
:102C8C0004027B685A64FB68002B03D0FB68B3F129
:102C9C00807F05D17B685B6C1946786800F0B8F8CA
:102CAC007B68002283F842207B6800225A637B6891
:102CBC005B6C002B10D07B685B6C1946786800F05D
:102CCC00A7F87B6893F84130DBB2282B41D17969A6
:102CDC00786800F047F83CE07B68DB6A13F5803FCE
:102CEC0014D07868FFF776FE7B681D4ADA627B6841
:102CFC00202283F841207B6800221A637B68002223
:102D0C0083F840207868FFF716FC22E07B6893F884
:102D1C004130DBB2222B0ED17B68202283F841207C
:102D2C007B6800221A637B68002283F84020786855
:102D3C00FFF7E9FB0DE07B68202283F841207B68DC
:102D4C0000221A637B68002283F840207868FFF722
:102D5C00D0FB00BF1837BD4680BD00BF00E800FEA9
:102D6C000000FFFF80B582B000AF786039607B68EF
:102D7C00264ADA627B6800221A637B68202283F879
:102D8C0041207B68002283F842207B6800225A6332
:102D9C003B689B0803F00103002B22D07B681B6867
:102DAC005A6A7B685B6AD2B21A707B685B6A5A1C7F
:102DBC007B685A627B681B8D002B12D07B681B8D45
:102DCC00013B9AB27B681A857B685B8D9BB2013B99
:102DDC009AB27B685A857B685B6C43F004027B6813
:102DEC005A6448F20301786800F060FB7B681B684A
:102DFC001022DA617B68002283F840207868FFF7A4
:102E0C009AFB00BF0837BD4680BD00BF0000FFFF26
:102E1C0080B584B000AF786039607B6893F841303E
:102E2C00FB737B68002283F842207B686D4ADA6270
:102E3C007B6800225A857B685A6C3B681A437B6816
:102E4C005A64FB7B282B05D0FB7B292B02D0FB7B08
:102E5C002A2B0BD10321786800F028FB7B682822F1
:102E6C0083F841207B68604A5A6330E048F20301E2
:102E7C00786800F01BFB786800F0E1F87B6893F849
:102E8C004130DBB2602B1FD07B68202283F84120BD
:102E9C007B681B689B6903F02003202B14D17B6893
:102EAC001B689B6903F01003102B09D17B681B680E
:102EBC001022DA617B685B6C43F004027B685A6415
:102ECC007B681B682022DA617B6800225A637B686E
:102EDC001B6BBB607B689B6B002B39D0BB68112BC9
:102EEC0002D0BB68212B33D17B681B681B6803F4B1
:102EFC008043B3F5804F07D17B681B681A687B68E9
:102F0C001B6822F480421A607B689B6B1846FEF7A4
:102F1C00B1FD0346012B17D07B689B6B334A9A6338
:102F2C007B68002283F840207B689B6B1846FEF779
:102F3C0093FC0346002B4DD07B689B6B9B6B7A6894
:102F4C00926B1046984745E0786800F051F841E0E4
:102F5C007B68DB6B002B39D0BB68122B02D0BB68B3
:102F6C00222B33D17B681B681B6803F40043B3F539
:102F7C00004F07D17B681B681A687B681B6822F4BA
:102F8C0000421A607B68DB6B1846FEF773FD034644
:102F9C00012B17D07B68DB6B144A9A637B68002289
:102FAC0083F840207B68DB6B1846FEF755FC034624
:102FBC00002B11D07B68DB6B9B6B7A68D26B104655
:102FCC00984709E0786800F013F805E0786800F09D
:102FDC000FF802E000BF00E000BF00BF1037BD4695
:102FEC0080BD00BF0000FFFF7F2500089330000864
:102FFC0080B582B000AF78607B6893F84130DBB26B
:10300C00602B0ED17B68202283F841207B68002244
:10301C001A637B68002283F840207868FFF79FFAD8
:10302C0009E07B6800221A637B68002283F8402049
:10303C007868FFF78AFA00BF0837BD4680BD80B4B8
:10304C0083B000AF78607B681B689B6903F0020358
:10305C00022B03D17B681B6800229A627B681B6879
:10306C009B6903F00103012B07D07B681B689A69ED
:10307C007B681B6842F001029A6100BF0C37BD46A9
:10308C005DF8047B704780B584B000AF78607B68D6
:10309C009B6AFB60FB689B6B002B03D0FB689B6BF4
:1030AC0000229A63FB68DB6B002B03D0FB68DB6BA5
:1030BC0000229A63F868FFF79BFF00BF1037BD46EC
:1030CC0080BD80B584B000AFF860B9603B6013463A
:1030DC00FB713BE0BA693968F86800F0D5F8034633
:1030EC00002B01D0012341E03B68B3F1FF3F2DD011
:1030FC00FEF7BEF90246BB69D31A3A689A4202D36C
:10310C003B68002B22D1FB681B689A69BB68134093
:10311C00BA689A420CBF01230023DBB21A46FB7932
:10312C009A4213D1FB685B6C43F02002FB685A6433
:10313C00FB68202283F84120FB68002283F84220A0
:10314C00FB68002283F8402001230FE0FB681B681A
:10315C009A69BB681340BA689A420CBF01230023DA
:10316C00DBB21A46FB799A42B4D0002318461037CA
:10317C00BD4680BD80B584B000AFF860B9607A60A0
:10318C0033E07A68B968F86800F07EF80346002BE3
:10319C0001D0012331E0BB68B3F1FF3F25D0FEF72E
:1031AC0067F902467B68D31ABA689A4202D3BB68A5
:1031BC00002B1AD1FB681B689B6903F00203022BDE
:1031CC0013D0FB685B6C43F02002FB685A64FB680D
:1031DC00202283F84120FB68002283F84220FB6800
:1031EC00002283F84020012307E0FB681B689B69E1
:1031FC0003F00203022BC4D1002318461037BD463E
:10320C0080BD80B584B000AFF860B9607A602FE003
:10321C007A68B968F86800F037F80346002B01D0DB
:10322C0001232DE0FEF724F902467B68D31ABA6815
:10323C009A4202D3BB68002B1AD1FB681B689B69AE
:10324C0003F02003202B13D0FB685B6C43F02002AF
:10325C00FB685A64FB68202283F84120FB6800223B
:10326C0083F84220FB68002283F84020012307E00A
:10327C00FB681B689B6903F02003202BC8D100233B
:10328C0018461037BD4680BD80B58AB000AFF860D7
:10329C00B9607A60002387F82730FB681B689B694C
:1032AC00BB6100233B627B68FB61BB6903F01003CD
:1032BC00002B68D0FB681B681022DA6149E0BB6800
:1032CC00B3F1FF3F45D0FEF7D3F80246FB69D31AA2
:1032DC00BA689A4202D3BB68002B3AD1FB681B68D0
:1032EC005B6803F480437B61FB6893F84230FB74AA
:1032FC00FB681B689B6903F40043B3F5004F21D1B5
:10330C007B69B3F5804F1DD0FB7C202B1AD0FB685A
:10331C001B685A68FB681B6842F480425A60FEF7CF
:10332C00A7F8F8610EE0FEF7A3F80246FB69D31A82
:10333C00192B07D93B6A43F020033B62012387F822
:10334C00273006E0FB681B689B6903F02003202BE9
:10335C00E9D1FB681B689B6903F02003202B03D089
:10336C0097F82730002BAAD097F82730002B03D1E1
:10337C00FB681B682022DA613B6A43F004033B6262
:10338C00012387F82730FB681B689B69BB61BB690D
:10339C0003F48073002B0BD03B6A43F001033B62B8
:1033AC00FB681B684FF48072DA61012387F82730C1
:1033BC00BB6903F48063002B0BD03B6A43F008031A
:1033CC003B62FB681B684FF48062DA61012387F86B
:1033DC002730BB6903F40073002B0BD03B6A43F01E
:1033EC0002033B62FB681B684FF40072DA61012335
:1033FC0087F8273097F82730002B1CD0F868FFF798
:10340C001EFEFB681B685968FB681A680D4B0B4065
:10341C005360FB685A6C3B6A1A43FB685A64FB683E
:10342C00202283F84120FB68002283F84220FB68AD
:10343C00002283F8402097F8273018462837BD46DD
:10344C0080BD00BF00E800FE80B487B000AFF8601C
:10345C007B600B467B8113467B727B89C3F309022D
:10346C007B7A1B0403F47F031A437B681A433B6A81
:10347C00134323F000437B61FB681B685A683B6A6B
:10348C005B0D03F48061084B0B43DB4302EA030141
:10349C00FB681B687A690A435A6000BF1C37BD463B
:1034AC005DF8047B704700BFFF63FF0380B485B0F9
:1034BC0000AF78600B467B800023FB607B8803F0B9
:1034CC000103002B0FD0FB6843F04203FB607B68C9
:1034DC0093F84130DBB203F02803282B03D0FB68B0
:1034EC0043F0B003FB607B8803F00203002B0FD08A
:1034FC00FB6843F04403FB607B6893F84130DBB21C
:10350C0003F02803282B03D0FB6843F0B003FB60C7
:10351C00B7F90230002B03DAFB6843F0B803FB6009
:10352C007B88102B03D1FB6843F09003FB607B88F6
:10353C00202B03D1FB6843F02003FB607B88402BDE
:10354C0003D1FB6843F04003FB607B681B68196880
:10355C00FB68DA437B681B680A401A6000BF1437AB
:10356C00BD465DF8047B704780B483B000AF7860D3
:10357C0039607B6893F84130DBB2202B38D17B6803
:10358C0093F84030012B01D1022332E07B680122F9
:10359C0083F840207B68242283F841207B681B68D9
:1035AC001A687B681B6822F001021A607B681B6832
:1035BC001A687B681B6822F480521A607B681B684F
:1035CC0019687B681B683A680A431A607B681B6839
:1035DC001A687B681B6842F001021A607B68202223
:1035EC0083F841207B68002283F84020002300E010
:1035FC00022318460C37BD465DF8047B704780B437
:10360C0085B000AF786039607B6893F84130DBB2ED
:10361C00202B39D17B6893F84030012B01D1022348
:10362C0033E07B68012283F840207B68242283F8F6
:10363C0041207B681B681A687B681B6822F00102BA
:10364C001A607B681B681B68FB60FB6823F4706363
:10365C00FB603B681B02FA681343FB607B681B68CA
:10366C00FA681A607B681B681A687B681B6842F0F2
:10367C0001021A607B68202283F841207B680022BB
:10368C0083F84020002300E0022318461437BD467F
:10369C005DF8047B7047000080B483B000AF7860A5
:1036AC00054B5A6804497B6813434B6000BF0C37C9
:1036BC00BD465DF8047B70470000014080B584B0C6
:1036CC0000AF78607B68002B01D10123C0E07B68E0
:1036DC0093F89132DBB2002B06D17B68002283F881
:1036EC009022786807F0D8FB7B68032283F891223C
:1036FC007B681B68184603F038FF0023FB733EE021
:10370C00FA7B796813469B001344DB000B4411339E
:10371C0001221A70FA7B796813469B001344DB0074
:10372C000B441033FA7B1A70FA7B796813469B00B2
:10373C001344DB000B44133300221A70FA7B7968B4
:10374C0013469B001344DB000B44203300221A6009
:10375C00FA7B796813469B001344DB000B4424333B
:10376C0000221A60FB7B79685A1C13469B00134499
:10377C00DB000B4400221A60FB7B0133FB737B687C
:10378C001B79FA7B9A42BBD30023FB7344E0FA7B90
:10379C00796813469B001344DB000B4403F251136E
:1037AC0000221A70FA7B796813469B001344DB00E5
:1037BC000B4403F5A873FA7B1A70FA7B79681346ED
:1037CC009B001344DB000B4403F2531300221A70CA
:1037DC00FA7B796813469B001344DB000B4403F51A
:1037EC00B07300221A60FA7B796813469B0013446D
:1037FC00DB000B4403F5B27300221A60FA7B796884
:10380C0013469B001344DB000B4403F5B4730022F6
:10381C001A60FB7B0133FB737B681B79FA7B9A4242
:10382C00B5D37B6818687B68043393E8060003F013
:10383C00B7FE7B6800221A737B68012283F8912201
:10384C007B689B7A012B02D1786801F0F6FB002390
:10385C0018461037BD4680BD80B582B000AF786089
:10386C007B6893F89032012B01D1022312E07B6824
:10387C00012283F890227B681B68184603F05EFED9
:10388C007B681B68184605F03BFC7B68002283F8BC
:10389C009022002318460837BD4680BD80B584B001
:1038AC0000AF78607B681B68184605F040FCF86038
:1038BC00FB6803F40043002B03D0786800F0EEFAA9
:1038CC0010E1FB6803F48063002B13D07B681B684A
:1038DC00B3F844309AB27B681B6822F4806292B2CF
:1038EC00A3F84420786807F084FB0021786800F086
:1038FC00FCF8F7E0FB6803F48043002B0CD07B68EA
:10390C001B68B3F844309AB27B681B6822F480427F
:10391C0092B2A3F84420E5E0FB6803F40053002BBB
:10392C000CD07B681B68B3F844309AB27B681B6878
:10393C0022F4005292B2A3F84420D3E0FB6803F4C3
:10394C008053002B34D07B681B68B3F840309AB29C
:10395C007B681B6822F0040292B2A3F840207B68BB
:10396C001B68B3F840309AB27B681B6822F00802DF
:10397C0092B2A3F840207B6893F8C832012B07D190
:10398C007B68002283F8C8220021786801F07FFB55
:10399C00786807F067FB7B681B68B3F844309AB211
:1039AC007B681B6822F4805292B2A3F8442099E001
:1039BC00FB6803F40063002B27D07B681B68B3F80B
:1039CC0040309AB27B681B6842F0080292B2A3F8AE
:1039DC0040207B681B68B3F844309AB27B681B6844
:1039EC0022F4006292B2A3F844207B681B68B3F8FF
:1039FC0040309AB27B681B6842F0040292B2A3F882
:103A0C004020786807F014FB6CE0FB6803F080033F
:103A1C00002B40D07B681B68B3F844309AB27B68AB
:103A2C001B6822F0800292B2A3F844207B6893F8C2
:103A3C00C832002B2BD17B681B68B3F840309AB28C
:103A4C007B681B6842F0040292B2A3F840207B68AA
:103A5C001B68B3F840309AB27B681B6842F00802CE
:103A6C0092B2A3F840207B68012283F8C8227B68BD
:103A7C001B68B3F854309BB29B0803F03C027B6884
:103A8C00C3F8CC220121786801F001FB2AE07868A8
:103A9C0007F0CEFA26E0FB6803F40073002B0FD07E
:103AAC007B681B68B3F844309AB27B681B6822F4BD
:103ABC00007292B2A3F84420786807F08CFA11E0F7
:103ACC00FB6803F48073002B0CD07B681B68B3F885
:103ADC0044309AB27B681B6822F4807292B2A3F8CD
:103AEC00442000BF1037BD4680BD80B582B000AF0A
:103AFC0078600B46FB707B6893F89032012B01D1F8
:103B0C00022312E07B68012283F890227B68FA780A
:103B1C001A737B681B68FA781146184605F0DCFAB4
:103B2C007B68002283F89022002318460837BD4694
:103B3C0080BD80B584B000AF7860084611461A4647
:103B4C000346FB700B463B801346BB700023FB7295
:103B5C0097F90330002B0EDAFB7803F007021346BB
:103B6C009B001344DB0010337A681344FB60FB6842
:103B7C0001225A700EE0FB7803F0070213469B00FB
:103B8C001344DB0003F5A8737A681344FB60FB68ED
:103B9C0000225A70FB7803F00703DAB2FB681A7044
:103BAC003B88C3F30A02FB681A61FB68BA78DA70C7
:103BBC00BB78022B02D1FB6800221A717B6893F848
:103BCC009032012B01D102230EE07B68012283F895
:103BDC0090227B681B68F968184603F0FFFC7B6831
:103BEC00002283F89022FB7A18461037BD4680BD20
:103BFC0080B584B000AF78600B46FB7097F903304A
:103C0C00002B0EDAFB7803F0070213469B001344DB
:103C1C00DB0010337A681344FB60FB6801225A7096
:103C2C000EE0FB7803F0070213469B001344DB0005
:103C3C0003F5A8737A681344FB60FB6800225A7082
:103C4C00FB7803F00703DAB2FB681A707B6893F811
:103C5C009032012B01D102230EE07B68012283F804
:103C6C0090227B681B68F968184604F09FF97B6802
:103C7C00002283F89022002318461037BD4680BDE1
:103C8C0080B586B000AFF8607A603B600B46FB7283
:103C9C00FB7A03F0070213469B001344DB0003F589
:103CAC00A873FA6813447B617B697A685A617B69F3
:103CBC003A689A617B690022DA617B6900225A704A
:103CCC00FB7A03F00703DAB27B691A70FB681B6896
:103CDC007969184604F057FB002318461837BD467F
:103CEC0080BD80B586B000AFF8607A603B600B4653
:103CFC00FB72FB7A03F0070213469B001344DB00B4
:103D0C001033FA6813447B617B697A685A617B696A
:103D1C003A689A617B69012283F824207B693A68AE
:103D2C001A627B690022DA617B6901225A70FB7A84
:103D3C0003F00703DAB27B691A70FB681B687969B8
:103D4C00184604F020FB002318461837BD4680BDEA
:103D5C0080B584B000AF78600B46FB70FB7803F045
:103D6C0007037A681279934201D901233EE097F94F
:103D7C000330002B0EDAFB7803F0070213469B008E
:103D8C001344DB0010337A681344FB60FB68012298
:103D9C005A700CE0FA7813469B001344DB0003F5D1
:103DAC00A8737A681344FB60FB6800225A70FB68A6
:103DBC0001229A70FB7803F00703DAB2FB681A70E1
:103DCC007B6893F89032012B01D102230EE07B68C3
:103DDC00012283F890227B681B68F968184605F06D
:103DEC0081F87B68002283F8902200231846103754
:103DFC00BD4680BD80B584B000AF78600B46FB70CB
:103E0C00FB7803F00F037A681279934201D90123EE
:103E1C0040E097F90330002B0EDAFB7803F0070231
:103E2C0013469B001344DB0010337A681344FB6089
:103E3C00FB6801225A700EE0FB7803F00702134670
:103E4C009B001344DB0003F5A8737A681344FB60F2
:103E5C00FB6800225A70FB6800229A70FB7803F012
:103E6C000703DAB2FB681A707B6893F89032012B67
:103E7C0001D102230EE07B68012283F890227B683B
:103E8C001B68F968184605F07EF87B68002283F8F9
:103E9C009022002318461037BD4680BD80B592B0E5
:103EAC0000AF786033E37B681B68B3F844307B87E2
:103EBC007B8FDBB203F00F0387F8393097F839307A
:103ECC00002B40F008817B8F03F01003002B4CD1AA
:103EDC007B681B681B889BB223F4E14323F07003BF
:103EEC003B817B681A683B896FEA43436FEA534313
:103EFC009BB213807B6810333B647B681B68B3F800
:103F0C0050309BB21A463B6C1B78DB0013447A682A
:103F1C001268134403F202431B88C3F309023B6C7F
:103F2C00DA613B6C5A693B6CDB691A443B6C5A6135
:103F3C000021786807F035F87B681B7BDBB2002B1F
:103F4C0000F0E5823B6C9B69002B40F0E0827B68C3
:103F5C001B7BDBB263F07F03DAB27B681B68A3F8D0
:103F6C004C207B6800221A73D1E27B6803F5A8739E
:103F7C003B647B681B681B88FB86FB8E03F4006329
:103F8C00002B32D07B681B68B3F850309BB21A46BA
:103F9C003B6C1B78DB0013447A681268134403F201
:103FAC0006431B88C3F309023B6CDA617B68186813
:103FBC007B6803F526713B6CDA883B6CDB699BB242
:103FCC0005F008F97B681B681B889AB240F68F7362
:103FDC0013407B817B681B687A8942F0800292B225
:103FEC001A80786806F0B0FF91E2B7F93630002BF2
:103FFC0080F28D827B681B681B889AB240F68F73A7
:10400C001340FB817B681B68FA8942F0800292B2F4
:10401C001A807B681B68B3F850309BB21A463B6C15
:10402C001B78DB0013447A681268134403F20643CE
:10403C001B88C3F309023B6CDA613B6CDB69002B18
:10404C0019D03B6C5B69002B15D07B6818683B6CF6
:10405C0059693B6CDA883B6CDB699BB205F0BAF8AA
:10406C003B6C5A693B6CDB691A443B6C5A6100210E
:10407C00786806F07BFF7B681B681B88FB86FB8ED1
:10408C0003F40063002B40F04282FB8E03F4405398
:10409C00B3F5405F00F03B827B681B681B889BB2CA
:1040AC0023F4804323F07003BB81BB8983F48053DA
:1040BC00BB81BB8983F40053BB817B681A68BB89C5
:1040CC0043F07F4343F47F0343F4004343F0800306
:1040DC009BB213801BE27B681B681A4697F8393039
:1040EC009B0013441B88FB86B7F93630002B80F2FB
:1040FC00F1807B681B681A4697F839309B00134493
:10410C001B889AB240F68F731340BB867B681B6882
:10411C001A4697F839309B001344BA8E42F080024D
:10412C0092B21A8097F8392013469B001344DB0097
:10413C0003F5A8737A6813443B643B6C1B7B002B20
:10414C0023D17B681B68B3F850309BB21A463B6C8A
:10415C001B78DB0013447A681268134403F206439D
:10416C001B88C3F30903A7F84630B7F84630002B79
:10417C0000F08B807B6818683B6C59693B6CDA8863
:10418C00B7F8463005F026F87FE03B6CDB78022B65
:10419C0009D1FB8E1A46396C786800F0C6F90346D3
:1041AC00A7F8463071E07B681B681A463B6C1B789D
:1041BC009B0013441B889BB223F4E04323F0700351
:1041CC00BB877B681B681A463B6C1B789B001A44A8
:1041DC00BB8F43F07F4343F47F0343F4004343F02E
:1041EC00C0039BB213807B681B681A463B6C1B7820
:1041FC009B0013441B889BB203F48043002B22D0FA
:10420C007B681B68B3F850309BB21A463B6C1B782A
:10421C00DB0013447A681268134403F202431B88D0
:10422C00C3F30903A7F84630B7F84630002B2CD05F
:10423C007B6818683B6C59693B6C1A89B7F8463037
:10424C0004F0C8FF21E07B681B68B3F850309BB2C8
:10425C001A463B6C1B78DB0013447A6812681344D3
:10426C0003F206431B88C3F30903A7F84630B7F8DB
:10427C004630002B09D07B6818683B6C59693B6C45
:10428C005A89B7F8463004F0A5FF3B6CDA69B7F8E9
:10429C0046301A443B6CDA613B6C5A69B7F84630CD
:1042AC001A443B6C5A613B6C9B69002B05D0B7F8E8
:1042BC0046203B6C1B699A4206D23B6C1B78194614
:1042CC00786806F053FE05E07B681B68396C18466D
:1042DC0004F059F8FB8E03F08003002B00F01781DB
:1042EC0097F8392013469B001344DB0010337A688F
:1042FC0013443B647B681B681A4697F839309B0063
:10430C0013441B889BB223F4E14323F07003FB8717
:10431C007B681B681A4697F839309B001A44FB8F50
:10432C006FEA43436FEA53439BB213803B6CDB78D9
:10433C00012B40F0A1803B6C00229A613B6C1B7BF3
:10434C00002B00F09280FB8E03F04003002B46D034
:10435C003B6C5B78002B26D17B681B687B617B6890
:10436C001B68B3F850309BB21A467B6913447B61CF
:10437C003B6C1B78DA007B69134403F202433B610C
:10438C003B691B889BB2C3F309039AB23B691A8041
:10439C003B691B889BB26FEA43436FEA53439AB263
:1043AC003B691A8061E03B6C5B78012B5DD17B68CB
:1043BC001B68FB617B681B68B3F850309BB21A46D4
:1043CC00FB691344FB613B6C1B78DA00FB691344FB
:1043DC0003F20243BB61BB6900221A8045E07B6893
:1043EC001B68FB623B6C5B78002B26D17B681B68DF
:1043FC007B627B681B68B3F850309BB21A467B6AB1
:10440C0013447B623B6C1B78DA007B6A134403F227
:10441C0006433B623B6A1B889BB2C3F309039AB207
:10442C003B6A1A803B6A1B889BB26FEA43436FEA74
:10443C0053439AB23B6A1A8017E03B6C5B78012BB2
:10444C0013D17B681B68B3F850309BB21A46FB6AD9
:10445C001344FB623B6C1B78DA00FB6A134403F2D7
:10446C000643BB62BB6A00221A803B6C1B78194660
:10447C00786806F096FD4AE0FB8E03F48073002BFF
:10448C003FD17B681B68B3F850309BB21A463B6C2B
:10449C001B78DB0013447A681268134403F202435E
:1044AC001B88C3F309037B863B6C9A697B8E9A420B
:1044BC0006D93B6C9A697B8ED21A3B6C9A6102E0EE
:1044CC003B6C00229A613B6C9B69002B06D13B6CC8
:1044DC001B781946786806F064FD18E03B6C5A6945
:1044EC007B8E1A443B6C5A613B6CDA697B8E1A44A6
:1044FC003B6CDA617B681B68396C184603F043FF30
:10450C0005E0FB8E1A46396C786800F017F97B6869
:10451C001B68B3F844309BB21BB2002BFFF6C3AC44
:10452C00002318464837BD4680BD80B588B000AF23
:10453C00F860B9601346FB80FB8803F48043002BC2
:10454C007CD0FB681B68B3F850309BB21A46BB6832
:10455C001B78DB001344FA681268134403F202431D
:10456C001B88C3F309037B83BB689A697B8B9A42D4
:10457C0006D3BB689A697B8BD21ABB689A6102E03E
:10458C00BB6800229A61BB689B69002B23D1FB6836
:10459C001B681A46BB681B789B0013441B889BB294
:1045AC0023F4804323F070033B833B8B83F4005351
:1045BC003B83FB681B681A46BB681B789B001A443C
:1045CC003B8B43F07F4343F47F0343F4004343F0BE
:1045DC0080039BB21380FB8803F04003002B1FD099
:1045EC00FB681B681A46BB681B789B0013441B882E
:1045FC009BB223F4E04323F07003FB82FB681B683F
:10460C001A46BB681B789B001A44FB8A43F07F4315
:10461C0043F47F0343F4004343F0C0039BB2138085
:10462C007B8B002B00F08580FB681868BB68596990
:10463C00BB681A897B8B04F0CDFD7AE0FB681B68A4
:10464C00B3F850309BB21A46BB681B78DB0013449E
:10465C00FA681268134403F206431B88C3F3090378
:10466C007B83BB689A697B8B9A4206D3BB689A6939
:10467C007B8BD21ABB689A6102E0BB6800229A61FC
:10468C00BB689B69002B23D1FB681B681A46BB686F
:10469C001B789B0013441B889BB223F4804323F0AC
:1046AC007003FB83FB8B83F40053FB83FB681B6859
:1046BC001A46BB681B789B001A44FB8B43F07F4364
:1046CC0043F47F0343F4004343F080039BB2138015
:1046DC00FB8803F04003002B1FD1FB681B681A46B4
:1046EC00BB681B789B0013441B889BB223F4E043EC
:1046FC0023F07003BB83FB681B681A46BB681B78EE
:10470C009B001A44BB8B43F07F4343F47F0343F479
:10471C00004343F0C0039BB213807B8B002B08D06B
:10472C00FB681868BB685969BB685A897B8B04F0B5
:10473C0051FD7B8B18462037BD4680BD80B5A6B099
:10474C0000AFF860B9601346FB80FB8803F04003B0
:10475C00002B00F0F781FB681B68B3F850309BB25C
:10476C001A46BB681B78DB001344FA6812681344C2
:10477C0003F202431B88C3F30903A7F89630BB6806
:10478C009A69B7F896309A4207D9BB689A69B7F814
:10479C009630D21ABB689A6102E0BB6800229A611B
:1047AC00BB689B69002B40F0E180BB685B78002BF9
:1047BC0026D1FB681B683B63FB681B68B3F8503061
:1047CC009BB21A463B6B13443B63BB681B78DA0005
:1047DC003B6B134403F20243FB62FB6A1B889BB2E4
:1047EC00C3F309039AB2FB6A1A80FB6A1B889BB25B
:1047FC006FEA43436FEA53439AB2FB6A1A801AE09A
:10480C00BB685B78012B16D1FB681B68BB63FB682C
:10481C001B68B3F850309BB21A46BB6B1344BB6396
:10482C00BB681B78DA00BB6B134403F202437B6357
:10483C007B6B00221A80FB681B68BB62BB685B78D1
:10484C00002B26D1FB681B683B62FB681B68B3F826
:10485C0050309BB21A463B6A13443B62BB681B78D0
:10486C00DA003B6A134403F20643FB61FB691B88C5
:10487C009BB2C3F309039AB2FB691A80FB691B88CC
:10488C009BB26FEA43436FEA53439AB2FB691A80B7
:10489C0017E0BB685B78012B13D1FB681B68B3F87E
:1048AC0050309BB21A46BB6A1344BB62BB681B7880
:1048BC00DA00BB6A134403F206437B627B6A002274
:1048CC001A80BB68DB78022B23D1FB681B681A4665
:1048DC00BB681B789B0013441B889BB223F4E043FA
:1048EC0023F040037B837B8B83F020037B83FB686B
:1048FC001B681A46BB681B789B001A447B8B43F0E1
:10490C007F4343F47F0343F4004343F080039BB2A3
:10491C001380BB681B781946F86806F042FBFB88CD
:10492C0003F48043002B1FD0FB681B681A46BB683E
:10493C001B789B0013441B889BB223F4E04323F0A9
:10494C0070033B83FB681B681A46BB681B789B0093
:10495C001A443B8B43F07F4343F47F0343F44043BF
:10496C0043F080039BB2138000231FE3FB8803F406
:10497C008043002B21D0FB681B681A46BB681B7850
:10498C009B0013441B889BB223F4E04323F0700379
:10499C00A7F84E30FB681B681A46BB681B789B0057
:1049AC001A44B7F84E3043F07F4343F47F0343F48B
:1049BC00404343F080039BB21380BB6893F82430D0
:1049CC00012B40F0CA82BB685A69B7F896301A447A
:1049DC00BB685A61BB68DA69B7F896301A44BB6891
:1049EC00DA61BB681A6ABB681B699A4209D3BB6857
:1049FC001B69BB65BB681A6ABB6DD21ABB681A62AD
:104A0C0015E0BB681B6A002B07D1B7F89630BB6565
:104A1C00BB68002283F8242009E0BB68002283F8DD
:104A2C002420BB681B6ABB65BB6800221A62BB688A
:104A3C005B78002B5FD1FB681B683B64FB681B68D1
:104A4C00B3F850309BB21A463B6C13443B64BB68C2
:104A5C001B78DA003B6C134403F20243FB63FB6BE1
:104A6C001B889BB2C3F309039AB2FB6B1A80BB6D14
:104A7C00002B0AD1FB6B1B889BB26FEA43436FEA96
:104A8C0053439AB2FB6B1A8051E0BB6D3E2B16D888
:104A9C00BB6D5B083B65BB6D03F00103002B02D0C3
:104AAC003B6D01333B65FB6B1B889AB23B6D9BB234
:104ABC009B029BB213439AB2FB6B1A8037E0BB6D1F
:104ACC005B093B65BB6D03F01F03002B02D13B6DF3
:104ADC00013B3B65FB6B1B889AB23B6D9BB29B0207
:104AEC009BB213439BB26FEA43436FEA53439AB2B0
:104AFC00FB6B1A801BE0BB685B78012B17D1FB6842
:104B0C001B68BB64FB681B68B3F850309BB21A4639
:104B1C00BB6C1344BB64BB681B78DA00BB6C1344DE
:104B2C0003F202437B64BB6D9AB27B6C1A80FB6808
:104B3C001868BB685969BB681A89BB6D9BB204F0D5
:104B4C0006FB0AE2FB681B68B3F850309BB21A46AE
:104B5C00BB681B78DB001344FA681268134403F239
:104B6C0006431B88C3F30903A7F89630BB689A6900
:104B7C00B7F896309A4207D3BB689A69B7F8963063
:104B8C00D21ABB689A6102E0BB6800229A61BB68CA
:104B9C009B69002B40F0F680BB685B78002B26D11C
:104BAC00FB681B687B67FB681B68B3F850309BB2D3
:104BBC001A467B6F13447B67BB681B78DA007B6FEC
:104BCC00134403F202433B673B6F1B889BB2C3F356
:104BDC0009039AB23B6F1A803B6F1B889BB26FEA3A
:104BEC0043436FEA53439AB23B6F1A801AE0BB6897
:104BFC005B78012B16D1FB681B68FB67FB681B6895
:104C0C00B3F850309BB21A46FB6F1344FB67BB687A
:104C1C001B78DA00FB6F134403F20243BB67BB6FD4
:104C2C0000221A80FB681B68C7F88430BB685B786D
:104C3C00002B2FD1FB681B68C7F88C30FB681B68F6
:104C4C00B3F850309BB21A46D7F88C301344C7F8DF
:104C5C008C30BB681B78DA00D7F88C30134403F225
:104C6C000643C7F88830D7F888301B889BB2C3F34B
:104C7C0009039AB2D7F888301A80D7F888301B8885
:104C8C009BB26FEA43436FEA53439AB2D7F888302A
:104C9C001A801CE0BB685B78012B18D1FB681B6881
:104CAC00B3F850309BB21A46D7F884301344C7F887
:104CBC008430BB681B78DA00D7F88430134403F2D5
:104CCC000643C7F88030D7F8803000221A80BB68C2
:104CDC00DB78022B27D1FB681B681A46BB681B7854
:104CEC009B0013441B889BB223F4E04323F0400346
:104CFC00A7F89430B7F8943083F02003A7F89430D9
:104D0C00FB681B681A46BB681B789B001A44B7F8F3
:104D1C00943043F07F4343F47F0343F4004343F068
:104D2C0080039BB21380BB681B781946F86806F0A9
:104D3C0038F9FB8803F48043002B21D1FB681B68F6
:104D4C001A46BB681B789B0013441B889BB223F448
:104D5C00E04323F07003A7F89230FB681B681A46F7
:104D6C00BB681B789B001A44B7F8923043F07F4322
:104D7C0043F47F0343F4404343F080039BB213801E
:104D8C00002313E1FB8803F48043002B21D1FB6843
:104D9C001B681A46BB681B789B0013441B889BB28C
:104DAC0023F4E04323F07003A7F85630FB681B682C
:104DBC001A46BB681B789B001A44B7F8563043F070
:104DCC007F4343F47F0343F4404343F080039BB29F
:104DDC001380BB6893F82430012B40F0BE80BB6875
:104DEC005A69B7F896301A44BB685A61BB68DA69DD
:104DFC00B7F896301A44BB68DA61BB681A6ABB68AC
:104E0C001B699A4209D3BB681B69BB65BB681A6AEC
:104E1C00BB6DD21ABB681A6215E0BB681B6A002B0B
:104E2C0007D1B7F89630BB65BB68002283F8242005
:104E3C0009E0BB681B6ABB65BB6800221A62BB68D1
:104E4C00002283F82420FB681B68FB65BB685B7839
:104E5C00002B5FD1FB681B68BB66FB681B68B3F853
:104E6C0050309BB21A46BB6E1344BB66BB681B78B2
:104E7C00DA00BB6E134403F206437B667B6E1B8821
:104E8C009BB2C3F309039AB27B6E1A80BB6D002BE5
:104E9C000AD17B6E1B889BB26FEA43436FEA534384
:104EAC009AB27B6E1A804EE0BB6D3E2B16D8BB6D52
:104EBC005B083B66BB6D03F00103002B02D03B6E1D
:104ECC0001333B667B6E1B889AB23B6E9BB29B0296
:104EDC009BB213439AB27B6E1A8034E0BB6D5B09B4
:104EEC003B66BB6D03F01F03002B02D13B6E013BF5
:104EFC003B667B6E1B889AB23B6E9BB29B029BB24D
:104F0C0013439BB26FEA43436FEA53439AB27B6EEF
:104F1C001A8018E0BB685B78012B14D1FB681B6806
:104F2C00B3F850309BB21A46FB6D1344FB65BB685B
:104F3C001B78DA00FB6D134403F20643FB66BB6D72
:104F4C009AB2FB6E1A80FB681868BB685969BB681B
:104F5C005A89BB6D9BB204F0FAF8FB681B681A46C1
:104F6C00BB681B789B0013441B889BB223F4E04363
:104F7C0023F04003FB82FB8A83F01003FB82FB8A45
:104F8C0083F02003FB82FB681B681A46BB681B7806
:104F9C009B001A44FB8A43F07F4343F47F0343F4A2
:104FAC00004343F080039BB21380002318469837CC
:104FBC00BD4680BD80B487B000AFF8607B600B4607
:104FCC007B8113463B817B8903F080039BB2002BD2
:104FDC000BD07B8903F0070213469B001344DB00C4
:104FEC001033FA6813447B6109E07A8913469B00FD
:104FFC001344DB0003F5A873FA6813447B613B8907
:10500C00002B07D17B6900221A737B689AB27B69EB
:10501C00DA800BE07B6901221A737B689AB27B6998
:10502C001A817B681B0C9AB27B695A810023184643
:10503C001C37BD465DF8047B704780B485B000AF6B
:10504C0078607B681B68FB607B680122C3F8D02208
:10505C007B68002283F8C822FB68B3F854309BB2FB
:10506C0043F001039AB2FB68A3F85420FB68B3F831
:10507C0054309BB243F002039AB2FB68A3F854205D
:10508C00002318461437BD465DF8047B704780B486
:10509C0083B000AF78600B46FB7000BF0C37BD4689
:1050AC005DF8047B7047000080B400AF054B1B68B3
:1050BC00044A43F48073136000BFBD465DF8047B63
:1050CC00704700BF0004005880B400AF044B1B684D
:1050DC0003F4C0631846BD465DF8047B704700BFFF
:1050EC000004005880B400AF054B5B68044A43F4DD
:1050FC008063536000BFBD465DF8047B704700BF02
:10510C000004005880B400AF4FF0B0431B6803F4A8
:10511C008013B3F5801F01D1012300E00023184652
:10512C00BD465DF8047B704780B400AF4FF0B043D0
:10513C001B684FF0B04243F48033136000BFBD4690
:10514C005DF8047B704780B400AF4FF0B0431B6830
:10515C004FF0B04223F48033136000BFBD465DF8BE
:10516C00047B704780B400AF4FF0B0431B6803F46E
:10517C000033B3F5003F01D1012300E000231846B2
:10518C00BD465DF8047B704780B400AF4FF0B04370
:10519C001B684FF0B04243F48073136000BFBD46F0
:1051AC005DF8047B704780B400AF4FF0B0431B68D0
:1051BC004FF0B04223F48073136000BFBD465DF81E
:1051CC00047B704780B400AF4FF0B0431B6803F40E
:1051DC008063B3F5806F01D1012300E000231846F2
:1051EC00BD465DF8047B704780B483B000AF786037
:1051FC004FF0B0435B6823F0FE427B681B064FF018
:10520C00B04113434B6000BF0C37BD465DF8047BC7
:10521C00704780B400AF4FF0B043D3F898304FF0E4
:10522C00B04243F00103C2F8983000BFBD465DF8B0
:10523C00047B704780B400AF4FF0B043D3F8983084
:10524C004FF0B04223F00103C2F8983000BFBD46C6
:10525C005DF8047B704780B400AF4FF0B043D3F8D7
:10526C00983003F00203022B01D1012300E000234C
:10527C001846BD465DF8047B704780B400AF4FF014
:10528C00B043D3F890304FF0B04243F00103C2F872
:10529C00903000BFBD465DF8047B704780B400AF12
:1052AC004FF0B043D3F890304FF0B04223F00103ED
:1052BC00C2F8903000BFBD465DF8047B704780B4E7
:1052CC0000AF4FF0B043D3F890304FF0B04243F002
:1052DC000403C2F8903000BFBD465DF8047B7047F4
:1052EC0080B400AF4FF0B043D3F890304FF0B042E1
:1052FC0023F00403C2F8903000BFBD465DF8047B78
:10530C00704780B400AF4FF0B043D3F8903003F047
:10531C000203022B01D1012300E000231846BD46F5
:10532C005DF8047B704780B400AF4FF0B043D3F806
:10533C0094304FF0B04243F00103C2F8943000BFF8
:10534C00BD465DF8047B704780B400AF4FF0B043AE
:10535C00D3F894304FF0B04223F00103C2F89430EC
:10536C0000BFBD465DF8047B704780B400AF4FF0C2
:10537C00B043D3F8943003F00203022B01D1012384
:10538C0000E000231846BD465DF8047B704780B4EE
:10539C0000AF4FF0B043D3F894304FF0B04243F02D
:1053AC000403C2F8943000BFBD465DF8047B70471F
:1053BC0080B400AF4FF0B043D3F894304FF0B0420C
:1053CC0023F00403C2F8943000BFBD465DF8047BA3
:1053DC00704780B400AF4FF0B043D3F8943003F073
:1053EC000803082B01D1012300E000231846BD4619
:1053FC005DF8047B704780B483B000AF78604FF0E9
:10540C00B043D3F8943023F470627B681B024FF0E6
:10541C00B0411343C1F8943000BF0C37BD465DF862
:10542C00047B704780B400AF4FF0B0431B684FF063
:10543C00B04243F00103136000BFBD465DF8047B2E
:10544C00704780B400AF4FF0B0431B684FF0B042D0
:10545C0023F00103136000BFBD465DF8047B704769
:10546C0080B400AF4FF0B0431B6803F00203022B73
:10547C0001D1012300E000231846BD465DF8047BF2
:10548C00704780B483B000AF78604FF0B0431B68B6
:10549C0023F0F0024FF0B0417B6813430B6000BF68
:1054AC000C37BD465DF8047B704780B483B000AF09
:1054BC004FF0B0431B6803F0F0037B607B68B02BAC
:1054CC0001D9B0237B607B6818460C37BD465DF86C
:1054DC00047B704780B483B000AF78604FF0B0436A
:1054EC005B6823F47F427B681B024FF0B04113438F
:1054FC004B6000BF0C37BD465DF8047B704780B431
:10550C0083B000AF78604FF0B0439B6823F0030288
:10551C004FF0B0417B6813438B6000BF0C37BD4626
:10552C005DF8047B704780B400AF4FF0B0439B68CC
:10553C0003F00C031846BD465DF8047B704780B43D
:10554C0083B000AF78604FF0B0439B6823F0F0025B
:10555C004FF0B0417B6813438B6000BF0C37BD46E6
:10556C005DF8047B704780B483B000AF78604FF077
:10557C00B043D3F8083123F0F0024FF0B0417B6810
:10558C001343C1F8083100BF0C37BD465DF8047BEE
:10559C00704780B483B000AF78604FF0B043D3F85D
:1055AC00083123F00F027B681B094FF0B041134305
:1055BC00C1F8083100BF0C37BD465DF8047B70475D
:1055CC0080B483B000AF78604FF0B0439B6823F495
:1055DC00E0624FF0B0417B6813438B6000BF0C3727
:1055EC00BD465DF8047B704780B483B000AF786033
:1055FC004FF0B0439B6823F460524FF0B0417B688E
:10560C0013438B6000BF0C37BD465DF8047B7047BD
:10561C0080B400AF4FF0B0439B6803F0F003184622
:10562C00BD465DF8047B704780B400AF4FF0B043CB
:10563C00D3F808311B0103F0F0031846BD465DF8A2
:10564C00047B704780B400AF4FF0B0431B684FF041
:10565C00B04243F08073136000BFBD465DF8047B1D
:10566C00704780B400AF4FF0B0431B684FF0B042AE
:10567C0023F08073136000BFBD465DF8047B704758
:10568C0080B400AF4FF0B0431B6803F00073B3F16C
:10569C00007F01D1012300E000231846BD465DF8D0
:1056AC00047B704780B400AF4FF0B043DB681B0A3B
:1056BC0003F07F031846BD465DF8047B704780B449
:1056CC0000AF4FF0B043DB6803F060431846BD46B3
:1056DC005DF8047B704780B400AF4FF0B043DB68DB
:1056EC0003F070031846BD465DF8047B704780B428
:1056FC0000AF4FF0B043DB6803F003031846BD4620
:10570C005DF8047B704780B400AF4FF0B0439B68EA
:10571C0003F48033B3F5803F01D1012300E0002373
:10572C001846BD465DF8047B704780B400AF4FF05F
:10573C00B043D3F8083103F40033B3F5003F01D183
:10574C00012300E000231846BD465DF8047B70473A
:10575C0080B400AF4FF0B043D3F8083103F480337A
:10576C00B3F5803F01D1012300E000231846BD466C
:10577C005DF8047B704780B400AF4FF0B0439B687A
:10578C0003F40033B3F5003F01D1012300E0002303
:10579C001846BD465DF8047B704780B400AF4FF0EF
:1057AC00B0439B6803F48023B3F5802F01D1012310
:1057BC0000E000231846BD465DF8047B70470000EE
:1057CC0090B58DB000AF78607B68002B01D10123C0
:1057DC0063E37B681B6803F02003002B00F08D80D3
:1057EC00FFF7A1FEF862FFF782FFB862FB6A002B9D
:1057FC0005D0FB6A0C2B47D1BB6A012B44D17B68CB
:10580C00DB69002B01D1012347E37B685C6AFFF75E
:10581C004CFE03469C4214D97B685B6A184600F028
:10582C0003FD0346002B01D0012336E37B685B6A42
:10583C001846FFF726FE7B681B6A1846FFF74AFEE0
:10584C0013E07B685B6A1846FFF71BFE7B681B6ADC
:10585C001846FFF73FFE7B685B6A184600F0E4FCD5
:10586C000346002B01D0012317E300F0C9FC0346CB
:10587C00A44A1360A44B1B681846FBF7ABFD034608
:10588C00002B39D0012308E37B68DB69002B1ED089
:10589C00FFF7C8FDFBF7ECFD786208E0FBF7E8FDCD
:1058AC0002467B6AD31A022B01D90323F5E2FFF7D8
:1058BC00D7FD0346002BF1D07B685B6A1846FFF7D7
:1058CC00E0FD7B681B6A1846FFF704FE15E0FFF746
:1058DC00B8FDFBF7CDFD786208E0FBF7C9FD024689
:1058EC007B6AD31A022B01D90323D6E2FFF7B8FD4A
:1058FC000346002BF1D100E000BF7B681B6803F06E
:10590C000103002B47D0FFF70EFE3862FFF7EFFEC6
:10591C00F8613B6A082B05D03B6A0C2B08D1FB695C
:10592C00032B05D17B685B68002B34D10123B4E2D7
:10593C007B685B68B3F5803F02D1FFF7F5FB01E0B4
:10594C00FFF701FC7B685B68002B12D0FBF790FD26
:10595C00786208E0FBF78CFD02467B6AD31A642B55
:10596C0001D9032399E2FFF7FDFB0346002BF1D08D
:10597C0011E0FBF77DFD786208E0FBF779FD02464C
:10598C007B6AD31A642B01D9032386E2FFF7EAFB67
:10599C000346002BF1D17B681B6803F00203002B3C
:1059AC004CD0FFF7C0FDB861FFF7A1FE7861BB6971
:1059BC00042B05D0BB690C2B0ED17B69022B0BD1B0
:1059CC007B68DB68002B01D1012366E27B681B69D5
:1059DC001846FFF709FC31E07B68DB68002B19D017
:1059EC00FFF7D2FBFBF744FD786208E0FBF740FDC4
:1059FC0002467B6AD31A022B01D903234DE2FFF72F
:105A0C00E1FB0346002BF1D07B681B691846FFF7BE
:105A1C00EBFB13E0FFF7C7FBFBF72AFD786208E00E
:105A2C00FBF726FD02467B6AD31A022B01D903230E
:105A3C0033E2FFF7C7FB0346002BF1D17B681B68F1
:105A4C0003F00803002B06D17B681B6803F01003DE
:105A5C00002B00F0A3807B685B69002B76D07B6801
:105A6C001B6803F01003002B46D0FFF77EFC0346A7
:105A7C00002B13D1FFF757FCFBF7FAFC786208E018
:105A8C00FBF7F6FC02467B6AD31A022B01D90323DF
:105A9C0003E2FFF76AFC0346002BF1D0FFF777FC1B
:105AAC00FBF7E6FC786208E0FBF7E2FC02467B6A57
:105ABC00D31A032B01D90323EFE1FFF78AFC03462A
:105ACC00002BF1D07B689B691846FFF794FCFFF71D
