:020000040800F2
:10000000000003200D2500086F2200087722000859
:100010008522000893220008A122000800000000A9
:10002000000000000000000000000000AF220008F7
:10003000BD22000800000000CB220008D9220008E1
:100040006525000865250008652500086525000868
:100050006525000865250008652500086525000858
:10006000652500086525000865250008E5220008CB
:10007000F9220008652500086525000865250008A7
:100080006525000865250008652500080D23000882
:10009000212300086525000865250008652500085E
:1000A000652500083523000865250008652500083A
:1000B0006525000865250008492300085D23000820
:1000C00065250008652500086525000865250008E8
:1000D00065250008652500086525000865250008D8
:1000E00065250008652500086525000865250008C8
:1000F000712300087D230008892300086525000876
:1001000065250008652500086525000865250008A7
:100110006525000865250008652500086525000897
:100120006525000865250008652500086525000887
:0C0130006525000865250008652500080D
:10013C0010B5054C237833B9044B13B10448AFF315
:10014C0000800123237010BDDC01002000000000A2
:10015C00B40F010808B5034B1BB103490348AFF3B7
:10016C00008008BD00000000E0010020B40F010871
:10017C00034613F8012B002AFBD1181A01387047DB
:10018C0080B588B004AF03463960FB801346BB8052
:10019C000123FB7300F05CF8B86000F059F80346DB
:1001AC00002B01D1FB7B11E0BB681868BB681B7985
:1001BC0019460A23FA880293BB8801933B68009383
:1001CC00012303F05BF80346FB73FB7B18461037E7
:1001DC00BD4680BD80B588B004AF03463960FB8056
:1001EC001346BB800123FB7300F032F8B86000F0BB
:1001FC002FF80346002B01D1FB7B11E0BB6818687C
:10020C00BB681B7919460A23FA880293BB880193B1
:10021C003B680093012303F045F90346FB73FB7B1A
:10022C0018461037BD4680BD80B483B000AF064B76
:10023C007B60064A7B6813607B6818460C37BD46AA
:10024C005DF8047B704700BFF80100201C02002001
:10025C0080B400AF034B1B681846BD465DF8047BA9
:10026C00704700BF1C02002080B584B000AF7860DE
:10027C000023BB730023FB7300237B737B689B7B86
:10028C00002B02D17B6801229A737B68DB7B002BED
:10029C0002D17B680122DA737B681B7C002B02D1B4
:1002AC007B6801221A747B685B7C002B02D17B6813
:1002BC0001225A747B689B7C002B02D17B68012243
:1002CC009A747B68DB7C002B02D17B680122DA7488
:1002DC007B681B7D002B02D17B6801221A757B6821
:1002EC005B7D002B02D17B6802225A757B68DB7B1D
:1002FC00013B032B44D801A252F823F01903000848
:10030C002D03000853030008790300087B6893F859
:10031C00233023F00303DAB27B6883F8232033E025
:10032C007B6893F8233043F00103DAB27B6883F8DF
:10033C0023207B6893F8233023F00203DAB27B6826
:10034C0083F8232020E07B6893F8233043F00203EA
:10035C00DAB27B6883F823207B6893F8233003F0B0
:10036C000103DAB27B6883F823200DE07B6893F8F5
:10037C00233043F00303DAB27B6883F8232003E0D5
:10038C000123BB73BB7B41E27B681B7C013B032BD2
:10039C0044D801A252F823F0B5030008C9030008A1
:1003AC00EF030008150400087B6893F8233023F052
:1003BC000C03DAB27B6883F8232033E07B6893F874
:1003CC00233043F00403DAB27B6883F823207B6884
:1003DC0093F8233023F00803DAB27B6883F82320E8
:1003EC0020E07B6893F8233023F00403DAB27B68B7
:1003FC0083F823207B6893F8233043F00803DAB2A8
:10040C007B6883F823200DE07B6893F8233043F05E
:10041C000C03DAB27B6883F8232003E00123BB735F
:10042C00BB7BF3E17B685B7C032B23D0032B36DC9B
:10043C00012B02D0022B0AD031E07B6893F82330D9
:10044C0023F03003DAB27B6883F823202BE07B683F
:10045C0093F8233043F01003DAB27B6883F823203F
:10046C007B6893F8233023F02003DAB27B6883F89F
:10047C00232018E07B6893F8233003F01003DAB2E2
:10048C007B6883F823207B6893F8233043F02003A8
:10049C00DAB27B6883F823200123FB7303E001238A
:1004AC00BB73BB7BB2E1FB7B002B4DD07B689B7C91
:1004BC00013B032B44D801A252F823F0D9040008C5
:1004CC00ED04000813050008390500087B6893F853
:1004DC00233003F03F03DAB27B6883F8232033E048
:1004EC007B6893F8233043F04003DAB27B6883F8DF
:1004FC0023207B6893F8233003F07F03DAB27B6808
:10050C0083F8232020E07B6893F8233023F040030A
:10051C00DAB27B6883F823207B6893F8233063F08E
:10052C007F03DAB27B6883F823200DE07B6893F8B5
:10053C00233063F03F03DAB27B6883F8232003E0B7
:10054C000123BB73BB7B61E17B68DB7C013B032B31
:10055C0044D801A252F823F075050008890500085B
:10056C00AF050008D50500087B6893F8223023F00E
:10057C000303DAB27B6883F8222033E07B6893F8BC
:10058C00223043F00103DAB27B6883F822207B68C7
:10059C0093F8223023F00203DAB27B6883F822202E
:1005AC0020E07B6893F8223023F00103DAB27B68F9
:1005BC0083F822207B6893F8223043F00203DAB2EE
:1005CC007B6883F822200DE07B6893F8223043F09F
:1005DC000303DAB27B6883F8222003E00123BB73A8
:1005EC00BB7B13E17B681B7D013B072B00F29A80E0
:1005FC0001A252F823F000BF2506000839060008B6
:10060C005F06000885060008AB060008D106000846
:10061C00F70600081D0700087B6893F8223023F0CA
:10062C001C03DAB27B6883F822207FE07B6893F8A6
:10063C00223023F01803DAB27B6883F822207B681F
:10064C0093F8223043F00403DAB27B6883F822205B
:10065C006CE07B6893F8223023F01403DAB27B68E9
:10066C0083F822207B6893F8223043F00803DAB237
:10067C007B6883F8222059E07B6893F8223023F0C2
:10068C001003DAB27B6883F822207B6893F822305F
:10069C0043F00C03DAB27B6883F8222046E07B68D7
:1006AC0093F8223023F00C03DAB27B6883F8222013
:1006BC007B6893F8223043F01003DAB27B6883F83E
:1006CC00222033E07B6893F8223023F00803DAB25F
:1006DC007B6883F822207B6893F8223043F0140364
:1006EC00DAB27B6883F8222020E07B6893F8223012
:1006FC0023F00403DAB27B6883F822207B6893F83A
:10070C00223043F01803DAB27B6883F822200DE024
:10071C007B6893F8223043F01C03DAB27B6883F8D1
:10072C00222003E00123BB73BB7B6FE07B685B7D06
:10073C00012B02D0022B0AD013E07B6893F82230F5
:10074C0023F04003DAB27B6883F822200DE07B684B
:10075C0093F8223043F04003DAB27B6883F822200E
:10076C0003E00123BB73BB7B50E07B682233022286
:10077C0019460720FFF704FD0346002B03D0012385
:10078C00BB73BB7B42E007F10D031946786800F0A0
:10079C0066F80346002B03D00123BB73BB7B35E00B
:1007AC007B7B03F02003002B03D10123BB73BB7BAA
:1007BC002CE07B7B03F00803002B03D00123BB73DD
:1007CC00BB7B23E07B7B03F01003002B03D00123C6
:1007DC00BB73BB7B1AE0BB7B002B13D17B68012264
:1007EC009A757B6818331946786800F013F87B68A3
:1007FC001A8B7B685A837B680022DA617B68002243
:10080C001A8402E07B6800229A75BB7B184610376D
:10081C00BD4680BD80B584B000AF786039600023E0
:10082C00FB730023BB8107F10C03022219460C2039
:10083C00FFF7D0FC0346002B01D00123FB733B7B5D
:10084C001BB21B021AB27B7B1BB213431BB29AB2B4
:10085C003B681A80FB7B18461037BD4680BD80B5BF
:10086C0084B000AF786039600023FB7301223968D3
:10087C000B20FFF7AFFC0346002B01D00123FB73C9
:10088C00FB7B18461037BD4680BD0000B0B588B064
:10089C0000AF0B4B3C1D1D460FCD0FC495E8070058
:1008AC0003C422800234130C23700EF003FB3B1D97
:1008BC0018460DF094FD00BF2037BD46B0BD00BFFB
:1008CC00CC0F010880B483B000AF7860074BD3F82D
:1008DC00803023F0070205497B681343C1F8803050
:1008EC0000BF0C37BD465DF8047B70470004005810
:1008FC0080B483B000AF7860064BD3F890200549E4
:10090C007B681343C1F8903000BF0C37BD465DF8CF
:10091C00047B70470008005880B483B000AF786047
:10092C004FF0B0430A4AC3F89C204FF0B043D3F8C1
:10093C009C3023F47C527B681B024FF0B041134374
:10094C00C1F89C3000BF0C37BD465DF8047B704786
:10095C00FECAFECA80B483B000AF78604FF0B043DB
:10096C009B6823F400424FF0B0417B6813438B60CB
:10097C0000BF0C37BD465DF8047B704780B400AFF8
:10098C00044B1B68C3F30B031846BD465DF8047B90
:10099C00704700BF002004E080B400AF044B1B681C
:1009AC001B0C9BB21846BD465DF8047B704700BF1C
:1009BC00002004E080B483B000AF78607B68FF2235
:1009CC005A6200BF0C37BD465DF8047B704780B49B
:1009DC0083B000AF78607B68CA225A627B6853226E
:1009EC005A6200BF0C37BD465DF8047B704780B47B
:1009FC0083B000AF786039607B689B6823F0070296
:100A0C003B681A437B689A6000BF0C37BD465DF8A3
:100A1C00047B704780B500AF044B4FF400421A6161
:100A2C0000F024F800F029F800BF80BD0040005809
:100A3C0080B500AF00F035F800F04EF80349002007
:100A4C0000F058FD00F056F800BF80BD38040020BF
:100A5C0080B400AF00BFBD465DF8047B704780B525
:100A6C0000AF5020FFF744FF00BF80BD80B400AF43
:100A7C0000BFBD465DF8047B704780B582B000AF07
:100A8C0000200EF0A3FA78607B68002B05D07B6801
:100A9C009B791846FFF740FF00BF00BF0837BD46E3
:100AAC0080BD80B500AFFFF7D3FFFFF7D8FF00F094
:100ABC0003F800BF80BD000080B500AF0548FFF70C
:100ACC0086FF00210348FFF792FF0248FFF772FFF1
:100ADC0000BF80BD0028004080B500AF4FF400403F
:100AEC00FFF738FF0FF0BCFF0420FFF7EBFE00BF51
:100AFC0080BD000080B588B000AF0EF025F8114A1B
:100B0C000021402010F0EAF80F4B3B600F4B7B604C
:100B1C003B4619460E480DF0D9FE0E4BBB600E4BF2
:100B2C00FB600E4B3B6140F23C537B6107F10803C9
:100B3C0018460EF04BF90EF001F800BF2037BD46F9
:100B4C0080BD00BF11E90008340703206D0B0008BD
:100B5C00850B00084C09032040080320F8010320F2
:100B6C0080B483B000AF0346FB7100BF0C37BD46A9
:100B7C005DF8047B7047000080B588B000AF7860EA
:100B8C007B685B680B33FB61FB691B889BB2A3F52D
:100B9C001243072B1FD801A252F823F0C90B0008EF
:100BAC00DB0B0008E30B0008E30B0008E30B000869
:100BBC00E30B0008E30B0008E30B000807F10C0340
:100BCC0018460DF039FC786800F01BF804E07868E2
:100BDC0000F006F800E000BF00BF2037BD4680BD26
:100BEC0080B485B000AF78607B685B680B33FB60CA
:100BFC00FB680233BB6000BF1437BD465DF8047B55
:100C0C00704780B58AB000AF786007F10803002206
:100C1C001A605A609A60DA6000237B6200233B62A0
:100C2C007B685B680B33FB61FB690233BB61BB699F
:100C3C001B78002B1DD1FFF729FE0F233B727F235E
:100C4C00BB72FFF7A9FE78627B6A9BB2BB82FFF78F
:100C5C0095FE38623B6A9BB2FB8207F1080318468B
:100C6C000DF0D4FB0EF0BCFA002101200FF00AFFAE
:100C7C0007E0BB691B78012B03D17B6800221A703B
:100C8C0000BF00BF2837BD4680BD80B500AF4FF018
:100C9C00FF300FF027FF00BF80BD80B400AF00BF56
:100CAC00BD465DF8047B704780B582B000AF7860BC
:100CBC000021402010F034F800BF0837BD4680BD3D
:100CCC0080B582B000AF7860022010F095F800BFBC
:100CDC000837BD4680BD80B582B000AF7860022079
:100CEC0010F0AAF800BF0837BD4680BD80B485B0AF
:100CFC0000AF78604FF0B0439A6C4FF0B0417B6816
:100D0C0013438B644FF0B0439A6C7B681340FB60C9
:100D1C00FB6800BF1437BD465DF8047B704780B597
:100D2C0000AF0420FFF7E2FF0120FFF7DFFF0022F6
:100D3C0000210B2001F0D3FD0B2001F0EAFD002275
:100D4C0000210C2001F0CBFD0C2001F0E2FD00BFD6
:100D5C0080BD80B485B000AF78604FF0B043DA6CE2
:100D6C004FF0B0417B681343CB644FF0B043DA6C67
:100D7C007B681340FB60FB6800BF1437BD465DF811
:100D8C00047B704780B586B000AF3B1D00221A6013
:100D9C005A609A60DA601A610420FFF7DAFF80204B
:100DAC00FFF7D7FF0220FFF7D4FF0120FFF7D1FF99
:100DBC001020FFF7CEFF002202214FF0904002F0EE
:100DCC0085F900221021224802F080F908237B606B
:100DDC000323BB600023FB603B1D19461D4802F03A
:100DEC0005F848F2FD737B600323BB600023FB60B6
:100DFC003B1D19464FF0904001F0F8FF02237B6039
:100E0C000123BB600023FB6000233B613B1D1946A3
:100E1C004FF0904001F0EAFFFF237B600323BB609F
:100E2C000023FB603B1D19460B4801F0DFFF10232C
:100E3C007B600123BB600023FB6000233B613B1DF7
:100E4C001946034801F0D2FF00BF1837BD4680BDDC
:100E5C0000100048001C00480004004880B483B017
:100E6C0000AF7860064BD3F8802005497B681343AC
:100E7C00C1F8803000BF0C37BD465DF8047B70476D
:100E8C000008005880B483B000AF7860054B1A6836
:100E9C0004497B6813430B6000BF0C37BD465DF8FB
:100EAC00047B70470008005880B483B000AF0D4B32
:100EBC009B6A9BB27B600B4B9B6A9BB23B6005E0D1
:100ECC003B687B60074B9B6A9BB23B607A683B68D4
:100EDC009A42F5D13B6818460C37BD465DF8047B49
:100EEC00704700BF0028004080B485B000AF0346B7
:100EFC000A46FB711346BB71BA791D4913465B0058
:100F0C001344DB000B4415331B78FB73FB7B062B64
:100F1C0009D0FA7B164913465B001344DB000B44E3
:100F2C001433FA791A70FA79114913465B00134499
:100F3C00DB000B441533FA7B1A70FA790C49134613
:100F4C005B001344DB000B441433BA791A70BA7982
:100F5C00074913465B001344DB000B441533FA7945
:100F6C001A7000BF1437BD465DF8047B704700BF94
:100F7C002002002080B485B000AF03460A46FB7106
:100F8C001346BB71294B1B78DBB2BA799A4232D02B
:100F9C00BA79274913465B001344DB000B44143326
:100FAC001B78FB73FA7B224913465B001344DB006E
:100FBC000B441533FA791A70FA791D4913465B0004
:100FCC001344DB000B441533BA791A70FA791849BB
:100FDC0013465B001344DB000B441433FA7B1A708A
:100FEC00BA79134913465B001344DB000B441433EA
:100FFC00FA791A7014E0FA790D4913465B00134420
:10100C00DB000B441533BA791A70BA7908491346C8
:10101C005B001344DB000B441433FA791A7000BFE5
:10102C001437BD465DF8047B704700BFB00200204A
:10103C002002002080B584B000AF0346FB714E4BFC
:10104C001B78DBB2062B18D14B4B1B78DAB24B4B0F
:10105C001A70494AFB791370FA79494913465B00B7
:10106C001344DB000B44153306221A70454B4FF02A
:10107C00FF321A600023FB8178E000F009F9034687
:10108C00FB81FA793E4913465B001344DB000B44A9
:10109C0008331968FB89FA791944394813465B00FF
:1010AC001344DB00034408331960FA7934491346BE
:1010BC005B001344DB000B4408331B68BB602E4BF6
:1010CC001B78DBB219462E4A0B465B000B44DB0047
:1010DC00134408331B68BA689A4237D3264B1B78E3
:1010EC007B737A7B264913465B001344DB000B446D
:1010FC0015331B783B7313E07A7B214913465B0055
:10110C001344DB000B4415331B787B737A7B1C492F
:10111C0013465B001344DB000B4415331B783B7305
:10112C003B7B062B0BD03A7B154913465B001344D3
:10113C00DB000B4408331B68BA689A42DCD27A7B1A
:10114C00FB7911461846FFF7CFFE0FE00A4B1B78D0
:10115C00DAB2FB7911461846FFF70CFF064B1B78E9
:10116C00DAB2064B1A70044AFB791370FB891846E5
:10117C001037BD4680BD00BFB0020020B102002078
:10118C0020020020B402002080B485B000AF0346DA
:10119C000A46FB711346BB71394B1B78DBB2FA79EB
:1011AC009A4211D1364B1B78DAB2364B1A70FA7957
:1011BC00354913465B001344DB000B4415331B7895
:1011CC00DAB22F4B1A703EE0FA792F4913465B00C6
:1011DC001344DB000B4414331B78FB73FA792A4954
:1011EC0013465B001344DB000B4415331B78BB73B5
:1011FC00F979FA7B24480B465B000B44DB00034473
:10120C0015331B78D8B2204913465B001344DB001E
:10121C000B44153302461A70BB7B062B13D0F9799D
:10122C00BA7B19480B465B000B44DB0003441433B8
:10123C001B78D8B2144913465B001344DB000B44F3
:10124C00143302461A70FA790F4913465B001344A3
:10125C00DB000B440C3301221A70094B1B78DBB2F8
:10126C00062B07D1BB79002B04D1084B4FF0FF3272
:10127C001A6000BF00BF1437BD465DF8047B704791
:10128C00B0020020B102002020020020B402002095
:10129C0080B582B000AF1A4B1B68B3F1FF3F26D06C
:1012AC00FFF702FE7860164B1B687A689A4205D8E5
:1012BC00134B1A687B68D31A7B600AE0114B1B88AE
:1012CC001A467B68D31A3B600D4B1B683A68134473
:1012DC007B600D4B1B781A467B6802FB03F37B602B
:1012EC000A4B1B781A467B68D3407B6001E00023D5
:1012FC007B607B689BB218460837BD4680BD00BF3B
:10130C00B4020020BC020020BA020020B902002066
:10131C0080B582B000AF0346FB80FB88002B08D160
:10132C00FFF7C2FD0346214A1360032001F019FBAD
:10133C0039E0FB88012B03D81D4B1B78012B02D005
:10134C00FB88013BFB8000BF1A4B1B68DB6803F07A
:10135C000403002BF8D0174B1B68DB68DAB2154B73
:10136C001B6862F49062DA60134B4FF40022DA606F
:10137C00032001F004FB114B5B691B0C1B04FA8866
:10138C000E4913434B61FFF78FFD0346074A136069
:10139C00084B1B689A68074B1B6842F480629A6082
:1013AC00AFF3008000BF0837BD4680BDB4020020FB
:1013BC00B902002038040020000800580028004022
:1013CC0080B584B000AF454B9B6803F48063B3F5E4
:1013DC00806F07D100BF424B1B68DB6803F004032E
:1013EC00002BF8D13E4B1B689A683D4B1B6822F4CE
:1013FC0080629A603B4B1B78FB73FA7B3A4913462D
:10140C005B001344DB000B4408331B68BB60FFF725
:10141C003FFF0346FB80FB88BA689A4205D2002343
:10142C00BB81324B01221A704DE0FB88304A128886
:10143C0092B213441A46BB68934206D92C4B1B88B4
:10144C00BB812A4B00221A703DE0BB689AB2FB8824
:10145C00D31ABB81254B01221A7034E0FA7B224946
:10146C0013465B001344DB000B4408331A68FB88FB
:10147C009A420AD2FA7B1C4913465B001344DB00E8
:10148C000B44083300221A6013E0FA7B164913460A
:10149C005B001344DB000B4408331968FB88FA7BB0
:1014AC00C91A114813465B001344DB00034408338C
:1014BC001960FA7B0C4913465B001344DB000B44A8
:1014CC0015331B78FB73FB7B062BC7D1BB891846E6
:1014DC00FFF71EFF00BF1037BD4680BD002800403F
:1014EC0038040020B002002020020020B8020020A6
:1014FC00BE02002080B588B000AF03463960FB7196
:10150C005E4B1B68CA225A625C4B1B6853225A62A0
:10151C005B4B9B685A4A43F020039360584B9B6883
:10152C00DBB203F00703DBB2C3F10403DAB2554BB1
:10153C001A70534B1B6903F4FE034FF4FE023A611D
:10154C003A6992FAA2F2FA60FA687A617A69002A28
:10155C0001D1202203E07A69B2FA82F2D2B2D340EE
:10156C00DBB20133DAB2484B1A70454B1B699BB2A4
:10157C00C3F30E039BB201339AB2444B1A80434B14
:10158C001B88013B404A127802FB03F3A3F5A073BE
:10159C003C4A1278D340BB61BB694FF6FE72934252
:1015AC0004D93B4B4FF6FF721A8003E0BB699AB229
:1015BC00374B1A804FF40020FFF764FC4FF40020E7
:1015CC00FFF74CFCFB79002B3DD1324B01221A70FA
:1015DC00314B4FF0FF321A600023FB770CE0FA7F9F
:1015EC002E4913465B001344DB000B440C330022E2
:1015FC001A70FB7F0133FB77FB7F052BEFD9284B50
:10160C0006221A701D4B1B689A681C4B1B6822F42F
:10161C0080629A60194B1B68DB68DAB2174B1B6847
:10162C0062F49062DA601F4B4FF40022DA60032000
:10163C0001F0A5F9114B1B689A68104B1B6842F41A
:10164C0080429A6009E00D4B1B68DB6803F48063F1
:10165C00002B02D0032001F084F9084B1B68FF22F9
:10166C005A6200220321032001F039F9032001F012
:10167C0050F900BF2037BD4680BD00BF38040020A4
:10168C0000280040B9020020BA020020BC02002051
:10169C00BE020020B8020020B4020020200200206C
:1016AC00B00200200008005880B48BB000AFF86086
:1016BC00B9603B601346FB71002387F82630EFF3CB
:1016CC001083FB61FB693B6272B600BF04E097F8C4
:1016DC002630013387F8263097F82630052B0CD8A6
:1016EC0097F826202C4913465B001344DB000B446F
:1016FC000C331B78DBB2002BE9D197F82630062B84
:10170C0038D097F82620244913465B001344DB009D
:10171C000B440C3301221A703B6ABB61BB6983F327
:10172C00108800BF97F826201B4913465B00134412
:10173C00DB000B441033FA681A6097F82620164920
:10174C0013465B001344DB000B440D33FA791A701B
:10175C0097F82620104913465B001344DB000B441A
:10176C003A681A60BB6897F826201A70002387F82D
:10177C00273008E03B6A7B617B6983F3108800BFEC
:10178C00012387F8273097F8273018462C37BD46A9
:10179C005DF8047B704700BF2002002080B586B046
:1017AC0000AF0346FB71EFF31083FB60FB687B61BA
:1017BC0072B600BF032001F0BAF8344B1B68CA2282
:1017CC005A62324B1B6853225A62FA7930491346DB
:1017DC005B001344DB000B440C331B78DBB2022B95
:1017EC0042D1FB7900211846FFF7CEFC294B1B7820
:1017FC00FB74FB7C062B2FD1274B9B6803F4806377
:10180C00B3F5806F07D100BF204B1B68DB6803F07A
:10181C000403002BF8D11D4B1B689A681B4B1B68EB
:10182C0022F480629A6000BF184B1B68DB6803F0DF
:10183C000403002BF8D0154B1B68DB68DAB2134B92
:10184C001B6862F49062DA60144B4FF40022DA6089
:10185C00032001F094F807E0114B1B78DBB2FA7C03
:10186C009A4201D0FFF7ACFD084B1B68FF225A626D
:10187C00032001F04EF87B69BB60BB6883F31088D2
:10188C0000BF00BF1837BD4680BD00BF3804002024
:10189C0020020020B0020020002800400008005860
:1018AC00B102002080B586B000AF03463960FB71F1
:1018BC00FA793B4913465B001344DB000B440C33B1
:1018CC001B78DBB2022B03D1FB791846FFF766FFBE
:1018DC00EFF31083FB60FB687B6172B600BF0320E3
:1018EC0001F025F82F4B1B68CA225A622D4B1B683E
:1018FC0053225A62FA792A4913465B001344DB00DF
:10190C000B440C3302221A70FA79254913465B00FA
:10191C001344DB000B4408333A681A60FA79204907
:10192C0013465B001344DB000B4404333A681A6023
:10193C00FB791846FFF77EFB03467B821A4B1B781C
:10194C007B741A4B1B78DBB27A7C9A4202D0FFF77D
:10195C0037FD13E0FA79124913465B001344DB00A0
:10196C000B44083319687B8AFA79C91A0C48134658
:10197C005B001344DB00034408331960094B1B68FC
:10198C00FF225A62032000F0C4FF7B69BB60BB6876
:10199C0083F3108800BF00BF1837BD4680BD00BF61
:1019AC002002002038040020B0020020B1020020E8
:1019BC0080B485B000AF78604FF0B043DA6C4FF074
:1019CC00B0417B681343CB644FF0B043DA6C7B6857
:1019DC001340FB60FB6800BF1437BD465DF8047B09
:1019EC00704780B485B000AF78604FF0B0439A6D0B
:1019FC004FF0B0417B6813438B654FF0B0439A6D49
:101A0C007B681340FB60FB6800BF1437BD465DF874
:101A1C00047B704780B500AF1D4B1E4A1A601C4BEF
:101A2C001D4A5A601A4B6C229A60194B0122DA60DB
:101A3C00174B00221A61164B00225A61144B0022DC
:101A4C009A61134B0022DA61114B00221A62104882
:101A5C0001F078FB0346002B01D000F0BDFA002109
:101A6C000B4802F0EFFE0346002B01D000F0B4FA55
:101A7C000421074802F031FF0346002B01D000F08F
:101A8C00ABFA4FF4801002F075FF00BF80BD00BFB1
:101A9C00C0020020005400401807900080B59CB094
:101AAC0000AF786007F15C0300221A605A609A60FC
:101ABC00DA601A6107F10C035022002118460FF06E
:101ACC0039FA7B681B68484A934240F089800423AA
:101ADC00FB604FF44033FB6207F10C03184605F032
:101AEC00E8FF0346002B01D000F076FA0220FFF746
:101AFC005FFF4FF44073FB6512233B6600237B664C
:101B0C000023BB660423FB6607F15C0319463748C8
:101B1C0001F06CF94FF40010FFF763FF344B354ABA
:101B2C001A60334B0A225A60314B00229A60304BB8
:101B3C000022DA602E4B80221A612D4B00225A6152
:101B4C002B4B00229A612A4B0022DA61284B00228F
:101B5C001A62274800F022FF0346002B01D000F048
:101B6C003BFA7B68224ADA63214A7B689362224BF8
:101B7C00224A1A60204B0B225A601F4B10229A608B
:101B8C001D4B0022DA601C4B80221A611A4B00227A
:101B9C005A61194B00229A61174B0022DA61164BDD
:101BAC0000221A62144800F0F9FE0346002B01D003
:101BBC0000F012FA7B68104A9A630F4A7B689362B2
:101BCC00002202211E2000F08AFE1E2000F0A1FE41
:101BDC00002202211F2000F082FE1F2000F099FE3F
:101BEC0000BF7037BD4680BD005400400004004863
:101BFC001403002008000240740300201C00024063
:101C0C0080B485B000AF78604FF0B0431A6D4FF0E0
:101C1C00B0417B6813430B654FF0B0431A6D7B6882
:101C2C001340FB60FB6800BF1437BD465DF8047BB6
:101C3C007047000080B500AF064B074A1A60054894
:101C4C0002F0AAFE0346002B01D000F0C5F900BF3C
:101C5C0080BD00BFD4030020000C005880B582B0BA
:101C6C0000AF78607B681B680D4A934213D14FF428
:101C7C008010FFF7C5FF002202212C2000F02FFE60
:101C8C002C2000F046FE002202212D2000F027FE21
:101C9C002D2000F03EFE00BF0837BD4680BD00BFC2
:101CAC00000C005880B483B000AF78604FF0B043A4
:101CBC00D3F8903023F018024FF0B0417B681343F7
:101CCC00C1F8903000BF0C37BD465DF8047B7047FF
:101CDC0080B500AF424B1B689B7D002B7ED0404BE8
:101CEC001A683F4B1B68183319461046FEF792FDD5
:101CFC003C4B00221A703A4B1B681B8B1946384B15
:101D0C001B685B8B1A46364B1B688A1ADA61344B9C
:101D1C001B68DB69002BB8BF5B42012B54DD304BD9
:101D2C001A682F4B1B68128B5A832D4B1B68DB696F
:101D3C00B3F5006F07DD2A4B1B68DA69284B1B686B
:101D4C00A2F6FF72DA61264B1B68DB6913F5006F94
:101D5C0007DA234B1B68DA69214B1B6802F6FF720A
:101D6C00DA611F4B1B68D9691D4B1A680B46002B97
:101D7C0000DA0733DB10D361194B1B68DB69002BCE
:101D8C00B8BF5B42002B04DD01221021164801F084
:101D9C009DF9134B1B68DB697F2B03DD104B1B6814
:101DAC007F22DA610E4B1B68DB6913F17F0F04DABB
:101DBC000B4B1B686FF07E02DA61094B1B68DB6909
:101DCC005AB2084B1A7004E000221021064801F0A8
:101DDC007DF9044B93F90020044BDA7000BF80BDF1
:101DEC0014040020180400200010004810040020E7
:101DFC0080B483B000AF786000BF0C37BD465DF88F
:101E0C00047B704780B500AF00F0A8FBFEF702FE24
:101E1C0000F054F800F0C0F8FFF70CFFFEF7B2FF2B
:101E2C00FEF77DFFFFF7F6FD00F066F90EF0E8F91E
:101E3C0000F016FB00F0F6F800F0D4F8FEF7F4F919
:101E4C000346194A1360184B1B68184A1A60164B44
:101E5C001B686C221A71144B1B6802229A81124B5C
:101E6C001B684FF090429A600F4B1B681846FEF7A8
:101E7C00FBF90F4806F086FBFEF7DAFDFEF705FFCF
:101E8C0000F0DAFB03460B4A13600A4B1A680A4B44
:101E9C001B689A42F2D3074B1B680A33064A13603D
:101EAC00FFF716FFEAE700BF14040020C002002071
:101EBC005C0400201C0400202004002080B59AB093
:101ECC0000AF07F120034822002118460FF032F82A
:101EDC003B1D00221A605A609A60DA601A615A61DE
:101EEC009A6104F0D5FA1020FFF7DCFE294B1B6831
:101EFC0023F4C063274A43F400731360254B1B681B
:101F0C0003F4C0633B603B680F233B624FF48033A8
:101F1C007B620123BB624FF48073FB6240233B6303
:101F2C0005237B630223FB6403233B6510237B6542
:101F3C000C23BB654FF40033FB654FF080437B668D
:101F4C004FF0C0633B6607F12003184604F02CFEEB
:101F5C000346002B01D000F03FF86F237B60032376
:101F6C00BB600023FB6000233B6100237B6180236B
:101F7C00BB610023FB613B1D0321184605F088F96A
:101F8C000346002B01D000F027F800BF6837BD4690
:101F9C0080BD00BF0004005880B594B000AF3B4634
:101FAC005022002118460EF0C5FF4FF440533B6001
:101FBC004FF440437B640023BB641023FB643B461B
:101FCC00184605F076FD0346002B01D000F004F80E
:101FDC0000BF5037BD4680BD80B400AF72B600BFA5
:101FEC0000BFFDE780B400AF00BFBD465DF8047BC9
:101FFC00704780B485B000AF78604FF0B0431A6D75
:10200C004FF0B0417B6813430B654FF0B0431A6D32
:10201C007B681340FB60FB6800BF1437BD465DF85E
:10202C00047B704780B500AF074B084A1A60064B1B
:10203C0000225A60044805F0C3FF0346002B01D070
:10204C00FFF7CAFF00BF80BD240400200010005819
:10205C0080B596B000AF786007F1080350220021DC
:10206C0018460EF067FF7B681B680D4A934213D12C
:10207C004FF40073BB604FF080433B6407F10803DF
:10208C00184605F016FD0346002B01D0FFF7A4FF00
:10209C004FF48020FFF7ADFF00BF5837BD4680BD21
:1020AC000010005880B400AF4FF0B043D3F890301C
:1020BC004FF0B04243F40043C2F8903000BFBD462D
:1020CC005DF8047B704780B485B000AF78604FF04A
:1020DC00B0439A6D4FF0B0417B6813438B654FF062
:1020EC00B0439A6D7B681340FB60FB6800BF1437EC
:1020FC00BD465DF8047B704780B586B000AF3B1DD4
:10210C0000221A605A609A60DA601A6100233B6000
:10211C00274B284A1A60264B00225A60244B0F2268
:10212C009A60234B47F6FF72DA60214B00221A614A
:10213C001F4B00229A611E4B0022DA611C4B0022BD
:10214C005A611B4805F071FF0346002B01D0FFF7C5
:10215C0043FF00233B7100237B710023BB710023E1
:10216C00BB6000233B6100237B613B1D01221946B0
:10217C000F4805F0E4FF0346002B01D0FFF72CFFBE
:10218C0001233B7001237B700123BB700023FB7088
:10219C003B4601221946064806F070F80346002B10
:1021AC0001D0FFF719FF00BF1837BD4680BD00BF37
:1021BC00380400200028004080B596B000AF78604D
:1021CC0007F108035022002118460EF0B3FE7B687D
:1021DC001B680E4A934215D14FF40063BB604FF459
:1021EC008073BB6407F10803184605F062FC0346D4
:1021FC00002B01D0FFF7F0FEFFF754FF4FF4806087
:10220C00FFF761FF00BF5837BD4680BD0028004076
:10221C0080B485B000AF78604FF0B0431A6D4FF0CA
:10222C00B0417B6813430B654FF0B0431A6D7B686C
:10223C001340FB60FB6800BF1437BD465DF8047BA0
:10224C00704780B500AF4FF40020FFF7E1FF00228C
:10225C0002212E2000F043FB2E2000F05AFB00BF81
:10226C0080BD80B400AF00BFFDE780B483B000AF89
:10227C0001237B6000BFFDE780B483B000AF012376
:10228C007B6000BFFDE780B483B000AF01237B60AF
:10229C0000BFFDE780B483B000AF01237B6000BFBB
:1022AC00FDE780B400AF00BFBD465DF8047B70470E
:1022BC0080B400AF00BFBD465DF8047B704780B4AE
:1022CC0000AF00BFBD465DF8047B704780B500AF22
:1022DC0000F09EF900BF80BD80B500AF024800F051
:1022EC0064FC00BF80BD00BF1403002080B500AFAC
:1022FC00024800F05AFC00BF80BD00BF74030020F0
:10230C0080B500AF024802F0BDFC00BF80BD00BF2D
:10231C00B40A002080B500AF024802F0B3FC00BF45
:10232C0080BD00BFB40A002080B500AF024806F0A3
:10233C0077F900BF80BD00BF5C04002080B500AF02
:10234C00024801F0C9F900BF80BD00BFC0020020E7
:10235C0080B500AF024801F0D9F900BF80BD00BFC5
:10236C00C002002080B500AF0DF090FD00BF80BD15
:10237C0080B500AF0DF0C0FD00BF80BD80B500AFD3
:10238C0000F0BCFE00BF80BD80B400AF244BD3F87E
:10239C008830234A43F47003C2F888304FF0B043BE
:1023AC001B684FF0B04243F0010313604FF0B04391
:1023BC004FF4E0229A604FF0B0431A684FF0B041EE
:1023CC00184B13400B604FF0B043D3F894304FF0E0
:1023DC00B04223F00503C2F894304FF0B043D3F869
:1023EC0098304FF0B04223F00103C2F898304FF010
:1023FC00B0430D4ADA604FF0B0430B4A1A614FF00C
:10240C00B0431B684FF0B04223F4802313604FF0AD
:10241C00B04300229A6100BFBD465DF8047B704753
:10242C0000ED00E0FBFEF6FA0010042280B485B04B
:10243C0000AF78604FF0B0431A6E4FF0B0417B683C
:10244C0013430B664FF0B0431A6E7B681340FB606E
:10245C00FB6800BF1437BD465DF8047B7047000075
:10246C0080B500AF104B114A1A600F4B40F27F221F
:10247C005A600D4B00229A600B4B42F20F72DA60DD
:10248C00094B00221A61084B00225A61064B80222C
:10249C009A61054806F01EF80346002B01D0FFF7A1
:1024AC009BFD00BF80BD00BF5C04002000440140C8
:1024BC0080B582B000AF78607B681B68094A934294
:1024CC000BD14FF40030FFF7B1FF0022002119208F
:1024DC0000F005FA192000F01CFA00BF0837BD46C1
:1024EC0080BD00BF00440140D458C4500433C4180C
:1024FC008C42F9D37047036004308842FBD3704799
:10250C000C488546FFF740FF0B480C490C4A00234A
:10251C00FFF7EDFF0B480C490C4A0023FFF7E7FFD0
:10252C000B480C490023FFF7E8FF0EF00BFDFFF7FB
:10253C0069FCFEE700000320080000207001002069
:10254C0090120108E4010320670A03205E140108BD
:10255C00DC010020440E0020FEE7000080B582B0B4
:10256C0000AF0023FB710C4B1B680B4A43F48073C8
:10257C001360032000F0A8F90F2000F00FF80346B9
:10258C00002B02D00123FB7101E0FFF75AFEFB790F
:10259C0018460837BD4680BD0040005880B584B051
:1025AC0000AF78600023FB73174B1B78002B24D0F3
:1025BC0005F01AF80246144B1B7819464FF47A733F
:1025CC00B3FBF1F3B2FBF3F3184600F0BEF903468C
:1025DC00002B0FD17B680F2B09D8002279684FF0A4
:1025EC00FF3000F07CF9094A7B68136007E0012397
:1025FC00FB7304E00123FB7301E00123FB73FB7B02
:10260C0018461037BD4680BD100000200C0000207D
:10261C0080B400AF064B1B781A46064B1B6813445C
:10262C00044A136000BFBD465DF8047B704700BFD1
:10263C0010000020A804002080B400AF034B1B68DE
:10264C001846BD465DF8047B704700BFA804002007
:10265C0080B400AF034B1B681846BD465DF8047B85
:10266C00704700BF0C00002080B485B000AF7860CC
:10267C007B6803F00703FB600C4BDB68BB60BA683C
:10268C004FF6FF031340BB60FB681A02BB68134391
:10269C0043F0BF6343F40033BB60044ABB68D360B0
:1026AC0000BF1437BD465DF8047B704700ED00E0B9
:1026BC0080B400AF044BDB681B0A03F00703184619
:1026CC00BD465DF8047B704700ED00E080B483B03C
:1026DC0000AF0346FB7197F90730002B0BDBFB793E
:1026EC0003F01F02074997F907305B09012000FA34
:1026FC0002F241F8232000BF0C37BD465DF8047B85
:10270C00704700BF00E100E080B483B000AF034627
:10271C00FB7197F90730002B12DBFB7903F01F02DA
:10272C000A4997F907305B09012000FA02F22033BD
:10273C0041F82320BFF34F8F00BFBFF36F8F00BF53
:10274C0000BF0C37BD465DF8047B704700E100E02C
:10275C0080B483B000AF0346FB7197F90730002BB0
:10276C000CDBFB7903F01F02074997F907305B0973
:10277C00012000FA02F2403341F8232000BF0C374D
:10278C00BD465DF8047B704700E100E080B483B087
:10279C0000AF0346FB7197F90730002B0CDBFB797C
:1027AC0003F01F02074997F907305B09012000FA73
:1027BC0002F2603341F8232000BF0C37BD465DF8B0
:1027CC00047B704700E100E080B483B000AF0346A7
:1027DC003960FB7197F90730002B0ADB3B68DAB2E2
:1027EC000C4997F907301201D2B20B4483F800233D
:1027FC000AE03B68DAB20849FB7903F00F03043BAB
:10280C001201D2B20B441A7600BF0C37BD465DF8EC
:10281C00047B704700E100E000ED00E080B489B07B
:10282C0000AFF860B9607A60FB6803F00703FB61E6
:10283C00FB69C3F10703042B28BF0423BB61FB69AD
:10284C000433062B02D9FB69033B00E000237B61B8
:10285C004FF0FF32BB6902FA03F3DA43BB681A404C
:10286C007B699A404FF0FF317B6901FA03F3D9433E
:10287C007B680B40134318462437BD465DF8047B38
:10288C007047000080B582B000AF78607B68013B78
:10289C00B3F1807F01D301230FE00A4A7B68013B2F
:1028AC0053600F214FF0FF30FFF78EFF054B0022D6
:1028BC009A60044B07221A60002318460837BD465D
:1028CC0080BD00BF10E000E080B582B000AF786042
:1028DC007868FFF7C9FE00BF0837BD4680BD80B5DC
:1028EC0086B000AF0346B9607A60FB73FFF7E0FE79
:1028FC0078617A68B9687869FFF790FF024697F9B2
:10290C000F3011461846FFF75FFF00BF1837BD4662
:10291C0080BD80B582B000AF0346FB7197F90730DC
:10292C001846FFF7D3FE00BF0837BD4680BD80B503
:10293C0082B000AF0346FB7197F907301846FFF7DA
:10294C00E3FE00BF0837BD4680BD80B582B000AF46
:10295C0078607868FFF796FF034618460837BD463F
:10296C0080BD80B582B000AF0346FB7197F907308C
:10297C001846FFF7EDFE00BF0837BD4680BD80B599
:10298C0082B000AF0346FB7197F907301846FFF78A
:10299C00FDFE00BF0837BD4680BD000080B584B089
:1029AC0000AF78607B68002B01D101238EE07B683F
:1029BC001B681A46474B9A420FD87B681B681A460D
:1029CC00454B1344454AA2FB03231B099A007B6821
:1029DC005A647B68424A1A640EE07B681B681A468C
:1029EC00404B13443D4AA2FB03231B099A007B680E
:1029FC005A647B683C4A1A647B68022283F825205F
:102A0C007B681B681B68FB60FB6823F4FF4323F0A7
:102A1C007003FB607B689A687B68DB681A437B6891
:102A2C001B691A437B685B691A437B689B691A4371
:102A3C007B68DB691A437B681B6A1343FA68134390
:102A4C00FB607B681B68FA681A60786800F06AF9AA
:102A5C007B689B68B3F5804F02D17B6800225A607B
:102A6C007B685A687B689B6C02F03F021A607B683B
:102A7C00DB6C7A68126D5A607B685B68002B10D037
:102A8C007B685B68042B0CD8786800F089F97B684C
:102A9C005B6D00221A607B689B6D7A68D26D5A6000
:102AAC0008E07B6800225A657B6800229A657B6887
:102ABC000022DA657B680022DA637B68012283F8E6
:102ACC0025207B68002283F8242000231846103729
:102ADC00BD4680BD07040240F8FFFDBFCDCCCCCC79
:102AEC0000000240F8FBFDBF0004024080B584B03A
:102AFC0000AF78600023FB737B6893F82530DBB262
:102B0C00022B05D07B680422DA630123FB7347E0B8
:102B1C007B681B681A687B681B6822F00E021A60BF
:102B2C007B681B681A687B681B6822F001021A60BC
:102B3C007B689B6C1A687B689B6C22F480721A60B1
:102B4C007B685B6C03F01C027B681B6C012101FA37
:102B5C0002F25A607B68DB6C7A68126D5A607B6893
:102B6C005B6D002B0CD07B685B6D1A687B685B6DB2
:102B7C0022F480721A607B689B6D7A68D26D5A6001
:102B8C007B68012283F825207B68002283F82420AF
:102B9C007B689B6B002B03D07B689B6B786898479A
:102BAC00FB7B18461037BD4680BD80B584B000AFA6
:102BBC0078607B681B6C1B68FB607B681B681B6800
:102BCC00BB607B685B6C03F01C0304229A40FB68BF
:102BDC001340002B26D0BB6803F00403002B21D03C
:102BEC007B681B681B6803F02003002B07D17B68F4
:102BFC001B681A687B681B6822F004021A607B68E9
:102C0C005B6C03F01C027B681B6C042101FA02F262
:102C1C005A607B681B6B002B71D07B681B6B7868D0
:102C2C0098476CE07B685B6C03F01C0302229A40B3
:102C3C00FB681340002B2ED0BB6803F00203002B63
:102C4C0029D07B681B681B6803F02003002B0BD179
:102C5C007B681B681A687B681B6822F00A021A6082
:102C6C007B68012283F825207B685B6C03F01C02D7
:102C7C007B681B6C022101FA02F25A607B6800220D
:102C8C0083F824207B68DB6A002B38D07B68DB6AF6
:102C9C007868984733E07B685B6C03F01C03082270
:102CAC009A40FB681340002B2AD0BB6803F0080342
:102CBC00002B25D07B681B681A687B681B6822F088
:102CCC000E021A607B685B6C03F01C027B681B6C49
:102CDC00012101FA02F25A607B680122DA637B68F7
:102CEC00012283F825207B68002283F824207B684E
:102CFC005B6B002B04D07B685B6B7868984700BFDC
:102D0C0000BF1037BD4680BD80B483B000AF786083
:102D1C007B6893F82530DBB218460C37BD465DF85E
:102D2C00047B704780B485B000AF78607B681B680B
:102D3C001A46174B9A420AD87B685B6C9B089B001F
:102D4C0003F1804303F502337A68936407E07B68F0
:102D5C005B6C9B089A000F4B13447A6893647B68F6
:102D6C001B68DBB2083B0C4AA2FB03231B09FB606C
:102D7C007B680A4ADA64FB6803F01F0301229A405D
:102D8C007B681A6500BF1437BD465DF8047B70473D
:102D9C00070402401C080240CDCCCCCC8008024079
:102DAC0080B485B000AF78607B685B6803F03F034C
:102DBC00FB60FA680B4B13449B001A467B685A6500
:102DCC007B68094A9A65FB68013B03F00303012207
:102DDC009A407B68DA6500BF1437BD465DF8047B0A
:102DEC00704700BF3F8200104009024080B487B09A
:102DFC0000AF7860396000237B614CE13B681A6856
:102E0C0001217B6901FA03F31340FB60FB68002B83
:102E1C0000F03E813B685B6803F00303012B05D097
:102E2C003B685B6803F00303022B30D17B689B6823
:102E3C003B617B695B00032202FA03F3DB433A69D3
:102E4C0013403B613B68DA687B695B0002FA03F371
:102E5C003A6913433B617B683A699A607B685B68AB
:102E6C003B6101227B6902FA03F3DB433A691340AD
:102E7C003B613B685B681B0903F001027B6902FA4A
:102E8C0003F33A6913433B617B683A695A603B68C8
:102E9C005B6803F00303032B17D07B68DB683B6193
:102EAC007B695B00032202FA03F3DB433A691340AC
:102EBC003B613B689A687B695B0002FA03F33A69F1
:102ECC0013433B617B683A69DA603B685B6803F0EB
:102EDC000303022B23D17B69DA087B68083253F891
:102EEC0022303B617B6903F007039B000F2202FA3F
:102EFC0003F3DB433A6913403B613B681A697B6916
:102F0C0003F007039B0002FA03F33A6913433B6196
:102F1C007B69DA087B680832396943F822107B68D0
:102F2C001B683B617B695B00032202FA03F3DB4302
:102F3C003A6913403B613B685B6803F003027B69B1
:102F4C005B0002FA03F33A6913433B617B683A690D
:102F5C001A603B685B6803F44033002B00F09880E8
:102F6C00544A7B699B08023352F823303B617B69DE
:102F7C0003F003039B000F2202FA03F3DB433A69CD
:102F8C0013403B617B68B3F1904F19D07B684A4A80
:102F9C00934213D07B68494A93420DD07B68484AD0
:102FAC00934207D07B68474A934201D1042308E03F
:102FBC00072306E0032304E0022302E0012300E0E0
:102FCC0000237A6902F00302920093403A6913439A
:102FDC003B6138497B699B0802333A6941F82320ED
:102FEC00394B1B683B61FB68DB433A6913403B611F
:102FFC003B685B6803F48013002B03D03A69FB68D1
:10300C0013433B61304A3B6913602F4B5B683B6158
:10301C00FB68DB433A6913403B613B685B6803F434
:10302C000013002B03D03A69FB6813433B61264A1B
:10303C003B695360244BD3F880303B61FB68DB4326
:10304C003A6913403B613B685B6803F48033002BA7
:10305C0003D03A69FB6813433B611B4A3B69C2F8D6
:10306C008030194BD3F884303B61FB68DB433A6901
:10307C0013403B613B685B6803F40033002B03D0C7
:10308C003A69FB6813433B610F4A3B69C2F88430D1
:10309C007B6901337B613B681A687B6922FA03F315
:1030AC00002B7FF4ABAE00BF00BF1C37BD465DF8F4
:1030BC00047B7047000001400004004800080048F1
:1030CC00000C0048001000480008005880B483B081
:1030DC0000AF78600B467B8013467B707B78002BAF
:1030EC0003D07A887B689A6102E07A887B689A625E
:1030FC0000BF0C37BD465DF8047B704780B582B0CD
:10310C0000AF0A4BDB687B60084B1A687B68DB43BB
:10311C00064913400B60054A7B685360786800F0E1
:10312C0007F800BF0837BD4680BD00BF001500582A
:10313C0080B483B000AF786000BF0C37BD465DF83B
:10314C00047B704780B582B000AF78607B68002B41
:10315C0001D101238DE07B6893F84130DBB2002B69
:10316C0006D17B68002283F840207868FEF796FC35
:10317C007B68242283F841207B681B681A687B6873
:10318C001B6822F001021A607B685A687B681B6816
:10319C0022F070621A617B681B689A687B681B68F6
:1031AC0022F400429A607B68DB68012B07D17B68B4
:1031BC009A687B681B6842F400429A6006E07B6860
:1031CC009A687B681B6842F404429A607B68DB68EF
:1031DC00022B08D17B681B685A687B681B6842F419
:1031EC0000625A6007E07B681B685A687B681B6842
:1031FC0022F400625A607B681B685B687A6812680C
:10320C0043F0007343F4004353607B681B68DA6837
:10321C007B681B6822F40042DA607B681A697B6861
:10322C005B6942EA03017B689B691A027B681B6835
:10323C000A43DA607B68D9697B681A6A7B681B6809
:10324C000A431A607B681B681A687B681B6842F02B
:10325C0001021A607B6800225A647B68202283F882
:10326C0041207B6800221A637B68002283F842208D
:10327C00002318460837BD4680BD000080B588B0D5
:10328C0002AFF860084611461A4603467B810B468E
:10329C003B811346FB80FB6893F84130DBB2202B5B
:1032AC0040F0F9803B6A002B02D0BB8C002B05D17F
:1032BC00FB684FF400725A640123EDE0FB6893F84D
:1032CC004030012B01D10223E6E0FB68012283F898
:1032DC004020FFF7B1F978617B6900931923012233
:1032EC004FF40041F86801F05AF80346002B01D066
:1032FC000123D1E0FB68212283F84120FB684022A6
:10330C0083F84220FB6800225A64FB683A6A5A62CE
:10331C00FB68BA8C5A85FB6800225A63F8883A8994
:10332C0079897B690193BB6A00930346F86800F0C6
:10333C0093FB0346002B05D0FB68002283F840204A
:10334C000123A9E0FB685B8D9BB2FF2B0ED9FB68B8
:10335C00FF221A85FB681B8DDAB279890023009352
:10336C004FF08073F86801F0DDF90FE0FB685B8DBE
:10337C009AB2FB681A85FB681B8DDAB27989002337
:10338C0000934FF00073F86801F0CCF97A69B96AD0
:10339C00F86801F05DF80346002B01D001237BE0B7
:1033AC00FB685B6A1A78FB681B689A62FB685B6A4D
:1033BC005A1CFB685A62FB685B8D9BB2013B9AB24C
:1033CC00FB685A85FB681B8D013B9AB2FB681A851A
:1033DC00FB685B8D9BB2002B34D0FB681B8D002BE4
:1033EC0030D17B690093BB6A00228021F86800F021
:1033FC00D6FF0346002B01D001234DE0FB685B8D0B
:10340C009BB2FF2B0ED9FB68FF221A85FB681B8D24
:10341C00DAB27989002300934FF08073F86801F0D9
:10342C0081F90FE0FB685B8D9AB2FB681A85FB682B
:10343C001B8DDAB27989002300934FF00073F86882
:10344C0001F070F9FB685B8D9BB2002B9ED17A6901
:10345C00B96AF86801F043F80346002B01D0012348
:10346C001AE0FB681B682022DA61FB681B6859684C
:10347C00FB681A680A4B0B405360FB68202283F8E8
:10348C004120FB68002283F84220FB68002283F86D
:10349C004020002300E0022318461837BD4680BDAB
:1034AC0000E800FE80B588B002AFF860084611460F
:1034BC001A4603467B810B463B811346FB80FB6817
:1034CC0093F84130DBB2202B40F0FD803B6A002B9F
:1034DC0002D0BB8C002B05D1FB684FF400725A64F0
:1034EC000123F1E0FB6893F84030012B01D102235A
:1034FC00EAE0FB68012283F84020FFF79DF8786131
:10350C007B690093192301224FF40041F86800F005
:10351C0046FF0346002B01D00123D5E0FB68222295
:10352C0083F84120FB68402283F84220FB6800228C
:10353C005A64FB683A6A5A62FB68BA8C5A85FB6813
:10354C0000225A63F8883A8979897B690193BB6AAE
:10355C0000930346F86800F0D3FA0346002B05D01D
:10356C00FB68002283F840200123ADE0FB685B8DF3
:10357C009BB2FF2B0ED9FB68FF221A85FB681B8DB3
:10358C00DAB27989524B00934FF08073F86801F0EE
:10359C00C9F80FE0FB685B8D9AB2FB681A85FB6873
:1035AC001B8DDAB279894A4B00934FF00073F8689F
:1035BC0001F0B8F87B690093BB6A00220421F8681B
:1035CC0000F0EDFE0346002B01D001237CE0FB68EC
:1035DC001B685A6AFB685B6AD2B21A70FB685B6A3A
:1035EC005A1CFB685A62FB681B8D013B9AB2FB6844
:1035FC001A85FB685B8D9BB2013B9AB2FB685A85BE
:10360C00FB685B8D9BB2002B34D0FB681B8D002BB1
:10361C0030D17B690093BB6A00228021F86800F0EE
:10362C00BEFE0346002B01D001234DE0FB685B8DF1
:10363C009BB2FF2B0ED9FB68FF221A85FB681B8DF2
:10364C00DAB27989002300934FF08073F86801F0A7
:10365C0069F80FE0FB685B8D9AB2FB681A85FB6812
:10366C001B8DDAB27989002300934FF00073F86850
:10367C0001F058F8FB685B8D9BB2002B9AD17A69EC
:10368C00B96AF86800F02BFF0346002B01D0012328
:10369C001AE0FB681B682022DA61FB681B6859681A
:1036AC00FB681A680B4B0B405360FB68202283F8B5
:1036BC004120FB68002283F84220FB68002283F83B
:1036CC004020002300E0022318461837BD4680BD79
:1036DC000024008000E800FE80B584B000AF786064
:1036EC007B681B689B69FB607B681B681B68BB6005
:1036FC007B685B6B002B05D07B685B6BBA68F968E9
:10370C007868984700BF1037BD4680BD80B586B03D
:10371C0000AF78607B681B689B697B617B681B686A
:10372C001B683B617B691B0A03F00103002B10D063
:10373C003B69DB0903F00103002B0AD07B685B6C4F
:10374C0043F001027B685A647B681B684FF48072FB
:10375C00DA617B699B0A03F00103002B10D03B69F3
:10376C00DB0903F00103002B0AD07B685B6C43F090
:10377C0008027B685A647B681B684FF48062DA61CC
:10378C007B695B0A03F00103002B10D03B69DB095A
:10379C0003F00103002B0AD07B685B6C43F0020240
:1037AC007B685A647B681B684FF40072DA617B6833
:1037BC005B6CFB60FB6803F00B03002B03D0F96818
:1037CC00786800F093FC00BF1837BD4680BD80B40C
:1037DC0083B000AF786000BF0C37BD465DF8047B4A
:1037EC00704780B483B000AF786000BF0C37BD4623
:1037FC005DF8047B704780B483B000AF78600B46F3
:10380C00FB7013463B8000BF0C37BD465DF8047B54
:10381C00704780B483B000AF786000BF0C37BD46F2
:10382C005DF8047B704780B483B000AF786000BF54
:10383C000C37BD465DF8047B704780B483B000AF95
:10384C00786000BF0C37BD465DF8047B704780B5CF
:10385C0086B000AFF860B9607A60FB68DB6A7B61A8
:10386C00BB683B61FB6893F84030012B01D102230C
:10387C00EDE0FB68012283F840203B695B0903F013
:10388C000103002B0AD07B685B0903F00103002BBA
:10389C0004D03969F86800F069FAD3E03B691B0978
:1038AC0003F00103002B4DD07B681B0903F00103CF
:1038BC00002B47D0FB685B8D9BB2002B28D1FB689B
:1038CC0093F84130DBB2282B08D17B69B3F1007F30
:1038DC0004D13969F86800F0B3FB32E0FB6893F867
:1038EC004130DBB2292B0ED17B6913F5803F0AD016
:1038FC00FB681B681022DA61F86800F00EFDF868AE
:10390C0000F0D6F91DE0FB681B681022DA6196E026
:10391C00FB681B681022DA61FB685B6C43F00402E5
:10392C00FB685A647B69002B04D07B69B3F1807F00
:10393C0040F08580FB685B6C1946F86800F0D6FB9C
:10394C007DE07CE03B699B0803F00103002B30D049
:10395C007B689B0803F00103002B2AD0FB685B8D6E
:10396C009BB2002B18D0FB681B685A6AFB685B6A19
:10397C00D2B21A70FB685B6A5A1CFB685A62FB680D
:10398C001B8D013B9AB2FB681A85FB685B8D9BB261
:10399C00013B9AB2FB685A85FB685B8D9BB2002B8E
:1039AC004FD17B6913F5803F4BD0F86800F080F95C
:1039BC0047E03B69DB0803F00103002B0AD07B686E
:1039CC00DB0803F00103002B04D03969F86800F020
:1039DC00EBF837E03B695B0803F00103002B31D0B7
:1039EC007B685B0803F00103002B2BD0FB685B8D1D
:1039FC009BB2002B18D0FB685B6A1A78FB681B68BB
:103A0C009A62FB685B6A5A1CFB685A62FB685B8DA6
:103A1C009BB2013B9AB2FB685A85FB681B8D013B3C
:103A2C009AB2FB681A850DE07B69B3F1807F02D0F6
:103A3C007B69002B06D1F86800F03AF902E000BF70
:103A4C0000E000BFFB68002283F8402000231846EA
:103A5C001837BD4680BD000080B586B002AFF86057
:103A6C00084611461A4603467B810B463B8113469A
:103A7C00FB80FB88DAB27989204B00934FF080737E
:103A8C00F86800F04FFEFA69B969F86800F0E0FCDC
:103A9C000346002B01D001232CE0FB88012B05D120
:103AAC003B89DAB2FB681B689A6215E03B891B0AFA
:103ABC009BB2DAB2FB681B689A62FA69B969F8685A
:103ACC0000F0C6FC0346002B01D0012312E03B8919
:103ADC00DAB2FB681B689A62FB690093BB6900222F
:103AEC008021F86800F05BFC0346002B01D0012319
:103AFC0000E0002318461037BD4680BD0020008032
:103B0C0080B586B002AFF860084611461A460346E7
:103B1C007B810B463B811346FB80FB88DAB27989AB
:103B2C00204B00930023F86800F0FCFDFA69B9699A
:103B3C00F86800F08DFC0346002B01D001232CE02B
:103B4C00FB88012B05D13B89DAB2FB681B689A62B2
:103B5C0015E03B891B0A9BB2DAB2FB681B689A62C0
:103B6C00FA69B969F86800F073FC0346002B01D0C0
:103B7C00012312E03B89DAB2FB681B689A62FB698D
:103B8C000093BB6900224021F86800F008FC034652
:103B9C00002B01D0012300E0002318461037BD464E
:103BAC0080BD00BF0020008080B584B000AF78607D
:103BBC0039607B6893F84130DBB203F02803282B83
:103BCC006AD17B681B689B691B0CDBB203F0010399
:103BDC00FB737B681B689B691B0C9BB203F0FE0399
:103BEC00BB817B681B689B689BB2C3F309037B8119
:103BFC007B681B68DB689BB203F0FE033B817B6830
:103C0C00DB68022B38D17B89DB099AB2BB89534024
:103C1C009BB203F00603002B1CD17B89BB817B6814
:103C2C009B6C5A1C7B689A647B689B6C022B3BD107
:103C3C007B6800229A647B681B680822DA617B68C7
:103C4C00002283F84020BA89FB7B19467868FFF77D
:103C5C00D2FD29E03B89BB814FF40041786800F02C
:103C6C0093FD7B68002283F84020BA89FB7B1946C0
:103C7C007868FFF7C0FD17E04FF40041786800F05A
:103C8C0083FD7B68002283F84020BA89FB7B1946B0
:103C9C007868FFF7B0FD07E07B681B680822DA61E3
:103CAC007B68002283F8402000BF1037BD4680BDE2
:103CBC0080B584B000AF78607B681B681B68FB60C4
:103CCC007B68002283F84220FB689B0B03F0010306
:103CDC00002B08D07B681B681A687B681B6822F471
:103CEC0080421A600DE0FB68DB0B03F00103002B34
:103CFC0007D07B681B681A687B681B6822F400423B
:103D0C001A607B6893F84130DBB2292B12D17B68A7
:103D1C00282283F841207B6821221A6301217868CC
:103D2C0000F032FD7B68002283F840207868FFF7B2
:103D3C004EFD17E07B6893F84130DBB22A2B11D192
:103D4C007B68282283F841207B6822221A63022197
:103D5C00786800F019FD7B68002283F840207868B1
:103D6C00FFF73FFD00BF1037BD4680BD80B586B064
:103D7C0000AF786039607B681B681B683B613B68EF
:103D8C007B617B68DB6AFB607B6893F84130FB727C
:103D9C007B681B682022DA61FB7A212B02D0FB7A2C
:103DAC00292B08D148F20101786800F0EDFC7B6802
:103DBC0021221A6319E0FB7A222B02D0FB7A2A2BE0
:103DCC0008D148F20201786800F0DEFC7B68222200
:103DDC001A630AE0FB7A282B07D148F203017868B2
:103DEC0000F0D2FC7B6800221A637B681B685A685F
:103DFC007B681B6842F400425A607B681B685968F8
:103E0C007B681A688C4B0B405360786800F085FA1D
:103E1C003B699B0B03F00103002B13D07B681B68E1
:103E2C001A687B681B6822F480421A607B689B6B63
:103E3C00002B20D07B689B6B1B685B689AB27B68FD
:103E4C005A8518E03B69DB0B03F00103002B12D001
:103E5C007B681B681A687B681B6822F400421A6036
:103E6C007B68DB6B002B06D07B68DB6B1B685B68AD
:103E7C009AB27B685A857B699B0803F00103002B7F
:103E8C0020D07B6923F004037B617B681B685A6A32
:103E9C007B685B6AD2B21A707B685B6A5A1C7B685F
:103EAC005A627B681B8D002B0CD07B681B8D013BF1
:103EBC009AB27B681A857B685B8D9BB2013B9AB288
:103ECC007B685A857B685B8D9BB2002B05D07B6829
:103EDC005B6C43F004027B685A647B691B0903F03A
:103EEC000103002B4AD03B691B0903F00103002B93
:103EFC0044D07B685B8D9BB2002B28D17B6893F8F8
:103F0C004130DBB2282B08D1FB68B3F1007F04D120
:103F1C007969786800F094F830E07B6893F8413068
:103F2C00DBB2292B0ED1FB6813F5803F0AD07B68DE
:103F3C001B681022DA61786800F0EFF97868FFF7F7
:103F4C00B7FE1BE07B681B681022DA6116E07B6809
:103F5C001B681022DA617B685B6C43F004027B689F
:103F6C005A64FB68002B03D0FB68B3F1807F05D14A
:103F7C007B685B6C1946786800F0B8F87B680022A7
:103F8C0083F842207B6800225A637B685B6C002BB1
:103F9C0010D07B685B6C1946786800F0A7F87B68DA
:103FAC0093F84130DBB2282B41D17969786800F065
:103FBC0047F83CE07B68DB6A13F5803F14D07868E7
:103FCC00FFF776FE7B681D4ADA627B68202283F855
:103FDC0041207B6800221A637B68002283F8402012
:103FEC007868FFF716FC22E07B6893F84130DBB26F
:103FFC00222B0ED17B68202283F841207B68002283
:10400C001A637B68002283F840207868FFF7E9FB8D
:10401C000DE07B68202283F841207B6800221A6324
:10402C007B68002283F840207868FFF7D0FB00BF44
:10403C001837BD4680BD00BF00E800FE0000FFFF42
:10404C0080B582B000AF786039607B68264ADA624E
:10405C007B6800221A637B68202283F841207B68EE
:10406C00002283F842207B6800225A633B689B083D
:10407C0003F00103002B22D07B681B685A6A7B6813
:10408C005B6AD2B21A707B685B6A5A1C7B685A6294
:10409C007B681B8D002B12D07B681B8D013B9AB269
:1040AC007B681A857B685B8D9BB2013B9AB27B68FF
:1040BC005A857B685B6C43F004027B685A6448F257
:1040CC000301786800F060FB7B681B681022DA61E2
:1040DC007B68002283F840207868FFF79AFB00BFCA
:1040EC000837BD4680BD00BF0000FFFF80B584B01F
:1040FC0000AF786039607B6893F84130FB737B6864
:10410C00002283F842207B686D4ADA627B680022C9
:10411C005A857B685A6C3B681A437B685A64FB7BF4
:10412C00282B05D0FB7B292B02D0FB7B2A2B0BD118
:10413C000321786800F028FB7B68282283F8412053
:10414C007B68604A5A6330E048F20301786800F0FB
:10415C001BFB786800F0E1F87B6893F84130DBB228
:10416C00602B1FD07B68202283F841207B681B6862
:10417C009B6903F02003202B14D17B681B689B697F
:10418C0003F01003102B09D17B681B681022DA6135
:10419C007B685B6C43F004027B685A647B681B6829
:1041AC002022DA617B6800225A637B681B6BBB6040
:1041BC007B689B6B002B39D0BB68112B02D0BB6882
:1041CC00212B33D17B681B681B6803F48043B3F548
:1041DC00804F07D17B681B681A687B681B6822F4C8
:1041EC0080421A607B689B6B1846FEF78DFD034678
:1041FC00012B17D07B689B6B334A9A637B68002238
:10420C0083F840207B689B6B1846FEF76FFC0346D7
:10421C00002B4DD07B689B6B9B6B7A68926B104626
:10422C00984745E0786800F051F841E07B68DB6B1B
:10423C00002B39D0BB68122B02D0BB68222B33D198
:10424C007B681B681B6803F40043B3F5004F07D170
:10425C007B681B681A687B681B6822F400421A6032
:10426C007B68DB6B1846FEF74FFD0346012B17D01E
:10427C007B68DB6B144A9A637B68002283F84020CE
:10428C007B68DB6B1846FEF731FC0346002B11D024
:10429C007B68DB6B9B6B7A68D26B1046984709E0A6
:1042AC00786800F013F805E0786800F00FF802E089
:1042BC0000BF00E000BF00BF1037BD4680BD00BF8F
:1042CC000000FFFF5B3800086F43000880B582B028
:1042DC0000AF78607B6893F84130DBB2602B0ED175
:1042EC007B68202283F841207B6800221A637B685C
:1042FC00002283F840207868FFF79FFA09E07B687A
:10430C0000221A637B68002283F840207868FFF74C
:10431C008AFA00BF0837BD4680BD80B483B000AFB9
:10432C0078607B681B689B6903F00203022B03D146
:10433C007B681B6800229A627B681B689B6903F090
:10434C000103012B07D07B681B689A697B681B688B
:10435C0042F001029A6100BF0C37BD465DF8047B48
:10436C00704780B584B000AF78607B689B6AFB6057
:10437C00FB689B6B002B03D0FB689B6B00229A6342
:10438C00FB68DB6B002B03D0FB68DB6B00229A63B2
:10439C00F868FFF79BFF00BF1037BD4680BD80B5A6
:1043AC0084B000AFF860B9603B601346FB713BE032
:1043BC00BA693968F86800F0D5F80346002B01D0CB
:1043CC00012341E03B68B3F1FF3F2DD0FEF734F9F8
:1043DC000246BB69D31A3A689A4202D33B68002B57
:1043EC0022D1FB681B689A69BB681340BA689A4271
:1043FC000CBF01230023DBB21A46FB799A4213D17E
:10440C00FB685B6C43F02002FB685A64FB6820225B
:10441C0083F84120FB68002283F84220FB680022CD
:10442C0083F8402001230FE0FB681B689A69BB6886
:10443C001340BA689A420CBF01230023DBB21A4620
:10444C00FB799A42B4D0002318461037BD4680BD84
:10445C0080B584B000AFF860B9607A6033E07A68F8
:10446C00B968F86800F07EF80346002B01D00123F0
:10447C0031E0BB68B3F1FF3F25D0FEF7DDF8024613
:10448C007B68D31ABA689A4202D3BB68002B1AD144
:10449C00FB681B689B6903F00203022B13D0FB68BB
:1044AC005B6C43F02002FB685A64FB68202283F8A3
:1044BC004120FB68002283F84220FB68002283F82D
:1044CC004020012307E0FB681B689B6903F0020393
:1044DC00022BC4D1002318461037BD4680BD80B5D1
:1044EC0084B000AFF860B9607A602FE07A68B96880
:1044FC00F86800F037F80346002B01D001232DE0BB
:10450C00FEF79AF802467B68D31ABA689A4202D32D
:10451C00BB68002B1AD1FB681B689B6903F0200356
:10452C00202B13D0FB685B6C43F02002FB685A64B1
:10453C00FB68202283F84120FB68002283F842208C
:10454C00FB68002283F84020012307E0FB681B680E
:10455C009B6903F02003202BC8D100231846103789
:10456C00BD4680BD80B58AB000AFF860B9607A6096
:10457C00002387F82730FB681B689B69BB6100230D
:10458C003B627B68FB61BB6903F01003002B68D0B6
:10459C00FB681B681022DA6149E0BB68B3F1FF3F8E
:1045AC0045D0FEF749F80246FB69D31ABA689A421D
:1045BC0002D3BB68002B3AD1FB681B685B6803F421
:1045CC0080437B61FB6893F84230FB74FB681B688B
:1045DC009B6903F40043B3F5004F21D17B69B3F51C
:1045EC00804F1DD0FB7C202B1AD0FB681B685A68AF
:1045FC00FB681B6842F480425A60FEF71DF8F861B4
:10460C000EE0FEF719F80246FB69D31A192B07D9ED
:10461C003B6A43F020033B62012387F8273006E016
:10462C00FB681B689B6903F02003202BE9D1FB6816
:10463C001B689B6903F02003202B03D097F82730CD
:10464C00002BAAD097F82730002B03D1FB681B68EE
:10465C002022DA613B6A43F004033B62012387F8B2
:10466C002730FB681B689B69BB61BB6903F48073D3
:10467C00002B0BD03B6A43F001033B62FB681B68C9
:10468C004FF48072DA61012387F82730BB6903F499
:10469C008063002B0BD03B6A43F008033B62FB6842
:1046AC001B684FF48062DA61012387F82730BB69FD
:1046BC0003F40073002B0BD03B6A43F002033B6204
:1046CC00FB681B684FF40072DA61012387F827300E
:1046DC0097F82730002B1CD0F868FFF71EFEFB68FC
:1046EC001B685968FB681A680D4B0B405360FB68DC
:1046FC005A6C3B6A1A43FB685A64FB68202283F8A5
:10470C004120FB68002283F84220FB68002283F8DA
:10471C00402097F8273018462837BD4680BD00BF8B
:10472C0000E800FE80B487B000AFF8607B600B46F9
:10473C007B8113467B727B89C3F309027B7A1B0452
:10474C0003F47F031A437B681A433B6A134323F039
:10475C0000437B61FB681B685A683B6A5B0D03F482
:10476C008061084B0B43DB4302EA0301FB681B68C7
:10477C007A690A435A6000BF1C37BD465DF8047B5A
:10478C00704700BFFF63FF0380B485B000AF786053
:10479C000B467B800023FB607B8803F00103002B1E
:1047AC000FD0FB6843F04203FB607B6893F8413009
:1047BC00DBB203F02803282B03D0FB6843F0B003D3
:1047CC00FB607B8803F00203002B0FD0FB6843F0E7
:1047DC004403FB607B6893F84130DBB203F02803A1
:1047EC00282B03D0FB6843F0B003FB60B7F9023011
:1047FC00002B03DAFB6843F0B803FB607B88102BBB
:10480C0003D1FB6843F09003FB607B88202B03D122
:10481C00FB6843F02003FB607B88402B03D1FB68D3
:10482C0043F04003FB607B681B681968FB68DA4344
:10483C007B681B680A401A6000BF1437BD465DF8E0
:10484C00047B704780B483B000AF786039607B68BC
:10485C0093F84130DBB2202B38D17B6893F8403091
:10486C00012B01D1022332E07B68012283F8402026
:10487C007B68242283F841207B681B681A687B685C
:10488C001B6822F001021A607B681B681A687B683F
:10489C001B6822F480521A607B681B6819687B685D
:1048AC001B683A680A431A607B681B681A687B6845
:1048BC001B6842F001021A607B68202283F84120B9
:1048CC007B68002283F84020002300E00223184676
:1048DC000C37BD465DF8047B704780B485B000AFE3
:1048EC00786039607B6893F84130DBB2202B39D18A
:1048FC007B6893F84030012B01D1022333E07B68B5
:10490C00012283F840207B68242283F841207B68B5
:10491C001B681A687B681B6822F001021A607B68AE
:10492C001B681B68FB60FB6823F47063FB603B68CF
:10493C001B02FA681343FB607B681B68FA681A60F9
:10494C007B681B681A687B681B6842F001021A605E
:10495C007B68202283F841207B68002283F840206A
:10496C00002300E0022318461437BD465DF8047B93
:10497C007047000080B483B000AF7860054B5A6874
:10498C0004497B6813434B6000BF0C37BD465DF890
:10499C00047B70470000014080B584B000AF7860A4
:1049AC000023FB737B68002B1ED0134BBB607B6812
:1049BC0093F83830DBB2002B02D17868FDF74EF952
:1049CC00B86800F05BF8BB681B6843F00112BB6869
:1049DC001A60786800F02CF87B6800225A637B68B8
:1049EC00012283F8382001E00123FB73FB7B18467E
:1049FC001037BD4680BD00BF000C005880B485B098
:104A0C0000AFF860B9601346FB7100BF1437BD46A8
:104A1C005DF8047B704780B485B000AFF860B96076
:104A2C001346FB7100BF1437BD465DF8047B70471D
:104A3C0080B485B000AF78600023FB600FE07A682B
:104A4C00FB689B0013440B4A5A607A68FB68063378
:104A5C009B001344084A5A60FB680133FB60FB68F7
:104A6C00052BECD900BF00BF1437BD465DF8047BA5
:104A7C00704700BF094A0008234A000880B483B07D
:104A8C0000AF78607B6800221A607B684FF03F12A1
:104A9C005A607B683F229A6000BF0C37BD465DF8B8
:104AAC00047B704780B584B000AF78607B68002BC6
:104ABC0001D10123C0E07B6893F89132DBB2002B6B
:104ACC0006D17B68002283F8902278680BF000FDF9
:104ADC007B68032283F891227B681B68184603F0DD
:104AEC006EFF0023FB733EE0FA7B796813469B0054
:104AFC001344DB000B44113301221A70FA7B7968E2
:104B0C0013469B001344DB000B441033FA7B1A70E2
:104B1C00FA7B796813469B001344DB000B44133378
:104B2C0000221A70FA7B796813469B001344DB0051
:104B3C000B44203300221A60FA7B796813469B00E1
:104B4C001344DB000B44243300221A60FB7B79688E
:104B5C005A1C13469B001344DB000B4400221A60C2
:104B6C00FB7B0133FB737B681B79FA7B9A42BBD3CB
:104B7C000023FB7344E0FA7B796813469B001344D3
:104B8C00DB000B4403F2511300221A70FA7B796894
:104B9C0013469B001344DB000B4403F5A873FA7B0C
:104BAC001A70FA7B796813469B001344DB000B44A4
:104BBC0003F2531300221A70FA7B796813469B0098
:104BCC001344DB000B4403F5B07300221A60FA7B2C
:104BDC00796813469B001344DB000B4403F5B27356
:104BEC0000221A60FA7B796813469B001344DB00A1
:104BFC000B4403F5B47300221A60FB7B0133FB7387
:104C0C007B681B79FA7B9A42B5D37B6818687B6802
:104C1C00043393E8060003F0EDFE7B6800221A7360
:104C2C007B68012283F891227B689B7A012B02D14D
:104C3C00786801F0F6FB002318461037BD4680BD9E
:104C4C0080B582B000AF78607B6893F89032012B0E
:104C5C0001D1022312E07B68012283F890227B6849
:104C6C001B68184603F094FE7B681B68184605F019
:104C7C0071FC7B68002283F89022002318460837C9
:104C8C00BD4680BD80B584B000AF78607B681B6882
:104C9C00184605F076FCF860FB6803F40043002B23
:104CAC0003D0786800F0EEFA10E1FB6803F480633F
:104CBC00002B13D07B681B68B3F844309AB27B6826
:104CCC001B6822F4806292B2A3F8442078680BF03F
:104CDC00ACFC0021786800F0FCF8F7E0FB6803F40A
:104CEC008043002B0CD07B681B68B3F844309AB21D
:104CFC007B681B6822F4804292B2A3F84420E5E062
:104D0C00FB6803F40053002B0CD07B681B68B3F8D2
:104D1C0044309AB27B681B6822F4005292B2A3F81A
:104D2C004420D3E0FB6803F48053002B34D07B6821
:104D3C001B68B3F840309AB27B681B6822F00402FF
:104D4C0092B2A3F840207B681B68B3F840309AB24B
:104D5C007B681B6822F0080292B2A3F840207B68A3
:104D6C0093F8C832012B07D17B68002283F8C82244
:104D7C000021786801F07FFB78680BF08FFC7B6872
:104D8C001B68B3F844309AB27B681B6822F48052DB
:104D9C0092B2A3F8442099E0FB6803F40063002B63
:104DAC0027D07B681B68B3F840309AB27B681B68CD
:104DBC0042F0080292B2A3F840207B681B68B3F85B
:104DCC0044309AB27B681B6822F4006292B2A3F85A
:104DDC0044207B681B68B3F840309AB27B681B6830
:104DEC0042F0040292B2A3F8402078680BF03CFC2D
:104DFC006CE0FB6803F08003002B40D07B681B68E1
:104E0C00B3F844309AB27B681B6822F0800292B2ED
:104E1C00A3F844207B6893F8C832002B2BD17B6815
:104E2C001B68B3F840309AB27B681B6842F00402EE
:104E3C0092B2A3F840207B681B68B3F840309AB25A
:104E4C007B681B6842F0080292B2A3F840207B6892
:104E5C00012283F8C8227B681B68B3F854309BB2DC
:104E6C009B0803F03C027B68C3F8CC2201217868D4
:104E7C0001F001FB2AE078680BF0F6FB26E0FB68FA
:104E8C0003F40073002B0FD07B681B68B3F844301D
:104E9C009AB27B681B6822F4007292B2A3F8442089
:104EAC0078680BF0B4FB11E0FB6803F48073002B03
:104EBC000CD07B681B68B3F844309AB27B681B68D3
:104ECC0022F4807292B2A3F8442000BF1037BD4682
:104EDC0080BD80B582B000AF78600B46FB707B68FC
:104EEC0093F89032012B01D1022312E07B6801224E
:104EFC0083F890227B68FA781A737B681B68FA78BF
:104F0C001146184605F012FB7B68002283F89022AC
:104F1C00002318460837BD4680BD80B584B000AF6D
:104F2C007860084611461A460346FB700B463B80D8
:104F3C001346BB700023FB7297F90330002B0EDA7B
:104F4C00FB7803F0070213469B001344DB0010337D
:104F5C007A681344FB60FB6801225A700EE0FB7800
:104F6C0003F0070213469B001344DB0003F5A87300
:104F7C007A681344FB60FB6800225A70FB7803F0DC
:104F8C000703DAB2FB681A703B88C3F30A02FB68AA
:104F9C001A61FB68BA78DA70BB78022B02D1FB6815
:104FAC0000221A717B6893F89032012B01D10223F5
:104FBC000EE07B68012283F890227B681B68F968FD
:104FCC00184603F035FD7B68002283F89022FB7AAB
:104FDC0018461037BD4680BD80B584B000AF7860F0
:104FEC000B46FB7097F90330002B0EDAFB7803F0BD
:104FFC00070213469B001344DB0010337A681344FA
:10500C00FB60FB6801225A700EE0FB7803F007028C
:10501C0013469B001344DB0003F5A8737A68134412
:10502C00FB60FB6800225A70FB7803F00703DAB2CE
:10503C00FB681A707B6893F89032012B01D1022324
:10504C000EE07B68012283F890227B681B68F9686C
:10505C00184604F0D5F97B68002283F890220023CF
:10506C0018461037BD4680BD80B586B000AFF860DD
:10507C007A603B600B46FB72FB7A03F00702134627
:10508C009B001344DB0003F5A873FA6813447B619F
:10509C007B697A685A617B693A689A617B690022FC
:1050AC00DA617B6900225A70FB7A03F00703DAB2EB
:1050BC007B691A70FB681B687969184604F08DFBD4
:1050CC00002318461837BD4680BD80B586B000AFAA
:1050DC00F8607A603B600B46FB72FB7A03F00702C8
:1050EC0013469B001344DB001033FA6813447B61B6
:1050FC007B697A685A617B693A689A617B6901229B
:10510C0083F824207B693A681A627B690022DA6191
:10511C007B6901225A70FB7A03F00703DAB27B69D0
:10512C001A70FB681B687969184604F056FB00235B
:10513C0018461837BD4680BD80B584B000AF786086
:10514C000B46FB70FB7803F007037A6812799342E5
:10515C0001D901233EE097F90330002B0EDAFB78DE
:10516C0003F0070213469B001344DB0010337A68EC
:10517C001344FB60FB6801225A700CE0FA7813466A
:10518C009B001344DB0003F5A8737A681344FB609F
:10519C00FB6800225A70FB6801229A70FB7803F0BE
:1051AC000703DAB2FB681A707B6893F89032012B14
:1051BC0001D102230EE07B68012283F890227B68E8
:1051CC001B68F968184605F0B7F87B68002283F86D
:1051DC009022002318461037BD4680BD80B584B0A0
:1051EC0000AF78600B46FB70FB7803F00F037A6816
:1051FC001279934201D9012340E097F90330002B37
:10520C000EDAFB7803F0070213469B001344DB0015
:10521C0010337A681344FB60FB6801225A700EE06D
:10522C00FB7803F0070213469B001344DB0003F5E5
:10523C00A8737A681344FB60FB6800225A70FB6801
:10524C0000229A70FB7803F00703DAB2FB681A703D
:10525C007B6893F89032012B01D102230EE07B681E
:10526C00012283F890227B681B68F968184605F0C8
:10527C00B4F87B68002283F890220023184610377C
:10528C00BD4680BD80B592B000AF786033E37B68DB
:10529C001B68B3F844307B877B8FDBB203F00F03C2
:1052AC0087F8393097F83930002B40F008817B8F24
:1052BC0003F01003002B4CD17B681B681B889BB23E
:1052CC0023F4E14323F070033B817B681A683B892C
:1052DC006FEA43436FEA53439BB213807B681033EE
:1052EC003B647B681B68B3F850309BB21A463B6C2E
:1052FC001B78DB0013447A681268134403F20243F0
:10530C001B88C3F309023B6CDA613B6C5A693B6C3A
:10531C00DB691A443B6C5A61002178680BF05DF92B
:10532C007B681B7BDBB2002B00F0E5823B6C9B693E
:10533C00002B40F0E0827B681B7BDBB263F07F03C9
:10534C00DAB27B681B68A3F84C207B6800221A73C6
:10535C00D1E27B6803F5A8733B647B681B681B88F0
:10536C00FB86FB8E03F40063002B32D07B681B683A
:10537C00B3F850309BB21A463B6C1B78DB001344DD
:10538C007A681268134403F206431B88C3F30902BC
:10539C003B6CDA617B6818687B6803F526713B6CA3
:1053AC00DA883B6CDB699BB205F03EF97B681B68C5
:1053BC001B889AB240F68F7313407B817B681B6805
:1053CC007A8942F0800292B21A8078680BF0D8F891
:1053DC0091E2B7F93630002B80F28D827B681B6826
:1053EC001B889AB240F68F731340FB817B681B6855
:1053FC00FA8942F0800292B21A807B681B68B3F87B
:10540C0050309BB21A463B6C1B78DB0013447A6815
:10541C001268134403F206431B88C3F309023B6C66
:10542C00DA613B6CDB69002B19D03B6C5B69002BA0
:10543C0015D07B6818683B6C59693B6CDA883B6CFF
:10544C00DB699BB205F0F0F83B6C5A693B6CDB698D
:10545C001A443B6C5A61002178680BF0A3F87B6806
:10546C001B681B88FB86FB8E03F40063002B40F04B
:10547C004282FB8E03F44053B3F5405F00F03B8255
:10548C007B681B681B889BB223F4804323F070035A
:10549C00BB81BB8983F48053BB81BB8983F40053EC
:1054AC00BB817B681A68BB8943F07F4343F47F035D
:1054BC0043F4004343F080039BB213801BE27B68F0
:1054CC001B681A4697F839309B0013441B88FB86DF
:1054DC00B7F93630002B80F2F1807B681B681A46D6
:1054EC0097F839309B0013441B889AB240F68F739F
:1054FC001340BB867B681B681A4697F839309B00B3
:10550C001344BA8E42F0800292B21A8097F8392076
:10551C0013469B001344DB0003F5A8737A6813440D
:10552C003B643B6C1B7B002B23D17B681B68B3F863
:10553C0050309BB21A463B6C1B78DB0013447A68E4
:10554C001268134403F206431B88C3F30903A7F83C
:10555C004630B7F84630002B00F08B807B6818681B
:10556C003B6C59693B6CDA88B7F8463005F05CF84F
:10557C007FE03B6CDB78022B09D1FB8E1A46396C31
:10558C00786800F0C6F90346A7F8463071E07B68EE
:10559C001B681A463B6C1B789B0013441B889BB200
:1055AC0023F4E04323F07003BB877B681B681A4627
:1055BC003B6C1B789B001A44BB8F43F07F4343F436
:1055CC007F0343F4004343F0C0039BB213807B681A
:1055DC001B681A463B6C1B789B0013441B889BB2C0
:1055EC0003F48043002B22D07B681B68B3F8503047
:1055FC009BB21A463B6C1B78DB0013447A6812682A
:10560C00134403F202431B88C3F30903A7F8463083
:10561C00B7F84630002B2CD07B6818683B6C596966
:10562C003B6C1A89B7F8463004F0FEFF21E07B682A
:10563C001B68B3F850309BB21A463B6C1B78DB00EE
:10564C0013447A681268134403F206431B88C3F3AD
:10565C000903A7F84630B7F84630002B09D07B6811
:10566C0018683B6C59693B6C5A89B7F8463004F0A2
:10567C00DBFF3B6CDA69B7F846301A443B6CDA61F5
:10568C003B6C5A69B7F846301A443B6C5A613B6C18
:10569C009B69002B05D0B7F846203B6C1B699A42DE
:1056AC0006D23B6C1B78194678680AF07BFF05E044
:1056BC007B681B68396C184604F08FF8FB8E03F07E
:1056CC008003002B00F0178197F8392013469B00BC
:1056DC001344DB0010337A6813443B647B681B680B
:1056EC001A4697F839309B0013441B889BB223F45D
:1056FC00E14323F07003FB877B681B681A4697F81D
:10570C0039309B001A44FB8F6FEA43436FEA5343D3
:10571C009BB213803B6CDB78012B40F0A1803B6C7F
:10572C0000229A613B6C1B7B002B00F09280FB8E5D
:10573C0003F04003002B46D03B6C5B78002B26D14A
:10574C007B681B687B617B681B68B3F850309BB22D
:10575C001A467B6913447B613B6C1B78DA007B69CE
:10576C00134403F202433B613B691B889BB2C3F3B6
:10577C0009039AB23B691A803B691B889BB26FEA9A
:10578C0043436FEA53439AB23B691A8061E03B6C26
:10579C005B78012B5DD17B681B68FB617B681B68A8
:1057AC00B3F850309BB21A46FB691344FB613B6C57
:1057BC001B78DA00FB69134403F20243BB61BB693B
:1057CC0000221A8045E07B681B68FB623B6C5B78AF
:1057DC00002B26D17B681B687B627B681B68B3F847
:1057EC0050309BB21A467B6A13447B623B6C1B782D
:1057FC00DA007B6A134403F206433B623B6A1B8864
:10580C009BB2C3F309039AB23B6A1A803B6A1B88AA
:10581C009BB26FEA43436FEA53439AB23B6A1A80D6
:10582C0017E03B6C5B78012B13D17B681B68B3F8DA
:10583C0050309BB21A46FB6A1344FB623B6C1B78DC
:10584C00DA00FB6A134403F20643BB62BB6A002214
:10585C001A803B6C1B78194678680AF0BEFE4AE049
:10586C00FB8E03F48073002B3FD17B681B68B3F86D
:10587C0050309BB21A463B6C1B78DB0013447A68A1
:10588C001268134403F202431B88C3F309037B869B
:10589C003B6C9A697B8E9A4206D93B6C9A697B8EDB
:1058AC00D21A3B6C9A6102E03B6C00229A613B6C11
:1058BC009B69002B06D13B6C1B78194678680AF063
:1058CC008CFE18E03B6C5A697B8E1A443B6C5A6117
:1058DC003B6CDA697B8E1A443B6CDA617B681B6823
:1058EC00396C184603F079FF05E0FB8E1A46396CCB
:1058FC00786800F017F97B681B68B3F844309BB2EA
:10590C001BB2002BFFF6C3AC002318464837BD462C
:10591C0080BD80B588B000AFF860B9601346FB80DD
:10592C00FB8803F48043002B7CD0FB681B68B3F826
:10593C0050309BB21A46BB681B78DB001344FA68E4
:10594C001268134403F202431B88C3F309037B83DD
:10595C00BB689A697B8B9A4206D3BB689A697B8B2E
:10596C00D21ABB689A6102E0BB6800229A61BB68DC
:10597C009B69002B23D1FB681B681A46BB681B78FC
:10598C009B0013441B889BB223F4804323F07003C9
:10599C003B833B8B83F400533B83FB681B681A46A9
:1059AC00BB681B789B001A443B8B43F07F4343F44A
:1059BC007F0343F4004343F080039BB21380FB88C6
:1059CC0003F04003002B1FD0FB681B681A46BB6812
:1059DC001B789B0013441B889BB223F4E04323F0F9
:1059EC007003FB82FB681B681A46BB681B789B0024
:1059FC001A44FB8A43F07F4343F47F0343F4004390
:105A0C0043F0C0039BB213807B8B002B00F085808E
:105A1C00FB681868BB685969BB681A897B8B04F0F2
:105A2C0003FE7AE0FB681B68B3F850309BB21A4651
:105A3C00BB681B78DB001344FA681268134403F24A
:105A4C0006431B88C3F309037B83BB689A697B8B72
:105A5C009A4206D3BB689A697B8BD21ABB689A614F
:105A6C0002E0BB6800229A61BB689B69002B23D1C2
:105A7C00FB681B681A46BB681B789B0013441B8889
:105A8C009BB223F4804323F07003FB83FB8B83F4E2
:105A9C000053FB83FB681B681A46BB681B789B0092
:105AAC001A44FB8B43F07F4343F47F0343F40043DE
:105ABC0043F080039BB21380FB8803F04003002B60
:105ACC001FD1FB681B681A46BB681B789B001344EC
