:020000040800F2
:1000000000000320813B00082F330008373300082D
:100010004533000853330008613300080000000036
:100020000000000000000000000000006F33000826
:100030007D330008000000008B330008993300086E
:10004000D93B0008D93B0008D93B0008D93B000840
:10005000D93B0008D93B0008D93B0008D93B000830
:10006000D93B0008D93B0008D93B0008A53300085C
:10007000B9330008CD330008E1330008F533000838
:1000800009340008D93B0008D93B0008D93B0008D7
:100090001D340008D93B0008D93B0008D93B0008B3
:1000A000D93B000831340008D93B0008D93B00088F
:1000B000D93B0008D93B00084534000859340008F2
:1000C000D93B0008D93B0008D93B0008D93B0008C0
:1000D0006D34000881340008D93B0008D93B000882
:1000E000D93B0008D93B0008D93B0008D93B0008A0
:1000F00095340008A1340008AD340008D93B00084D
:10010000D93B0008D93B0008D93B0008D93B00087F
:10011000D93B0008D93B0008D93B0008D93B00086F
:10012000D93B0008D93B0008D93B0008D93B00085F
:0C013000D93B0008D93B0008D93B00086F
:1001400010B5054C237833B9044B13B10448AFF311
:1001500000800123237010BD4C020020000000002D
:10016000806C010808B5034B1BB103490348AFF38A
:10017000008008BD0000000050020020806C0108D3
:10018000034613F8012B002AFBD1181A01387047D7
:1001900001F0FF01102A2BDB10F0070F08D010F838
:1001A000013B013A8B422DD010F0070F42B3F6D13C
:1001B000F0B441EA012141EA014122F007047FF055
:1001C00000070023F0E80256083C85EA010586EAAC
:1001D000010685FA47F5A3FA87F586FA47F6A5FAE8
:1001E00087F68EB9EED1F0BC01F0FF0102F00702F4
:1001F00032B110F8013B013A83EA010313B1F8D19F
:100200000020704701387047002D06BF354603387F
:10021000073815F0010F07D1013015F4807F02BFB8
:10022000013015F4C03F0130F0BC0138704700BF09
:1002300070B54FF0FF0C4CF4E06C1CEA11541DBF7C
:100240001CEA135594EA0C0F95EA0C0F00F0DEF847
:100250002C4481EA030621EA4C5123EA4C5350EA2C
:10026000013518BF52EA033541F4801143F480137D
:1002700038D0A0FB02CE4FF00005E1FB02E506F00E
:100280000042E0FB03E54FF00006E1FB03569CF063
:10029000000F18BF4EF0010EA4F1FF04B6F5007F69
:1002A00064F5407404D25FEA4E0E6D4146EB0606DB
:1002B00042EAC62141EA55514FEAC52040EA5E5064
:1002C0004FEACE2EB4F1FD0C88BFBCF5E06F1ED80E
:1002D000BEF1004F08BF5FEA500E50F1000041EB45
:1002E000045170BD06F0004646EA010140EA0200F2
:1002F00081EA0301B4EB5C04C2BFD4EB0C0541EA14
:10030000045170BD41F480114FF0000E013C00F328
:10031000AB8014F1360FDEBF002001F0004170BD4C
:10032000C4F10004203C35DA0C341BDC04F1140465
:10033000C4F1200500FA05F320FA04F001FA05F2F1
:1003400040EA020001F0004221F0004110EBD370BE
:1003500021FA04F642EB06015EEA430E08BF20EAEA
:10036000D37070BDC4F10C04C4F1200500FA04F38D
:1003700020FA05F001FA04F240EA020001F000411F
:1003800010EBD37041F100015EEA430E08BF20EA92
:10039000D37070BDC4F1200500FA05F24EEA020EDA
:1003A00020FA04F301FA05F243EA020321FA04F009
:1003B00001F0004121FA04F220EA020000EBD370C0
:1003C0005EEA430E08BF20EAD37070BD94F0000FC0
:1003D0000FD101F00046400041EB010111F4801FF4
:1003E00008BF013CF7D041EA060195F0000F18BFA5
:1003F000704703F00046520043EB030313F4801FE1
:1004000008BF013DF7D043EA0603704794EA0C0F9A
:100410000CEA135518BF95EA0C0F0CD050EA4106B0
:1004200018BF52EA4306D1D181EA030101F000412D
:100430004FF0000070BD50EA410606BF1046194655
:1004400052EA430619D094EA0C0F02D150EA013661
:1004500013D195EA0C0F05D152EA03361CBF1046A2
:1004600019460AD181EA030101F0004141F0FE4141
:1004700041F470014FF0000070BD41F0FE4141F4C5
:10048000780170BD81F0004102E000BF83F00043BD
:1004900030B54FEA41044FEA430594EA050F08BF1F
:1004A00090EA020F1FBF54EA000C55EA020C7FEAE3
:1004B000645C7FEA655C00F0E2804FEA5454D4EB60
:1004C0005555B8BF6D420CDD2C4480EA020281EA2A
:1004D000030382EA000083EA010180EA020281EA62
:1004E0000303362D88BF30BD11F0004F4FEA0131B4
:1004F0004FF4801C4CEA113102D0404261EB4101C3
:1005000013F0004F4FEA03334CEA133302D0524248
:1005100063EB430394EA050F00F0A780A4F1010404
:10052000D5F1200E0DDB02FA0EFC22FA05F280183E
:1005300041F1000103FA0EF2801843FA05F3594124
:100540000EE0A5F120050EF1200E012A03FA0EFCA3
:1005500028BF4CF0020C43FA05F3C01851EBE371CD
:1005600001F0004507D54FF0000EDCF1000C7EEBEA
:1005700000006EEB0101B1F5801F1BD3B1F5001F28
:100580000CD349085FEA30004FEA3C0C04F1010447
:100590004FEA445212F5800F80F09A80BCF1004F70
:1005A00008BF5FEA500C50F1000041EB045141EAF2
:1005B000050130BD5FEA4C0C404141EB0101013CBB
:1005C00028BFB1F5801FE9D291F0000F04BF0146AA
:1005D0000020B1FA81F308BF2033A3F10B03B3F17C
:1005E00020020CDA0C3208DD02F1140CC2F10C020C
:1005F00001FA0CF021FA02F10CE002F11402D8BF6A
:10060000C2F1200C01FA02F120FA0CFCDCBF41EA35
:100610000C019040E41AA2BF01EB0451294330BD04
:100620006FEA04041F3C1CDA0C340EDC04F11404E1
:10063000C4F1200220FA04F001FA02F340EA0300B8
:1006400021FA04F345EA030130BDC4F10C04C4F1FE
:10065000200220FA02F001FA04F340EA03002946DE
:1006600030BD21FA04F0294630BD94F0000F83F428
:10067000801306BF81F480110134013D4EE77FEA0B
:10068000645C18BF7FEA655C29D094EA050F08BF57
:1006900090EA020F05D054EA000C04BF1946104638
:1006A00030BD91EA030F1EBF0021002030BD5FEA7C
:1006B000545C05D14000494128BF41F0004130BDA4
:1006C00014F580043CBF01F5801130BD01F00045F8
:1006D00045F0FE4141F470014FF0000030BD7FEA6B
:1006E000645C1ABF194610467FEA655C1CBF0B4666
:1006F000024650EA013406BF52EA033591EA030F7D
:1007000041F4002130BD00BF90F0000F04BF002174
:10071000704730B54FF4806404F132044FF00005A7
:100720004FF0000150E700BF90F0000F04BF002120
:10073000704730B54FF4806404F1320410F0004586
:1007400048BF40424FF000013EE700BF42004FEA81
:10075000E2014FEA31014FEA02701FBF12F07F43FE
:1007600093F07F4F81F06051704732F07F4208BFB5
:10077000704793F07F4F04BF41F40021704730B5BC
:100780004FF4607401F0004521F000411CE700BF08
:1007900050EA010208BF704730B54FF000050AE08B
:1007A00050EA010208BF704730B511F0004502D58C
:1007B000404261EB41014FF4806404F132045FEA8E
:1007C000915C3FF4D8AE4FF003025FEADC0C18BF37
:1007D00003325FEADC0C18BF033202EBDC02C2F129
:1007E000200300FA03FC20FA02F001FA03FE40EABB
:1007F0000E0021FA02F11444BDE600BF53B94AB914
:10080000002908BF00281CBF4FF0FF314FF0FF3018
:1008100000F088B9ADF1080C6DE904CE00F006F8DF
:10082000DDF804E0DDE9022304B070472DE9F0476C
:10083000089D8E4604468846002B4AD18A421746B8
:1008400062D9B2FA82F64EB1C6F1200301FA06F877
:1008500020FA03F3B74043EA0808B4404FEA174EC2
:100860001FFA87FCB8FBFEF1230C0EFB118843EA4C
:10087000084301FB0CF29A4209D9FB1801F1FF3041
:1008800080F0EA809A4240F2E78002393B449A1AAB
:10089000A3B2B2FBFEF00EFB102243EA024300FBC0
:1008A0000CFC9C4509D9FB1800F1FF3280F0D68082
:1008B0009C4540F2D3803B44023840EA0140A3EB20
:1008C0000C0300211DB1F3400022C5E90032BDE850
:1008D000F0878B4205D90DB1C5E90001002108461A
:1008E000F5E7B3FA83F1002946D1734502D382427A
:1008F00000F20581841A6EEB030201209046002D60
:10090000E5D0C5E90048E2E7002A00F09080B2FA9D
:1009100082F6002E40F0A4808A1A030C4FEA174E8C
:1009200080B2BCB20121B2FBFEFC0EFB1C2243EAEA
:10093000024304FB0CF29A4207D9FB180CF1FF3872
:1009400002D29A4200F2E080C4469B1AB3FBFEF248
:100950000EFB123340EA034302FB04F49C4207D926
:10096000FB1802F1FF3002D29C4200F2CA8002461C
:100970001B1B42EA0C40A5E7C1F120068B4022FA7E
:1009800006F71F430EFA01F420FA06F32EFA06FECC
:100990004FEA1749234300FA01F81FFA87FCBEFB10
:1009A000F9F01C0C09FB10EE44EA0E4400FB0CFEAF
:1009B000A64502FA01F209D93C1900F1FF3A80F08C
:1009C0009C80A64540F2998002383C44A4EB0E047A
:1009D0001FFA83FEB4FBF9F309FB13444EEA044407
:1009E00003FB0CFCA44508D93C1903F1FF3E80F041
:1009F0008280A4457FD9023B3C4443EA0040A4EBFB
:100A00000C04A0FB02EC64457346E14662D35FD060
:100A10005DB1B8EB030264EB090404FA06F622FAAE
:100A200001F31E43CC40C5E9006400214FE7B1FB50
:100A3000F2FC010C41EA0E4180B240EA01423B4621
:100A400038463C46B846BE462026B1FBF7F1A2EB3D
:100A5000080241EA0C4166E7014618E710462CE718
:100A6000C6F120022EFA02F3B740B14020FA02F29A
:100A70004FEA174E0A43B3FBFEF8BCB20EFB183325
:100A8000110C41EA034108FB04F9B04089454FEAE3
:100A9000104380B23ED9791808F1FF3C01D2894554
:100AA0001FD8A1EB0901B1FBFEF909FB04F80EFB0D
:100AB000191192B242EA0142424529D2BA1809F10B
:100AC000FF31C4D24245C2D2A9F102013A44BEE785
:100AD000F0459DD2BEEB02036CEB070C0138E146FA
:100AE00096E7A7EB09094944A8F1020CB1FBFEF90E
:100AF00009FB04F8DBE773467FE7504666E70846E4
:100B0000FDE63B44023A33E7ACF1020C3B441CE700
:100B100049469CE7A1EB0901C446B1FBFEF909FB7C
:100B200004F8C4E7704700BF80B588B004AF03463F
:100B30003960FB801346BB800123FB7300F05CF837
:100B4000B86000F059F80346002B01D1FB7B11E09F
:100B5000BB681868BB681B7919460A23FA88029398
:100B6000BB8801933B680093012304F00BF8034614
:100B7000FB73FB7B18461037BD4680BD80B588B03F
:100B800004AF03463960FB801346BB800123FB732F
:100B900000F032F8B86000F02FF80346002B01D1C6
:100BA000FB7B11E0BB681868BB681B7919460A23F8
:100BB000FA880293BB8801933B680093012304F0F9
:100BC000F5F80346FB73FB7B18461037BD4680BD26
:100BD00080B483B000AF064B7B60064A7B6813602D
:100BE0007B6818460C37BD465DF8047B704700BF34
:100BF000680200208C02002080B400AF034B1B6809
:100C00001846BD465DF8047B704700BF8C0200208B
:100C100080B584B000AF78600023BB730023FB7302
:100C200000237B737B689B7B002B02D17B680122B6
:100C30009A737B68DB7B002B02D17B680122DA731D
:100C40007B681B7C002B02D17B6801221A747B68B5
:100C50005B7C002B02D17B6801225A747B689B7CF1
:100C6000002B02D17B6801229A747B68DB7C002B0D
:100C700002D17B680122DA747B681B7D002B02D1D4
:100C80007B6801221A757B685B7D002B02D17B6833
:100C900002225A757B68DB7B013B032B44D801A2FF
:100CA00052F823F0B50C0008C90C0008EF0C00083E
:100CB000150D00087B6893F8233023F00303DAB2A4
:100CC0007B6883F8232033E07B6893F8233043F07C
:100CD0000103DAB27B6883F823207B6893F8233022
:100CE00023F00203DAB27B6883F8232020E07B68DC
:100CF00093F8233043F00203DAB27B6883F82320B1
:100D00007B6893F8233003F00103DAB27B6883F841
:100D100023200DE07B6893F8233043F00303DAB21D
:100D20007B6883F8232003E00123BB73BB7B41E294
:100D30007B681B7C013B032B44D801A252F823F0B3
:100D4000510D0008650D00088B0D0008B10D00085D
:100D50007B6893F8233023F00C03DAB27B6883F8C6
:100D6000232033E07B6893F8233043F00403DAB2A6
:100D70007B6883F823207B6893F8233023F00803F3
:100D8000DAB27B6883F8232020E07B6893F8233075
:100D900023F00403DAB27B6883F823207B6893F89E
:100DA000233043F00803DAB27B6883F823200DE098
:100DB0007B6893F8233043F00C03DAB27B6883F846
:100DC000232003E00123BB73BB7BF3E17B685B7CE7
:100DD000032B23D0032B36DC012B02D0022B0AD0AD
:100DE00031E07B6893F8233023F03003DAB27B687C
:100DF00083F823202BE07B6893F8233043F0100323
:100E0000DAB27B6883F823207B6893F8233023F0E1
:100E10002003DAB27B6883F8232018E07B6893F81C
:100E2000233003F01003DAB27B6883F823207B6859
:100E300093F8233043F02003DAB27B6883F8232051
:100E40000123FB7303E00123BB73BB7BB2E1FB7B9C
:100E5000002B4DD07B689B7C013B032B44D801A227
:100E600052F823F0750E0008890E0008AF0E000836
:100E7000D50E00087B6893F8233003F03F03DAB205
:100E80007B6883F8232033E07B6893F8233043F0BA
:100E90004003DAB27B6883F823207B6893F8233021
:100EA00003F07F03DAB27B6883F8232020E07B68BD
:100EB00093F8233023F04003DAB27B6883F82320D1
:100EC0007B6893F8233063F07F03DAB27B6883F8A2
:100ED00023200DE07B6893F8233063F03F03DAB200
:100EE0007B6883F8232003E00123BB73BB7B61E1B4
:100EF0007B68DB7C013B032B44D801A252F823F032
:100F0000110F0008250F00084B0F0008710F000893
:100F10007B6893F8223023F00303DAB27B6883F80E
:100F2000222033E07B6893F8223043F00103DAB2E9
:100F30007B6883F822207B6893F8223023F0020339
:100F4000DAB27B6883F8222020E07B6893F82230B5
:100F500023F00103DAB27B6883F822207B6893F8E0
:100F6000223043F00203DAB27B6883F822200DE0DE
:100F70007B6893F8223043F00303DAB27B6883F88E
:100F8000222003E00123BB73BB7B13E17B681B7D45
:100F9000013B072B00F29A8001A252F823F000BF18
:100FA000C10F0008D50F0008FB0F00082110000832
:100FB000471000086D10000893100008B9100008D1
:100FC0007B6893F8223023F01C03DAB27B6883F845
:100FD00022207FE07B6893F8223023F01803DAB2F6
:100FE0007B6883F822207B6893F8223043F0040367
:100FF000DAB27B6883F822206CE07B6893F82230B9
:1010000023F01403DAB27B6883F822207B6893F81C
:10101000223043F00803DAB27B6883F8222059E0DB
:101020007B6893F8223023F01003DAB27B6883F8F0
:1010300022207B6893F8223043F00C03DAB27B68FD
:1010400083F8222046E07B6893F8223023F00C03DB
:10105000DAB27B6883F822207B6893F8223043F071
:101060001003DAB27B6883F8222033E07B6893F8C0
:10107000223023F00803DAB27B6883F822207B68F1
:1010800093F8223043F01403DAB27B6883F822200D
:1010900020E07B6893F8223023F00403DAB27B6807
:1010A00083F822207B6893F8223043F01803DAB2E9
:1010B0007B6883F822200DE07B6893F8223043F0B0
:1010C0001C03DAB27B6883F8222003E00123BB73A0
:1010D000BB7B6FE07B685B7D012B02D0022B0AD0CB
:1010E00013E07B6893F8223023F04003DAB27B6888
:1010F00083F822200DE07B6893F8223043F0400310
:10110000DAB27B6883F8222003E00123BB73BB7B48
:1011100050E07B682233022219460720FFF704FDC6
:101120000346002B03D00123BB73BB7B42E007F1D6
:101130000D031946786800F066F80346002B03D0CB
:101140000123BB73BB7B35E07B7B03F02003002BCB
:1011500003D10123BB73BB7B2CE07B7B03F0080333
:10116000002B03D00123BB73BB7B23E07B7B03F00D
:101170001003002B03D00123BB73BB7B1AE0BB7BA6
:10118000002B13D17B6801229A757B6818331946AE
:10119000786800F013F87B681A8B7B685A837B6849
:1011A0000022DA617B6800221A8402E07B68002258
:1011B0009A75BB7B18461037BD4680BD80B584B09C
:1011C00000AF786039600023FB730023BB8107F117
:1011D0000C03022219460C20FFF7D0FC0346002B1B
:1011E00001D00123FB733B7B1BB21B021AB27B7B3A
:1011F0001BB213431BB29AB23B681A80FB7B1846A2
:101200001037BD4680BD80B584B000AF78603960CE
:101210000023FB73012239680B20FFF7AFFC034664
:10122000002B01D00123FB73FB7B18461037BD4612
:1012300080BD000080B483B000AF7860064BD3F867
:10124000902005497B681343C1F8903000BF0C37EC
:10125000BD465DF8047B70470008005880B485B037
:1012600000AF78604FF0B043DA6C4FF0B0417B686C
:101270001343CB644FF0B043DA6C7B681340FB60E0
:10128000FB6800BF1437BD465DF8047B704780B42F
:1012900085B000AF78604FF0B043D3F84C214FF0E9
:1012A000B0417B681343C1F84C314FF0B043D3F8E1
:1012B0004C217B681340FB60FB6800BF1437BD46C0
:1012C0005DF8047B704780B500AF02F02DFD02F0A1
:1012D00031FD4FF48030FFF7ADFF10F0E1F800F082
:1012E00021F800F0C1F800BF80BD0000B0B588B0A3
:1012F00000AF0B4B3C1D1D460FCD0FC495E80700FA
:1013000003C422800234130C23700FF0DDFF3B1D59
:1013100018460FF06EFA00BF2037BD46B0BD00BFC3
:10132000986C010880B588B000AF3B1D00221A60A0
:101330005A609A60DA601A610023BB8300237B83C2
:1013400000233B830023FB7736E0FB7F434ADB002F
:1013500013449B79002B2CD0FB7F404A52F833304A
:101360003F4A93421BD03E4A934221D8B3F1904F5B
:1013700003D03C4A934209D01AE0FB7F374ADB0096
:1013800013449A88BB8B1343BB8312E0FB7F334A21
:10139000DB0013449A887B8B13437B8309E0FB7F3C
:1013A0002E4ADB0013449A883B8B13433B8300E0B7
:1013B00000BFFB7F0133FB77FB7F252BC5D90023C3
:1013C000FB600123BB6003233B61BB8B002B14D06C
:1013D000BB8B7B600120FFF741FF0120FFF757FF28
:1013E0003B1D19464FF0904003F084F9BB8B00225F
:1013F00019464FF0904003F0EDFA7B8B002B12D092
:101400007B8B7B600220FFF729FF0220FFF73FFF65
:101410003B1D1946134803F06DF97B8B00221946DA
:10142000104803F0D7FA3B8B002B13D03B8B7B602B
:101430000420FFF713FF0420FFF729FF3B1D194687
:10144000074803F057F93B8B00221946044803F084
:10145000C1FA00BF00BF2037BD4680BDF08B010838
:10146000000800480004004880B400AF00BFBD463B
:101470005DF8047B704780B500AF02F0EDF900BF66
:1014800080BD80B584B000AFF8600B467A607B8188
:101490007A897B68F968002001F0FCF900BF1037F9
:1014A000BD4680BD80B483B000AF7860074BD3F8F1
:1014B000803023F0070205497B681343C1F8803070
:1014C00000BF0C37BD465DF8047B70470004005830
:1014D00080B483B000AF7860064BD3F89020054904
:1014E0007B681343C1F8903000BF0C37BD465DF8F0
:1014F000047B70470008005880B483B000AF786068
:101500004FF0B0430A4AC3F89C204FF0B043D3F8E1
:101510009C3023F47C527B681B024FF0B041134394
:10152000C1F89C3000BF0C37BD465DF8047B7047A6
:10153000FECAFECA80B483B000AF78604FF0B043FB
:101540009B6823F400424FF0B0417B6813438B60EB
:1015500000BF0C37BD465DF8047B704780B400AF18
:10156000044B1B68C3F30B031846BD465DF8047BB0
:10157000704700BF002004E080B400AF044B1B683C
:101580001B0C9BB21846BD465DF8047B704700BF3C
:10159000002004E080B483B000AF78607B68FF2255
:1015A0005A6200BF0C37BD465DF8047B704780B4BB
:1015B00083B000AF78607B68CA225A627B6853228E
:1015C0005A6200BF0C37BD465DF8047B704780B49B
:1015D00083B000AF786039607B689B6823F00702B6
:1015E0003B681A437B689A6000BF0C37BD465DF8C4
:1015F000047B704780B500AF044B4FF400421A6182
:1016000000F02AF800F02FF800BF80BD004000581D
:1016100080B500AF00F03BF800F054F80649002018
:1016200000F0DAFE0121012014F014F9FFF74BFE5F
:1016300000F056F800BF80BDA805002080B400AFC0
:1016400000BFBD465DF8047B704780B500AF5020F9
:10165000FFF73EFF00BF80BD80B400AF00BFBD46B6
:101660005DF8047B704780B582B000AF00200FF0BA
:1016700095FF78607B68002B05D07B689B791846C6
:10168000FFF73AFF00BF00BF0837BD4680BD80B5F9
:1016900000AFFFF7D3FFFFF7D8FF00F003F800BF5C
:1016A00080BD000080B500AF0548FFF780FF002136
:1016B0000348FFF78CFF0248FFF76CFF00BF80BDB7
:1016C0000028004080B500AF4FF40040FFF732FF24
:1016D00014F0AEF80420FFF7E5FE00BF80BD000067
:1016E00080B588B000AF0FF039FC114A00214020CE
:1016F00014F0DCF90F4B3B600F4B7B603B46194607
:101700000E480FF0EDFA0E4BBB600E4BFB600E4B1C
:101710003B6140F23C537B6107F1080318460FF030
:101720005FFD0FF015FC00BF2037BD4680BD00BF38
:10173000190D0108340703204D170008651700082C
:101740004C09032040080320F801032080B483B033
:1017500000AF0346FB7100BF0C37BD465DF8047B4C
:101760007047000080B588B000AF78607B685B6828
:101770000B33FB61FB691B889BB2A3F51243072B5C
:1017800000F2D08001A252F823F000BFAD1700088C
:101790003F1800086118000825190008A51800085E
:1017A000C9180008E51800080919000807F10C031A
:1017B00018460FF04BF85E480FF012FE014640F25B
:1017C0006B135C4A5C4814F00DFC3B7B19467B7B39
:1017D0001A46BB7B594814F005FC55480FF000FE33
:1017E00001464FF4B673534A534814F0FBFB3B7C5D
:1017F0001946534814F0F6FB4D480FF0F1FD014631
:1018000040F26D134B4A4C4814F0ECFBBB7D19467B
:10181000FB7D1A463B7E4B4814F0E4FB44480FF036
:10182000DFFD014640F26F13424A434814F0DAFBF1
:10183000454814F0D7FB786800F0E0F873E03C48C6
:101840000FF0CEFD01464FF4BA733A4A3A4814F00D
:10185000C9FB3E4814F0C6FB786800F085F862E0EA
:1018600033480FF0BDFD014640F27913314A32484A
:1018700014F0B8FB364814F01DFC2D480FF0B0FDF5
:1018800001464FF4BD732B4A2B4814F0ABFBFB69A8
:1018900002331968FB6902335B681A462D4814F05D
:1018A000A1FB40E022480FF09BFD01464FF4C073BE
:1018B000204A214814F096FBFB6902331B68194645
:1018C000254814F08FFB2EE019480FF089FD0146E2
:1018D00040F28513174A184814F084FB1F4814F08F
:1018E00081FB20E012480FF07BFD014640F2891396
:1018F000104A114814F076FBFB6902331B68194645
:10190000174814F06FFB0EE009480FF069FD01461F
:101910004FF4C773074A084814F064FB114814F0E9
:1019200061FB00E000BF00BF2037BD4680BD00BFA7
:10193000B46C0108208D0108CC6C0108E06C010832
:10194000046D0108206D0108386D0108586D01080B
:101950007C6D0108CC6D0108F46D0108306E010842
:10196000546E0108906E010880B584B000AF7860B5
:101970007B685B680B33FB60FB680233BB60194814
:101980000FF02EFD01464FF4D373174A174814F099
:1019900029FBBB681B781946154814F023FBBB686C
:1019A0001B78002B0DD10F480FF01AFD014640F2B5
:1019B000AB130D4A0D4814F015FB0E4814F07AFBDA
:1019C0000DE008480FF00CFD014640F2AF13064A47
:1019D000064814F007FB084814F06CFB00BF1037F2
:1019E000BD4680BDB46C0108348D0108CC6C010883
:1019F000B46E0108E46E0108206F010880B58AB05A
:101A000000AF786007F1080300221A605A609A60FC
:101A1000DA6000237B6200233B627B685B680B33E8
:101A2000FB61FB690233BB61BB691B78002B46D1AC
:101A300036480FF0D5FC014640F2C513344A35480C
:101A400014F0D0FA344814F035FBFFF74FFC0F23A5
:101A50003B727F23BB72FFF78FFD78622B480FF03C
:101A6000BFFC014640F2DD13294A2A4814F0BAFAB5
:101A7000796A2A4814F0B6FA7B6A9BB2BB82FFF7F8
:101A80006DFD386221480FF0ABFC01464FF4F17355
:101A90001F4A204814F0A6FA396A214814F0A2FA25
:101AA0003B6A9BB2FB8207F1080318460EF0B8FEB2
:101AB00010F07AFA0021012013F0CCFE22E0BB697D
:101AC0001B78012B10D111480FF08AFC014640F21F
:101AD000EF130F4A0F4814F085FA124814F082FAF7
:101AE0007B6800221A700DE008480FF079FC01466F
:101AF0004FF4FB73064A074814F074FA0A4814F0CE
:101B000071FA00BF2837BD4680BD00BFB46C010824
:101B1000488D0108CC6C0108586F0108746F0108EA
:101B2000986F0108B86F0108EC6F010880B500AF2D
:101B30004FF0FF3013F0BEFE00BF80BD80B400AF99
:101B400000BFBD465DF8047B704780B582B000AF32
:101B500078600021402013F0CBFF00BF0837BD465E
:101B600080BD80B582B000AF7860022014F02CF800
:101B700000BF0837BD4680BD80B582B000AF786039
:101B8000022014F041F800BF0837BD4680BD80B484
:101B900085B000AF78604FF0B0439A6C4FF0B04121
:101BA0007B6813438B644FF0B0439A6C7B6813409F
:101BB000FB60FB6800BF1437BD465DF8047B7047CF
:101BC00080B500AF0420FFF7E2FF0120FFF7DFFF41
:101BD000002200210B2002F0EEF90B2002F005FAA2
:101BE000002200210C2002F0E6F90C2002F0FDF9A1
:101BF000002200210D2002F0DEF90D2002F0F5F99F
:101C0000002200210E2002F0D6F90E2002F0EDF99C
:101C1000002200210F2002F0CEF90F2002F0E5F99A
:101C200000220021102002F0C6F9102002F0DDF998
:101C300000BF80BD80B485B000AF78604FF0B04386
:101C4000DA6C4FF0B0417B681343CB644FF0B04384
:101C5000DA6C7B681340FB60FB6800BF1437BD463D
:101C60005DF8047B7047000080B586B000AF3B1D77
:101C700000221A605A609A60DA601A610420FFF745
:101C8000D9FF8020FFF7D6FF0220FFF7D3FF012006
:101C9000FFF7D0FF1020FFF7CDFF002202214FF009
:101CA000904002F097FE00221021224802F092FE9E
:101CB00008237B600323BB600023FB603B1D1946A8
:101CC0001D4802F017FD48F2F1737B600323BB60EF
:101CD0000023FB603B1D19464FF0904002F00AFDC7
:101CE00002237B600123BB600023FB6000233B6178
:101CF0003B1D19464FF0904002F0FCFC3F237B60F7
:101D00000323BB600023FB603B1D19460B4802F018
:101D1000F1FC10237B600123BB600023FB600023E8
:101D20003B613B1D1946034802F0E4FC00BF183735
:101D3000BD4680BD00100048001C0048000400485B
:101D400080B483B000AF7860064BD3F8802005499B
:101D50007B681343C1F8803000BF0C37BD465DF887
:101D6000047B70470008005880B483B000AF7860EF
:101D7000054B1A6804497B6813430B6000BF0C379E
:101D8000BD465DF8047B70470008005880B483B0FE
:101D900000AF0D4B9B6A9BB27B600B4B9B6A9BB267
:101DA0003B6005E03B687B60074B9B6A9BB23B60F6
:101DB0007A683B689A42F5D13B6818460C37BD46B5
:101DC0005DF8047B704700BF0028004080B485B0F8
:101DD00000AF03460A46FB711346BB71BA791D4931
:101DE00013465B001344DB000B4415331B78FB7375
:101DF000FB7B102B09D0FA7B164913465B0013447A
:101E0000DB000B441433FA791A70FA79114913463E
:101E10005B001344DB000B441533FA7B1A70FA792C
:101E20000C4913465B001344DB000B441433BA79AE
:101E30001A70BA79074913465B001344DB000B4460
:101E40001533FA791A7000BF1437BD465DF8047B6C
:101E5000704700BF9002002080B485B000AF0346F9
:101E60000A46FB711346BB71294B1B78DBB2BA796A
:101E70009A4232D0BA79274913465B001344DB00FB
:101E80000B4414331B78FB73FA7B224913465B0027
:101E90001344DB000B441533FA791A70FA791D49A3
:101EA00013465B001344DB000B441533BA791A70F8
:101EB000FA79184913465B001344DB000B441433D2
:101EC000FA7B1A70BA79134913465B001344DB009E
:101ED0000B441433FA791A7014E0FA790D49134659
:101EE0005B001344DB000B441533BA791A70BA79DE
:101EF000084913465B001344DB000B441433FA79A2
:101F00001A7000BF1437BD465DF8047B704700BFF0
:101F1000100400209002002080B584B000AF03467A
:101F2000FB714E4B1B78DBB2102B18D14B4B1B783F
:101F3000DAB24B4B1A70494AFB791370FA79494966
:101F400013465B001344DB000B44153310221A7058
:101F5000454B4FF0FF321A600023FB8178E000F020
:101F600009F90346FB81FA793E4913465B001344A5
:101F7000DB000B4408331968FB89FA7919443948A6
:101F800013465B001344DB00034408331960FA79FD
:101F9000344913465B001344DB000B4408331B68D1
:101FA000BB602E4B1B78DBB219462E4A0B465B00FA
:101FB0000B44DB00134408331B68BA689A4237D3DA
:101FC000264B1B787B737A7B264913465B001344B0
:101FD000DB000B4415331B783B7313E07A7B2149FC
:101FE00013465B001344DB000B4415331B787B73F3
:101FF0007A7B1C4913465B001344DB000B4415330A
:102000001B783B733B7B102B0BD03A7B1549134657
:102010005B001344DB000B4408331B68BA689A4228
:10202000DCD27A7BFB7911461846FFF7CFFE0FE032
:102030000A4B1B78DAB2FB7911461846FFF70CFF02
:10204000064B1B78DAB2064B1A70044AFB79137000
:10205000FB8918461037BD4680BD00BF1004002024
:1020600011040020900200201404002080B485B0E8
:1020700000AF03460A46FB711346BB71394B1B7810
:10208000DBB2FA799A4211D1364B1B78DAB2364B71
:102090001A70FA79354913465B001344DB000B4490
:1020A00015331B78DAB22F4B1A703EE0FA792F49BC
:1020B00013465B001344DB000B4414331B78FB73A3
:1020C000FA792A4913465B001344DB000B441533AD
:1020D0001B78BB73F979FA7B24480B465B000B44F1
:1020E000DB00034415331B78D8B2204913465B004C
:1020F0001344DB000B44153302461A70BB7B102BD4
:1021000013D0F979BA7B19480B465B000B44DB000E
:10211000034414331B78D8B2144913465B001344AC
:10212000DB000B44143302461A70FA790F49134648
:102130005B001344DB000B440C3301221A70094B83
:102140001B78DBB2102B07D1BB79002B04D1084BD5
:102150004FF0FF321A6000BF00BF1437BD465DF874
:10216000047B70471004002011040020900200201E
:102170001404002080B582B000AF1A4B1B68B3F185
:10218000FF3F26D0FFF702FE7860164B1B687A6887
:102190009A4205D8134B1A687B68D31A7B600AE011
:1021A000114B1B881A467B68D31A3B600D4B1B688A
:1021B0003A6813447B600D4B1B781A467B6802FB20
:1021C00003F37B600A4B1B781A467B68D3407B6025
:1021D00001E000237B607B689BB218460837BD4650
:1021E00080BD00BF140400201C0400201A0400203D
:1021F0001904002080B582B000AF0346FB80FB8845
:10220000002B08D1FFF7C2FD0346214A13600320CB
:1022100001F013FF39E0FB88012B03D81D4B1B781D
:10222000012B02D0FB88013BFB8000BF1A4B1B68CF
:10223000DB6803F00403002BF8D0174B1B68DB6846
:10224000DAB2154B1B6862F49062DA60134B4FF4FC
:102250000022DA60032001F0FEFE114B5B691B0CCB
:102260001B04FA880E4913434B61FFF78FFD0346A9
:10227000074A1360084B1B689A68074B1B6842F4B7
:1022800080629A60AFF3008000BF0837BD4680BD12
:102290001404002019040020A8050020000800589C
:1022A0000028004080B584B000AF454B9B6803F424
:1022B0008063B3F5806F07D100BF424B1B68DB68BA
:1022C00003F00403002BF8D13E4B1B689A683D4B8A
:1022D0001B6822F480629A603B4B1B78FB73FA7B8D
:1022E0003A4913465B001344DB000B4408331B6878
:1022F000BB60FFF73FFF0346FB80FB88BA689A424A
:1023000005D20023BB81324B01221A704DE0FB88BD
:10231000304A128892B213441A46BB68934206D9D7
:102320002C4B1B88BB812A4B00221A703DE0BB68F6
:102330009AB2FB88D31ABB81254B01221A7034E074
:10234000FA7B224913465B001344DB000B4408333D
:102350001A68FB889A420AD2FA7B1C4913465B0032
:102360001344DB000B44083300221A6013E0FA7BAD
:10237000164913465B001344DB000B44083319680D
:10238000FB88FA7BC91A114813465B001344DB0033
:10239000034408331960FA7B0C4913465B0013446D
:1023A000DB000B4415331B78FB73FB7B102BC7D171
:1023B000BB891846FFF71EFF00BF1037BD4680BD22
:1023C00000280040A80500201004002090020020F2
:1023D000180400201E04002080B588B000AF03461A
:1023E0003960FB715E4B1B68CA225A625C4B1B68EA
:1023F00053225A625B4B9B685A4A43F02003936016
:10240000584B9B68DBB203F00703DBB2C3F1040354
:10241000DAB2554B1A70534B1B6903F4FE034FF4A9
:10242000FE023A613A6992FAA2F2FA60FA687A61B7
:102430007A69002A01D1202203E07A69B2FA82F295
:10244000D2B2D340DBB20133DAB2484B1A70454BFB
:102450001B699BB2C3F30E039BB201339AB2444B88
:102460001A80434B1B88013B404A127802FB03F35E
:10247000A3F5A0733C4A1278D340BB61BB694FF609
:10248000FE72934204D93B4B4FF6FF721A8003E071
:10249000BB699AB2374B1A804FF40020FFF764FCF7
:1024A0004FF40020FFF74CFCFB79002B3DD1324B61
:1024B00001221A70314B4FF0FF321A600023FB7774
:1024C0000CE0FA7F2E4913465B001344DB000B44FB
:1024D0000C3300221A70FB7F0133FB77FB7F0F2B3D
:1024E000EFD9284B10221A701D4B1B689A681C4BA1
:1024F0001B6822F480629A60194B1B68DB68DAB2B1
:10250000174B1B6862F49062DA601F4B4FF4002295
:10251000DA60032001F09FFD114B1B689A68104B95
:102520001B6842F480429A6009E00D4B1B68DB682F
:1025300003F48063002B02D0032001F07EFD084BE2
:102540001B68FF225A6200220321032001F033FDA1
:10255000032001F04AFD00BF2037BD4680BD00BF0B
:10256000A805002000280040190400201A040020BB
:102570001C0400201E040020180400201404002065
:1025800090020020100400200008005880B48BB096
:1025900000AFF860B9603B601346FB71002387F819
:1025A0002630EFF31083FB61FB693B6272B600BF1C
:1025B00004E097F82630013387F8263097F8263064
:1025C0000F2B0CD897F826202C4913465B00134498
:1025D000DB000B440C331B78DBB2002BE9D197F8FE
:1025E0002630102B38D097F82620244913465B005C
:1025F0001344DB000B440C3301221A703B6ABB61AD
:10260000BB6983F3108800BF97F826201B49134647
:102610005B001344DB000B441033FA681A6097F830
:102620002620164913465B001344DB000B440D3390
:10263000FA791A7097F82620104913465B00134464
:10264000DB000B443A681A60BB6897F826201A70C2
:10265000002387F8273008E03B6A7B617B6983F3BE
:10266000108800BF012387F8273097F827301846D5
:102670002C37BD465DF8047B704700BF90020020F8
:1026800080B586B000AF0346FB71EFF31083FB60AB
:10269000FB687B6172B600BF032001F0B4FC344BD1
:1026A0001B68CA225A62324B1B6853225A62FA795B
:1026B000304913465B001344DB000B440C331B789A
:1026C000DBB2022B42D1FB7900211846FFF7CEFC8A
:1026D000294B1B78FB74FB7C102B2FD1274B9B685D
:1026E00003F48063B3F5806F07D100BF204B1B68F4
:1026F000DB6803F00403002BF8D11D4B1B689A68BC
:102700001B4B1B6822F480629A6000BF184B1B6849
:10271000DB6803F00403002BF8D0154B1B68DB6863
:10272000DAB2134B1B6862F49062DA60144B4FF418
:102730000022DA60032001F08EFC07E0114B1B78C9
:10274000DBB2FA7C9A4201D0FFF7ACFD084B1B6864
:10275000FF225A62032001F048FC7B69BB60BB6822
:1027600083F3108800BF00BF1837BD4680BD00BF8F
:10277000A80500209002002010040020002800403E
:10278000000800581104002080B586B000AF034651
:102790003960FB71FA793B4913465B001344DB0057
:1027A0000B440C331B78DBB2022B03D1FB791846A8
:1027B000FFF766FFEFF31083FB60FB687B6172B687
:1027C00000BF032001F01FFC2F4B1B68CA225A6276
:1027D0002D4B1B6853225A62FA792A4913465B0033
:1027E0001344DB000B440C3302221A70FA7925499A
:1027F00013465B001344DB000B4408333A681A604D
:10280000FA79204913465B001344DB000B44043380
:102810003A681A60FB791846FFF77EFB03467B8215
:102820001A4B1B787B741A4B1B78DBB27A7C9A426A
:1028300002D0FFF737FD13E0FA79124913465B0027
:102840001344DB000B44083319687B8AFA79C91AF0
:102850000C4813465B001344DB0003440833196043
:10286000094B1B68FF225A62032001F0BEFB7B6903
:10287000BB60BB6883F3108800BF00BF1837BD463C
:1028800080BD00BF90020020A80500201004002099
:102890001104002080B586B000AFB9607B600346AC
:1028A000FB731346BB810023FB750023BB75FB7BC9
:1028B000002B02D0022B0FD01DE01F4A7B68136053
:1028C0001E4B1F4A1A60BB891A46B9681B4807F09D
:1028D0009BFD0346FB750EE01A4A7B6813601A4B9A
:1028E0001A4A1A60BB891A46B968174807F08CFD66
:1028F0000346FB7500BFFB7D032B17D801A252F8DE
:1029000023F000BF152900081B2900082129000811
:10291000272900080023BB7509E00123BB7506E0E9
:102920000223BB7503E00323BB7500E000BFBB7D42
:1029300018461837BD4680BD24040020E806002054
:10294000003801402C0400201C06002000800040BC
:1029500080B582B000AF78607B681B680F4A9342F5
:102960000AD00F4A93420FD10E4B1B68002B0DD09B
:102970000C4B1B68984709E00B4B1B68002B07D0DA
:10298000094B1B68984703E000BF02E000BF00E06E
:1029900000BF00BF0837BD4680BD00BF00800040BB
:1029A00000380140200400202804002080B582B0B7
:1029B00000AF78607B681B680F4A93420AD00F4AC9
:1029C00093420FD10E4B1B68002B0DD00C4B1B6894
:1029D000984709E00B4B1B68002B07D0094B1B687D
:1029E000984703E000BF02E000BF00E000BF00BF67
:1029F0000837BD4680BD00BF008000400038014060
:102A0000240400202C04002080B485B000AF78603E
:102A10004FF0B043DA6C4FF0B0417B681343CB64A6
:102A20004FF0B043DA6C7B681340FB60FB6800BF7B
:102A30001437BD465DF8047B704780B485B000AFA5
:102A400078604FF0B0439A6D4FF0B0417B6813430C
:102A50008B654FF0B0439A6D7B681340FB60FB6859
:102A600000BF1437BD465DF8047B704780B500AFEA
:102A70001D4B1E4A1A601C4B1D4A5A601A4B6C2291
:102A80009A60194B0122DA60174B00221A61164B2B
:102A900000225A61144B00229A61134B0022DA6122
:102AA000114B00221A62104801F0D0FF0346002BA0
:102AB00001D000F0F7FA00210B4803F047FB034672
:102AC000002B01D000F0EEFA0421074803F089FB47
:102AD0000346002B01D000F0E5FA4FF4801003F01C
:102AE000CDFB00BF80BD00BF30040020005400407B
:102AF0001807900080B59CB000AF786007F15C03C8
:102B000000221A605A609A60DA601A6107F10C03B9
:102B100050220021184613F0ADFB7B681B68484A21
:102B2000934240F089800423FB604FF44033FB6202
:102B300007F10C03184606F078FC0346002B01D081
:102B400000F0B0FA0220FFF75FFF4FF44073FB651F
:102B500012233B6600237B660023BB660423FB66CF
:102B600007F15C031946374801F0C4FD4FF400102B
:102B7000FFF763FF344B354A1A60334B0A225A6021
:102B8000314B00229A60304B0022DA602E4B8022BB
:102B90001A612D4B00225A612B4B00229A612A4B5D
:102BA0000022DA61284B00221A62274801F062FAFB
:102BB0000346002B01D000F075FA7B68224ADA63E5
:102BC000214A7B689362224B224A1A60204B0B22D7
:102BD0005A601F4B10229A601D4B0022DA601C4B7A
:102BE00080221A611A4B00225A61194B00229A6105
:102BF000174B0022DA61164B00221A62144801F0CA
:102C000039FA0346002B01D000F04CFA7B68104AD9
:102C10009A630F4A7B689362002202211E2001F012
:102C2000CAF91E2001F0E1F9002202211F2001F063
:102C3000C2F91F2001F0D9F900BF7037BD4680BD31
:102C400000540040000400488404002008000240B2
:102C5000E40400201C00024080B485B000AF78601E
:102C60004FF0B0431A6D4FF0B0417B6813430B65D2
:102C70004FF0B0431A6D7B681340FB60FB6800BFE8
:102C80001437BD465DF8047B7047000080B500AF87
:102C9000064B074A1A60054803F002FB0346002B67
:102CA00001D000F0FFF900BF80BD00BF4405002047
:102CB000000C005880B582B000AF78607B681B685C
:102CC0000D4A934213D14FF48010FFF7C5FF002245
:102CD00002212C2001F06FF92C2001F086F900224E
:102CE00002212D2001F067F92D2001F07EF900BFAF
:102CF0000837BD4680BD00BF000C005880B483B0CB
:102D000000AF78604FF0B043D3F8903023F0180252
:102D10004FF0B0417B681343C1F8903000BF0C37CF
:102D2000BD465DF8047B704780B483B000AF786027
:102D300039607B683A68203253F82230054A934262
:102D400001D0012300E0002318460C37BD465DF892
:102D5000047B70470004008080B500AF424B1B68C5
:102D60009B7D002B7ED0404B1A683F4B1B6818336D
:102D700019461046FEF722FA3C4B00221A703A4BD5
:102D80001B681B8B1946384B1B685B8B1A46364BEE
:102D90001B688A1ADA61344B1B68DB69002BB8BFE9
:102DA0005B42012B54DD304B1A682F4B1B68128B92
:102DB0005A832D4B1B68DB69B3F5006F07DD2A4B87
:102DC0001B68DA69284B1B68A2F6FF72DA61264B92
:102DD0001B68DB6913F5006F07DA234B1B68DA69A0
:102DE000214B1B6802F6FF72DA611F4B1B68D96921
:102DF0001D4B1A680B46002B00DA0733DB10D3613A
:102E0000194B1B68DB69002BB8BF5B42002B04DD4C
:102E100001221021164801F0DDFD134B1B68DB6910
:102E20007F2B03DD104B1B687F22DA610E4B1B6882
:102E3000DB6913F17F0F04DA0B4B1B686FF07E0226
:102E4000DA61094B1B68DB695AB2084B1A7004E05F
:102E500000221021064801F0BDFD044B93F900202B
:102E6000044BDA7000BF80BD840500208805002077
:102E7000001000488005002080B483B000AF786067
:102E800000BF0C37BD465DF8047B704780B582B04B
:102E900000AF00F0C3FEFEF7ADFB00F077F800F0E6
:102EA000E1F8FFF7F3FEFEF7DFFEFEF789FEFFF71E
:102EB000DDFD00F087F912F05DF800F0F1FB00F0A5
:102EC00017F900F07DFC00F0C7FC00F0F1F80521D7
:102ED0002648FFF729FFFDF77BFE0346244A1360CF
:102EE000234B1B68234A1A60214B1B686C221A7102
:102EF0001F4B1B6802229A811D4B1B684FF09042AA
:102F00009A601B4B1B681846FDF782FE1A4806F0B4
:102F1000F5FFFEF77DFB00F0EFFE0346174A136056
:102F2000164B1A68164B1B689A421BD3134B1B682F
:102F30000A33134A1360FFF70FFF00200FF0CEFF94
:102F40000346FB71FB79042B02D0FB79052B04D1DE
:102F50000021082012F0CCFD04E0042209490A48AF
:102F60000AF09AFDFEF7E2FDD5E700BF0014005815
:102F70008405002030040020D00500208C050020AE
:102F80009005002080050020A41A002080B59AB08A
:102F900000AF07F1200348220021184613F06AF918
:102FA0003B1D00221A605A609A60DA601A615A6109
:102FB0009A6104F0E5FE1020FFF7A0FE284B1B6885
:102FC00023F4C063264A43F400731360244B1B6848
:102FD00003F4C0633B603B6807233B624FF48033DC
:102FE0007B620123BB624FF48073FB6240233B632F
:102FF0000223FB6403233B6510237B650C23BB6525
:103000004FF40033FB654FF080437B664FF0C063A5
:103010003B6607F12003184605F056FA0346002BDD
:1030200001D000F03FF86F237B600323BB600023D7
:10303000FB6000233B6100237B618023BB61002395
:10304000FB613B1D0321184605F0B2FD0346002B32
:1030500001D000F027F800BF6837BD4680BD00BF33
:103060000004005880B594B000AF3B4650220021C8
:10307000184613F0FFF84FF440533B604FF44043C1
:103080007B640023BB641023FB643B46184606F0B8
:10309000CCF90346002B01D000F004F800BF5037F4
:1030A000BD4680BD80B400AF72B600BF00BFFDE773
:1030B00080B400AF00BFBD465DF8047B704780B4AC
:1030C00085B000AF78604FF0B0431A6D4FF0B0415B
:1030D0007B6813430B654FF0B0431A6D7B68134058
:1030E000FB60FB6800BF1437BD465DF8047B70478A
:1030F00080B500AF074B084A1A60064B00225A60A1
:10310000044806F019FC0346002B01D0FFF7CAFF64
:1031100000BF80BD940500200010005880B596B017
:1031200000AF786007F1080350220021184613F021
:10313000A1F87B681B680D4A934213D14FF40073CA
:10314000BB604FF0C0533B6407F10803184606F01C
:103150006CF90346002B01D0FFF7A4FF4FF4802049
:10316000FFF7ADFF00BF5837BD4680BD00100058C7
:1031700080B400AF4FF0B043D3F890304FF0B0427E
:1031800043F40043C2F8903000BFBD465DF8047BB5
:10319000704780B485B000AF78604FF0B0439A6D4F
:1031A0004FF0B0417B6813438B654FF0B0439A6D8D
:1031B0007B681340FB60FB6800BF1437BD465DF8B9
:1031C000047B704780B586B000AF3B1D00221A60BB
:1031D0005A609A60DA601A6100233B60274B284AE4
:1031E0001A60264B00225A60244B0F229A60234B10
:1031F00047F6FF72DA60214B00221A611F4B002252
:103200009A611E4B0022DA611C4B00225A611B4856
:1032100006F0C7FB0346002B01D0FFF743FF002356
:103220003B7100237B710023BB710023BB60002333
:103230003B6100237B613B1D012219460F4806F0CC
:103240003AFC0346002B01D0FFF72CFF01233B7013
:1032500001237B700123BB700023FB703B460122DE
:103260001946064806F0C6FC0346002B01D0FFF7BE
:1032700019FF00BF1837BD4680BD00BFA80500205C
:103280000028004080B596B000AF786007F10803D1
:1032900050220021184612F0EDFF7B681B680E4A91
:1032A000934215D14FF40063BB604FF48073BB644D
:1032B00007F10803184606F0B8F80346002B01D0C2
:1032C000FFF7F0FEFFF754FF4FF48060FFF761FF58
:1032D00000BF5837BD4680BD0028004080B485B08F
:1032E00000AF78604FF0B0431A6D4FF0B0417B688B
:1032F00013430B654FF0B0431A6D7B681340FB60BE
:10330000FB6800BF1437BD465DF8047B704780B58D
:1033100000AF4FF40020FFF7E1FF002202212E2032
:1033200000F049FE2E2000F060FE00BF80BD80B49A
:1033300000AF00BFFDE780B483B000AF01237B6026
:1033400000BFFDE780B483B000AF01237B6000BF06
:10335000FDE780B483B000AF01237B6000BFFDE7D1
:1033600080B483B000AF01237B6000BFFDE780B471
:1033700000AF00BFBD465DF8047B704780B400AF6E
:1033800000BFBD465DF8047B704780B400AF00BF4E
:10339000BD465DF8047B704780B500AF00F098FC37
:1033A00000BF80BD80B500AF024801F044F800BF07
:1033B00080BD00BF8404002080B500AF024801F04A
:1033C0003AF800BF80BD00BFE404002080B500AF24
:1033D000024801F030F800BF80BD00BFB4070020F4
:1033E00080B500AF024801F026F800BF80BD00BFE5
:1033F0001408002080B500AF024801F01CF800BF9F
:1034000080BD00BF7408002080B500AF024801F005
:1034100012F800BF80BD00BFD408002080B500AF07
:10342000024803F0B3F800BF80BD00BF801F00203A
:1034300080B500AF024806F0AFFD00BF80BD00BF01
:10344000D005002080B500AF024801F0C9FD00BFE3
:1034500080BD00BF3004002080B500AF024801F0FD
:10346000D9FD00BF80BD00BF3004002080B500AF93
:10347000024807F049F800BF80BD00BFE806002001
:1034800080B500AF024807F03FF800BF80BD00BF25
:103490001C06002080B500AF11F0B2FB00BF80BD5C
:1034A00080B500AF11F0E2FB00BF80BD80B500AF7A
:1034B00001F0A8FA00BF80BD80B586B000AFF8600B
:1034C000B9607A6000237B610AE0AFF300800146B7
:1034D000BB685A1CBA60CAB21A707B6901337B613F
:1034E0007A697B689A42F0DB7B6818461837BD46DC
:1034F00080BD80B483B000AF78604FF0FF331846D2
:103500000C37BD465DF8047B704780B483B000AFD4
:10351000786039603B684FF400525A6000231846C7
:103520000C37BD465DF8047B704780B483B000AFB4
:103530007860012318460C37BD465DF8047B704760
:1035400080B485B000AFF860B9607A600023184697
:103550001437BD465DF8047B7047000080B586B027
:1035600000AF7860144A154BD31A7B617B693B61CD
:10357000134B1B68002B02D1114B124A1A60104BDF
:103580001A687B6813443A699A4207D212F0E6FE41
:1035900003460C221A604FF0FF3309E0084B1B680A
:1035A000FB60074B1A687B681344054A1360FB688D
:1035B00018461837BD4680BD0000032000040000F7
:1035C000CC0500206024002080B400AF244BD3F849
:1035D0008830234A43F47003C2F888304FF0B04378
:1035E0001B684FF0B04243F0010313604FF0B0434B
:1035F0004FF4E0229A604FF0B0431A684FF0B041A8
:10360000184B13400B604FF0B043D3F894304FF099
:10361000B04223F00503C2F894304FF0B043D3F822
:1036200098304FF0B04223F00103C2F898304FF0C9
:10363000B0430D4ADA604FF0B0430B4A1A614FF0C5
:10364000B0431B684FF0B04223F4802313604FF067
:10365000B04300229A6100BFBD465DF8047B70470D
:1036600000ED00E0FBFEF6FA0010042280B485B005
:1036700000AF78604FF0B0431A6E4FF0B0417B68F6
:1036800013430B664FF0B0431A6E7B681340FB6028
:10369000FB6800BF1437BD465DF8047B704700002F
:1036A00080B500AF104B114A1A600F4B40F27F22D9
:1036B0005A600D4B00229A600B4B42F20F72DA6097
:1036C000094B00221A61084B00225A61064B8022E6
:1036D0009A61054806F0BAFB0346002B01D0FFF7BC
:1036E000E1FC00BF80BD00BFD005002000440140C8
:1036F00080B582B000AF78607B681B68094A93424E
:103700000BD14FF40030FFF7B1FF00220021192048
:1037100000F051FC192000F068FC00BF0837BD46DE
:1037200080BD00BF0044014080B485B000AF786028
:103730004FF0B043DA6C4FF0B0417B681343CB6479
:103740004FF0B043DA6C7B681340FB60FB6800BF4E
:103750001437BD465DF8047B704780B485B000AF78
:1037600078604FF0B043DA6D4FF0B0417B6813439F
:10377000CB654FF0B043DA6D7B681340FB60FB68AC
:1037800000BF1437BD465DF8047B704780B485B038
:1037900000AF78604FF0B0431A6E4FF0B0417B68D5
:1037A00013430B664FF0B0431A6E7B681340FB6007
:1037B000FB6800BF1437BD465DF8047B704700000E
:1037C00080B500AF224B234A1A60214B4FF4E132FF
:1037D0005A601F4B00229A601D4B0022DA601C4B7E
:1037E00000221A611A4B0C225A61194B00229A616D
:1037F000174B00221A62164B00225A62144B002209
:103800009A62134B00225A66114806F09DFD03464A
:10381000002B01D0FFF746FC00210D4808F023F8EB
:103820000346002B01D0FFF73DFC0021084808F0BB
:1038300058F80346002B01D0FFF734FC044807F08A
:10384000D9FF0346002B01D0FFF72CFC00BF80BD41
:103850001C0600200080004080B500AF234B244AA6
:103860001A60224B4FF4E1325A60204B00229A60DA
:103870001E4B0022DA601D4B00221A611B4B0C22EA
:103880005A611A4B00229A61184B4FF40042DA61D8
:10389000164B00221A62154B00225A62134B00226B
:1038A0009A62124806F050FD0346002B01D0FFF744
:1038B000F9FB00210D4807F0D6FF0346002B01D08D
:1038C000FFF7F0FB0021094808F00BF80346002B36
:1038D00001D0FFF7E7FB054807F08CFF0346002BFC
:1038E00001D0FFF7DFFB00BF80BD00BFE80600206E
:1038F0000038014080B59CB000AF786007F15C03F0
:1039000000221A605A609A60DA601A6107F10C03AB
:1039100050220021184612F0ADFC7B681B68874AD4
:10392000934240F081800223FB600023BB6207F1D9
:103930000C03184605F079FD0346002B01D0FFF774
:10394000B1FB0120FFF709FF0120FFF7EDFE0C237B
:10395000FB6502233B6600237B660023BB660823CE
:10396000FB6607F15C0319464FF0904000F0C2FE81
:10397000734B744A1A60724B11225A60704B1022BA
:103980009A606F4B0022DA606D4B80221A616C4B9B
:1039900000225A616A4B00229A61694B0022DA6167
:1039A000674B00221A62664800F064FB0346002B56
:1039B00001D0FFF777FB7B68614ADA67604A7B6872
:1039C0009362614B614A1A605F4B10225A605E4BF2
:1039D00000229A605C4B0022DA605B4B80221A6105
:1039E000594B00225A61584B00229A61564B0022D3
:1039F000DA61554B00221A62534800F03BFB034644
:103A0000002B01D0FFF74EFB7B684F4AC3F88020A4
:103A10004D4A7B68936200220021252000F0CBFAFA
:103A2000252000F0E2FA84E07B681B68484A934254
:103A30007FD10123FB6000237B6207F10C03184652
:103A400005F0F3FC0346002B01D0FFF72BFB4FF4EE
:103A50008040FFF79BFE0220FFF766FEC023FB6558
:103A600002233B6600237B660023BB660723FB66BD
:103A700007F15C031946374800F03CFE364B374AE5
:103A80001A60354B0E225A60334B00229A60324B3B
:103A90000022DA60304B80221A612F4B00225A61DB
:103AA0002D4B00229A612C4B0022DA612A4B002216
:103AB0001A62294800F0DEFA0346002B01D0FFF716
:103AC000F1FA7B68244AC3F88020234A7B6893621A
:103AD000234B244A1A60224B0F225A60204B10229B
:103AE0009A601F4B0022DA601D4B80221A611C4B2A
:103AF00000225A611A4B00229A61194B0022DA61A6
:103B0000174B00221A62164800F0B4FA0346002B45
:103B100001D0FFF7C7FA7B68114ADA67104A7B6861
:103B2000936200220021242000F045FA242000F0B6
:103B30005CFA00BF7037BD4680BD00BF008000400A
:103B4000B407002030000240140800204400024066
:103B5000003801400004004874080020580002406A
:103B6000D40800206C000240D458C4500433C41858
:103B70008C42F9D37047036004308842FBD370470E
:103B80000C488546FFF720FD0B480C490C4A0023E2
:103B9000FFF7EDFF0B480C490C4A0023FFF7E7FF46
:103BA0000B480C490023FFF7E8FF12F0DDFBFFF79D
:103BB0006DF9FEE70000032008000020E801002066
:103BC000548F0108E4010320670A0320959101083E
:103BD0004C0200205C240020FEE7000080B400AF0F
:103BE000054B5B68044A43F00103536000BFBD46C8
:103BF0005DF8047B704700BF002004E080B400AF94
:103C0000054B5B68044A43F00203536000BFBD46A6
:103C10005DF8047B704700BF002004E080B582B0EF
:103C200000AF0023FB710C4B1B680B4A43F48073FD
:103C30001360032000F0B4F90F2000F00FF80346E2
:103C4000002B02D00123FB7101E0FFF760FBFB7941
:103C500018460837BD4680BD0040005880B584B086
:103C600000AF78600023FB73174B1B78002B24D028
:103C700005F04AF90246144B1B7819464FF47A7343
:103C8000B3FBF1F3B2FBF3F3184600F0CAF90346B5
:103C9000002B0FD17B680F2B09D8002279684FF0D9
:103CA000FF3000F088F9094A7B68136007E00123C0
:103CB000FB7304E00123FB7301E00123FB73FB7B37
:103CC00018461037BD4680BD100000200C000020B3
:103CD00080B400AF064B1B781A46064B1B68134492
:103CE000044A136000BFBD465DF8047B704700BF07
:103CF000100000203409002080B400AF034B1B6883
:103D00001846BD465DF8047B704700BF34090020AB
:103D100080B400AF034B1B681846BD465DF8047BBA
:103D2000704700BF0C00002080B500AFFFF756FFC2
:103D300000BF80BD80B500AFFFF760FF00BF80BD52
:103D400080B485B000AF78607B6803F00703FB6048
:103D50000C4BDB68BB60BA684FF6FF031340BB60D7
:103D6000FB681A02BB68134343F0BF6343F400339C
:103D7000BB60044ABB68D36000BF1437BD465DF822
:103D8000047B704700ED00E080B400AF044BDB68BB
:103D90001B0A03F007031846BD465DF8047B704715
:103DA00000ED00E080B483B000AF0346FB7197F9EB
:103DB0000730002B0BDBFB7903F01F02074997F953
:103DC00007305B09012000FA02F241F8232000BF0E
:103DD0000C37BD465DF8047B704700BF00E100E092
:103DE00080B483B000AF0346FB7197F90730002B16
:103DF00012DBFB7903F01F020A4997F907305B09D0
:103E0000012000FA02F2203341F82320BFF34F8F44
:103E100000BFBFF36F8F00BF00BF0C37BD465DF81A
:103E2000047B704700E100E080B483B000AF03463C
:103E3000FB7197F90730002B0CDBFB7903F01F02B5
:103E4000074997F907305B09012000FA02F2403375
:103E500041F8232000BF0C37BD465DF8047B704756
:103E600000E100E080B483B000AF0346FB7197F936
:103E70000730002B0CDBFB7903F01F02074997F991
:103E800007305B09012000FA02F2603341F8232079
:103E900000BF0C37BD465DF8047B704700E100E0D1
:103EA00080B483B000AF03463960FB7197F90730E7
:103EB000002B0ADB3B68DAB20C4997F90730120194
:103EC000D2B20B4483F800230AE03B68DAB2084917
:103ED000FB7903F00F03043B1201D2B20B441A76B4
:103EE00000BF0C37BD465DF8047B704700E100E081
:103EF00000ED00E080B489B000AFF860B9607A608E
:103F0000FB6803F00703FB61FB69C3F10703042BA4
:103F100028BF0423BB61FB690433062B02D9FB696C
:103F2000033B00E000237B614FF0FF32BB6902FAE4
:103F300003F3DA43BB681A407B699A404FF0FF31C4
:103F40007B6901FA03F3D9437B680B40134318469E
:103F50002437BD465DF8047B7047000080B582B011
:103F600000AF78607B68013BB3F1807F01D3012310
:103F70000FE00A4A7B68013B53600F214FF0FF308E
:103F8000FFF78EFF054B00229A60044B07221A6050
:103F9000002318460837BD4680BD00BF10E000E092
:103FA00080B582B000AF78607868FFF7C9FE00BFC7
:103FB0000837BD4680BD80B586B000AF0346B96006
:103FC0007A60FB73FFF7E0FE78617A68B968786918
:103FD000FFF790FF024697F90F3011461846FFF79A
:103FE0005FFF00BF1837BD4680BD80B582B000AF0F
:103FF0000346FB7197F907301846FFF7D3FE00BF61
:104000000837BD4680BD80B582B000AF0346FB7166
:1040100097F907301846FFF7E3FE00BF0837BD46A3
:1040200080BD80B582B000AF78607868FFF796FFFA
:10403000034618460837BD4680BD80B582B000AF44
:104040000346FB7197F907301846FFF7EDFE00BFF6
:104050000837BD4680BD80B582B000AF0346FB7116
:1040600097F907301846FFF7FDFE00BF0837BD4639
:1040700080BD000080B584B000AF78607B68002B05
:1040800001D101238EE07B681B681A46474B9A4298
:104090000FD87B681B681A46454B1344454AA2FB60
:1040A00003231B099A007B685A647B68424A1A649E
:1040B0000EE07B681B681A46404B13443D4AA2FB46
:1040C00003231B099A007B685A647B683C4A1A6484
:1040D0007B68022283F825207B681B681B68FB60D5
:1040E000FB6823F4FF4323F07003FB607B689A684E
:1040F0007B68DB681A437B681B691A437B685B69D2
:104100001A437B689B691A437B68DB691A437B68A7
:104110001B6A1343FA681343FB607B681B68FA68E9
:104120001A60786800F082FA7B689B68B3F5804F6C
:1041300002D17B6800225A607B685A687B689B6C5E
:1041400002F03F021A607B68DB6C7A68126D5A607D
:104150007B685B68002B10D07B685B68042B0CD8F5
:10416000786800F0A1FA7B685B6D00221A607B68BA
:104170009B6D7A68D26D5A6008E07B6800225A65B0
:104180007B6800229A657B680022DA657B680022E2
:10419000DA637B68012283F825207B68002283F89C
:1041A0002420002318461037BD4680BD0704024076
:1041B000F8FFFDBFCDCCCCCC00000240F8FBFDBF2A
:1041C0000004024080B586B000AFF860B9607A6044
:1041D0003B600023FB75FB6893F82430012B01D171
:1041E000022366E0FB68012283F82420FB6893F831
:1041F0002530DBB2012B55D1FB68022283F8252044
:10420000FB680022DA63FB681B681A68FB681B689E
:1042100022F001021A603B687A68B968F86800F019
:10422000C7F9FB681B6B002B08D0FB681B681A687A
:10423000FB681B6842F00E021A600FE0FB681B6807
:104240001A68FB681B6822F004021A60FB681B688E
:104250001A68FB681B6842F00A021A60FB689B6CD4
:104260001B6803F48033002B07D0FB689B6C1A6833
:10427000FB689B6C42F480721A60FB685B6D002BDC
:1042800007D0FB685B6D1A68FB685B6D42F4807257
:104290001A60FB681B681A68FB681B6842F0010221
:1042A0001A6005E0FB68002283F824200223FB75D6
:1042B000FB7D18461837BD4680BD80B483B000AF83
:1042C00078607B68002B01D101234FE07B6893F875
:1042D0002530DBB2022B08D07B680422DA637B68CE
:1042E000002283F82420012340E07B681B681A68C1
:1042F0007B681B6822F00E021A607B689B6C1A6850
:104300007B689B6C22F480721A607B681B681A6859
:104310007B681B6822F001021A607B685B6C03F00B
:104320001C027B681B6C012101FA02F25A607B6857
:10433000DB6C7A68126D5A607B685B6D002B0CD069
:104340007B685B6D1A687B685B6D22F480721A6013
:104350007B689B6D7A68D26D5A607B68012283F816
:1043600025207B68002283F82420002318460C3780
:10437000BD465DF8047B704780B584B000AF7860BF
:104380000023FB737B6893F82530DBB2022B05D04A
:104390007B680422DA630123FB7347E07B681B68B8
:1043A0001A687B681B6822F00E021A607B681B6823
:1043B0001A687B681B6822F001021A607B689B6C9C
:1043C0001A687B689B6C22F480721A607B685B6C55
:1043D00003F01C027B681B6C012101FA02F25A6097
:1043E0007B68DB6C7A68126D5A607B685B6D002BB2
:1043F0000CD07B685B6D1A687B685B6D22F4807201
:104400001A607B689B6D7A68D26D5A607B68012266
:1044100083F825207B68002283F824207B689B6B2F
:10442000002B03D07B689B6B78689847FB7B184612
:104430001037BD4680BD80B584B000AF78607B6822
:104440001B6C1B68FB607B681B681B68BB607B6820
:104450005B6C03F01C0304229A40FB681340002BA2
:1044600026D0BB6803F00403002B21D07B681B68B7
:104470001B6803F02003002B07D17B681B681A68B8
:104480007B681B6822F004021A607B685B6C03F097
:104490001C027B681B6C042101FA02F25A607B68E3
:1044A0001B6B002B71D07B681B6B786898476CE0A6
:1044B0007B685B6C03F01C0302229A40FB6813408C
:1044C000002B2ED0BB6803F00203002B29D07B68A1
:1044D0001B681B6803F02003002B0BD17B681B6853
:1044E0001A687B681B6822F00A021A607B68012246
:1044F00083F825207B685B6C03F01C027B681B6CD7
:10450000022101FA02F25A607B68002283F824201B
:104510007B68DB6A002B38D07B68DB6A7868984759
:1045200033E07B685B6C03F01C0308229A40FB6855
:104530001340002B2AD0BB6803F00803002B25D0C2
:104540007B681B681A687B681B6822F00E021A6081
:104550007B685B6C03F01C027B681B6C012101FA19
:1045600002F25A607B680122DA637B68012283F8D9
:1045700025207B68002283F824207B685B6B002B5E
:1045800004D07B685B6B7868984700BF00BF10372A
:10459000BD4680BD80B483B000AF78607B6893F87F
:1045A0002530DBB218460C37BD465DF8047B7047FA
:1045B00080B485B000AFF860B9607A603B60FB689A
:1045C000DB6CFA68126D5A60FB685B6D002B04D0DF
:1045D000FB689B6DFA68D26D5A60FB685B6C03F0F8
:1045E0001C02FB681B6C012101FA02F25A60FB6895
:1045F0001B683A685A60FB689B68102B08D1FB68FF
:104600001B687A689A60FB681B68BA68DA6007E022
:10461000FB681B68BA689A60FB681B687A68DA6096
:1046200000BF1437BD465DF8047B704780B485B089
:1046300000AF78607B681B681A46174B9A420AD80D
:104640007B685B6C9B089B0003F1804303F502339E
:104650007A68936407E07B685B6C9B089A000F4B59
:1046600013447A6893647B681B68DBB2083B0C4A8E
:10467000A2FB03231B09FB607B680A4ADA64FB6820
:1046800003F01F0301229A407B681A6500BF1437AC
:10469000BD465DF8047B7047070402401C080240D9
:1046A000CDCCCCCC8008024080B485B000AF78601F
:1046B0007B685B6803F03F03FB60FA680B4B1344B5
:1046C0009B001A467B685A657B68094A9A65FB68B5
:1046D000013B03F0030301229A407B68DA6500BFC7
:1046E0001437BD465DF8047B704700BF3F82001061
:1046F0004009024080B487B000AF78603960002381
:104700007B614CE13B681A6801217B6901FA03F384
:104710001340FB60FB68002B00F03E813B685B6848
:1047200003F00303012B05D03B685B6803F0030330
:10473000022B30D17B689B683B617B695B00032265
:1047400002FA03F3DB433A6913403B613B68DA68E2
:104750007B695B0002FA03F33A6913433B617B68B0
:104760003A699A607B685B683B6101227B6902FA67
:1047700003F3DB433A6913403B613B685B681B0909
:1047800003F001027B6902FA03F33A6913433B61C8
:104790007B683A695A603B685B6803F00303032B4C
:1047A00017D07B68DB683B617B695B00032202FA00
:1047B00003F3DB433A6913403B613B689A687B69CA
:1047C0005B0002FA03F33A6913433B617B683A6981
:1047D000DA603B685B6803F00303022B23D17B693B
:1047E000DA087B68083253F822303B617B6903F0BA
:1047F00007039B000F2202FA03F3DB433A691340DD
:104800003B613B681A697B6903F007039B0002FA6E
:1048100003F33A6913433B617B69DA087B6808322A
:10482000396943F822107B681B683B617B695B0038
:10483000032202FA03F3DB433A6913403B613B680E
:104840005B6803F003027B695B0002FA03F33A69D9
:1048500013433B617B683A691A603B685B6803F409
:104860004033002B00F09880544A7B699B08023348
:1048700052F823303B617B6903F003039B000F2256
:1048800002FA03F3DB433A6913403B617B68B3F1FF
:10489000904F19D07B684A4A934213D07B68494AAB
:1048A00093420DD07B68484A934207D07B68474AC1
:1048B000934201D1042308E0072306E0032304E028
:1048C000022302E0012300E000237A6902F00302E0
:1048D000920093403A6913433B6138497B699B08D6
:1048E00002333A6941F82320394B1B683B61FB686E
:1048F000DB433A6913403B613B685B6803F4801318
:10490000002B03D03A69FB6813433B61304A3B6993
:1049100013602F4B5B683B61FB68DB433A691340D4
:104920003B613B685B6803F40013002B03D03A69DA
:10493000FB6813433B61264A3B695360244BD3F821
:1049400080303B61FB68DB433A6913403B613B6865
:104950005B6803F48033002B03D03A69FB68134390
:104960003B611B4A3B69C2F88030194BD3F8843055
:104970003B61FB68DB433A6913403B613B685B6822
:1049800003F40033002B03D03A69FB6813433B6107
:104990000F4A3B69C2F884307B6901337B613B6815
:1049A0001A687B6922FA03F3002B7FF4ABAE00BFD9
:1049B00000BF1C37BD465DF8047B70470000014016
:1049C0000004004800080048000C0048001000489F
:1049D0000008005880B483B000AF78600B467B803D
:1049E00013467B707B78002B03D07A887B689A61B2
:1049F00002E07A887B689A6200BF0C37BD465DF89A
:104A0000047B704780B582B000AF0A4BDB687B60E7
:104A1000084B1A687B68DB43064913400B60054A64
:104A20007B685360786800F007F800BF0837BD4620
:104A300080BD00BF0015005880B483B000AF78601F
:104A400000BF0C37BD465DF8047B704780B582B06F
:104A500000AF78607B68002B01D101238DE07B687B
:104A600093F84130DBB2002B06D17B68002283F83B
:104A700040207868FEF73EF87B68242283F84120C6
:104A80007B681B681A687B681B6822F001021A6049
:104A90007B685A687B681B6822F070621A617B68C9
:104AA0001B689A687B681B6822F400429A607B68E6
:104AB000DB68012B07D17B689A687B681B6842F42E
:104AC00000429A6006E07B689A687B681B6842F443
:104AD00004429A607B68DB68022B08D17B681B6804
:104AE0005A687B681B6842F400625A6007E07B6882
:104AF0001B685A687B681B6822F400625A607B68F6
:104B00001B685B687A68126843F0007343F40043E3
:104B100053607B681B68DA687B681B6822F400427C
:104B2000DA607B681A697B685B6942EA03017B682B
:104B30009B691A027B681B680A43DA607B68D96943
:104B40007B681A6A7B681B680A431A607B681B686B
:104B50001A687B681B6842F001021A607B680022B9
:104B60005A647B68202283F841207B6800221A6304
:104B70007B68002283F84220002318460837BD4690
:104B800080BD000080B588B002AFF86008461146CD
:104B90001A4603467B810B463B811346FB80FB682C
:104BA00093F84130DBB2202B40F0F9803B6A002BB8
:104BB00002D0BB8C002B05D1FB684FF400725A6405
:104BC0000123EDE0FB6893F84030012B01D1022373
:104BD000E6E0FB68012283F84020FFF78DF878615A
:104BE0007B690093192301224FF40041F86801F01A
:104BF0005AF80346002B01D00123D1E0FB682122A3
:104C000083F84120FB68402283F84220FB680022A1
:104C10005A64FB683A6A5A62FB68BA8C5A85FB6828
:104C200000225A63F8883A8979897B690193BB6AC3
:104C300000930346F86800F093FB0346002B05D071
:104C4000FB68002283F840200123A9E0FB685B8D0C
:104C50009BB2FF2B0ED9FB68FF221A85FB681B8DC8
:104C6000DAB27989002300934FF08073F86801F07D
:104C7000DDF90FE0FB685B8D9AB2FB681A85FB6873
:104C80001B8DDAB27989002300934FF00073F86826
:104C900001F0CCF97A69B96AF86801F05DF8034669
:104CA000002B01D001237BE0FB685B6A1A78FB686C
:104CB0001B689A62FB685B6A5A1CFB685A62FB6855
:104CC0005B8D9BB2013B9AB2FB685A85FB681B8DDA
:104CD000013B9AB2FB681A85FB685B8D9BB2002B87
:104CE00034D0FB681B8D002B30D17B690093BB6AED
:104CF00000228021F86800F0D6FF0346002B01D087
:104D000001234DE0FB685B8D9BB2FF2B0ED9FB6846
:104D1000FF221A85FB681B8DDAB279890023009384
:104D20004FF08073F86801F081F90FE0FB685B8D4C
:104D30009AB2FB681A85FB681B8DDAB27989002369
:104D400000934FF00073F86801F070F9FB685B8D19
:104D50009BB2002B9ED17A69B96AF86801F043F8DA
:104D60000346002B01D001231AE0FB681B682022B8
:104D7000DA61FB681B685968FB681A680A4B0B40CC
:104D80005360FB68202283F84120FB68002283F8EF
:104D90004220FB68002283F84020002300E0022329
:104DA00018461837BD4680BD00E800FE80B588B0C3
:104DB00002AFF860084611461A4603467B810B464F
:104DC0003B811346FB80FB6893F84130DBB2202B1C
:104DD00040F0FD803B6A002B02D0BB8C002B05D13C
:104DE000FB684FF400725A640123F1E0FB6893F80A
:104DF0004030012B01D10223EAE0FB68012283F855
:104E00004020FEF779FF78617B6900931923012226
:104E10004FF40041F86800F046FF0346002B01D034
:104E20000123D5E0FB68222283F84120FB68402261
:104E300083F84220FB6800225A64FB683A6A5A628F
:104E4000FB68BA8C5A85FB6800225A63F8883A8955
:104E500079897B690193BB6A00930346F86800F087
:104E6000D3FA0346002B05D0FB68002283F84020CC
:104E70000123ADE0FB685B8D9BB2FF2B0ED9FB6875
:104E8000FF221A85FB681B8DDAB27989524B009399
:104E90004FF08073F86801F0C9F80FE0FB685B8D94
:104EA0009AB2FB681A85FB681B8DDAB279894A4B86
:104EB00000934FF00073F86801F0B8F87B69009335
:104EC000BB6A00220421F86800F0EDFE0346002BC7
:104ED00001D001237CE0FB681B685A6AFB685B6AAF
:104EE000D2B21A70FB685B6A5A1CFB685A62FB6894
:104EF0001B8D013B9AB2FB681A85FB685B8D9BB2E8
:104F0000013B9AB2FB685A85FB685B8D9BB2002B14
:104F100034D0FB681B8D002B30D17B690093BB6ABA
:104F200000228021F86800F0BEFE0346002B01D06D
:104F300001234DE0FB685B8D9BB2FF2B0ED9FB6814
:104F4000FF221A85FB681B8DDAB279890023009352
:104F50004FF08073F86801F069F80FE0FB685B8D33
:104F60009AB2FB681A85FB681B8DDAB27989002337
:104F700000934FF00073F86801F058F8FB685B8D00
:104F80009BB2002B9AD17A69B96AF86800F02BFFBE
:104F90000346002B01D001231AE0FB681B68202286
:104FA000DA61FB681B685968FB681A680B4B0B4099
:104FB0005360FB68202283F84120FB68002283F8BD
:104FC0004220FB68002283F84020002300E00223F7
:104FD00018461837BD4680BD0024008000E800FE5A
:104FE00080B584B000AF78607B681B689B69FB600C
:104FF0007B681B681B68BB607B685B6B002B05D004
:105000007B685B6BBA68F9687868984700BF1037AF
:10501000BD4680BD80B586B000AF78607B681B68F8
:105020009B697B617B681B681B683B617B691B0A12
:1050300003F00103002B10D03B69DB0903F00103EF
:10504000002B0AD07B685B6C43F001027B685A64DA
:105050007B681B684FF48072DA617B699B0A03F0FE
:105060000103002B10D03B69DB0903F00103002B87
:105070000AD07B685B6C43F008027B685A647B68EB
:105080001B684FF48062DA617B695B0A03F00103FD
:10509000002B10D03B69DB0903F00103002B0AD081
:1050A0007B685B6C43F002027B685A647B681B6818
:1050B0004FF40072DA617B685B6CFB60FB6803F0A5
:1050C0000B03002B03D0F968786800F093FC00BF55
:1050D0001837BD4680BD80B483B000AF786000BF94
:1050E0000C37BD465DF8047B704780B483B000AFD9
:1050F000786000BF0C37BD465DF8047B704780B414
:1051000083B000AF78600B46FB7013463B8000BF56
:105110000C37BD465DF8047B704780B483B000AFA8
:10512000786000BF0C37BD465DF8047B704780B4E3
:1051300083B000AF786000BF0C37BD465DF8047BDC
:10514000704780B483B000AF786000BF0C37BD46B5
:105150005DF8047B704780B586B000AFF860B96039
:105160007A60FB68DB6A7B61BB683B61FB6893F834
:105170004030012B01D10223EDE0FB68012283F8CE
:1051800040203B695B0903F00103002B0AD07B68D8
:105190005B0903F00103002B04D03969F86800F0C3
:1051A00069FAD3E03B691B0903F00103002B4DD0E2
:1051B0007B681B0903F00103002B47D0FB685B8D64
:1051C0009BB2002B28D1FB6893F84130DBB2282B2F
:1051D00008D17B69B3F1007F04D13969F86800F028
:1051E000B3FB32E0FB6893F84130DBB2292B0ED1E0
:1051F0007B6913F5803F0AD0FB681B681022DA61D7
:10520000F86800F00EFDF86800F0D6F91DE0FB68C4
:105210001B681022DA6196E0FB681B681022DA61D5
:10522000FB685B6C43F00402FB685A647B69002BEB
:1052300004D07B69B3F1807F40F08580FB685B6CB4
:105240001946F86800F0D6FB7DE07CE03B699B08DE
:1052500003F00103002B30D07B689B0803F00103AF
:10526000002B2AD0FB685B8D9BB2002B18D0FB680B
:105270001B685A6AFB685B6AD2B21A70FB685B6A89
:105280005A1CFB685A62FB681B8D013B9AB2FB6893
:105290001A85FB685B8D9BB2013B9AB2FB685A850D
:1052A000FB685B8D9BB2002B4FD17B6913F5803F70
:1052B0004BD0F86800F080F947E03B69DB0803F069
:1052C0000103002B0AD07B68DB0803F00103002BED
:1052D00004D03969F86800F0EBF837E03B695B0807
:1052E00003F00103002B31D07B685B0803F001035E
:1052F000002B2BD0FB685B8D9BB2002B18D0FB687A
:105300005B6A1A78FB681B689A62FB685B6A5A1CC6
:10531000FB685A62FB685B8D9BB2013B9AB2FB68EB
:105320005A85FB681B8D013B9AB2FB681A850DE01C
:105330007B69B3F1807F02D07B69002B06D1F868CE
:1053400000F03AF902E000BF00E000BFFB68002275
:1053500083F84020002318461837BD4680BD000062
:1053600080B586B002AFF860084611461A4603467B
:105370007B810B463B811346FB80FB88DAB279893F
:10538000204B00934FF08073F86800F04FFEFA69ED
:10539000B969F86800F0E0FC0346002B01D0012356
:1053A0002CE0FB88012B05D13B89DAB2FB681B6836
:1053B0009A6215E03B891B0A9BB2DAB2FB681B6854
:1053C0009A62FA69B969F86800F0C6FC0346002BD6
:1053D00001D0012312E03B89DAB2FB681B689A62B4
:1053E000FB690093BB6900228021F86800F05BFC38
:1053F0000346002B01D0012300E00023184610379C
:10540000BD4680BD0020008080B586B002AFF86048
:10541000084611461A4603467B810B463B811346DC
:10542000FB80FB88DAB27989204B00930023F8686F
:1054300000F0FCFDFA69B969F86800F08DFC0346DC
:10544000002B01D001232CE0FB88012B05D13B89E7
:10545000DAB2FB681B689A6215E03B891B0A9BB2B3
:10546000DAB2FB681B689A62FA69B969F86800F0F9
:1054700073FC0346002B01D0012312E03B89DAB212
:10548000FB681B689A62FB690093BB69002240219C
:10549000F86800F008FC0346002B01D0012300E06F
:1054A000002318461037BD4680BD00BF0020008095
:1054B00080B584B000AF786039607B6893F8413084
:1054C000DBB203F02803282B6AD17B681B689B6939
:1054D0001B0CDBB203F00103FB737B681B689B6949
:1054E0001B0C9BB203F0FE03BB817B681B689B68AF
:1054F0009BB2C3F309037B817B681B68DB689BB2AB
:1055000003F0FE033B817B68DB68022B38D17B898B
:10551000DB099AB2BB8953409BB203F00603002B10
:105520001CD17B89BB817B689B6C5A1C7B689A640D
:105530007B689B6C022B3BD17B6800229A647B6862
:105540001B680822DA617B68002283F84020BA8950
:10555000FB7B19467868FFF7D2FD29E03B89BB81C8
:105560004FF40041786800F093FD7B68002283F8D7
:105570004020BA89FB7B19467868FFF7C0FD17E029
:105580004FF40041786800F083FD7B68002283F8C7
:105590004020BA89FB7B19467868FFF7B0FD07E029
:1055A0007B681B680822DA617B68002283F8402050
:1055B00000BF1037BD4680BD80B584B000AF7860B5
:1055C0007B681B681B68FB607B68002283F84220B5
:1055D000FB689B0B03F00103002B08D07B681B6862
:1055E0001A687B681B6822F480421A600DE0FB6831
:1055F000DB0B03F00103002B07D07B681B681A68E4
:105600007B681B6822F400421A607B6893F8413083
:10561000DBB2292B12D17B68282283F841207B68DA
:1056200021221A630121786800F032FD7B68002294
:1056300083F840207868FFF74EFD17E07B6893F809
:105640004130DBB22A2B11D17B68282283F841201C
:105650007B6822221A630221786800F019FD7B68BA
:10566000002283F840207868FFF73FFD00BF103725
:10567000BD4680BD80B586B000AF786039607B687C
:105680001B681B683B613B687B617B68DB6AFB6076
:105690007B6893F84130FB727B681B682022DA61DB
:1056A000FB7A212B02D0FB7A292B08D148F2010189
:1056B000786800F0EDFC7B6821221A6319E0FB7A20
:1056C000222B02D0FB7A2A2B08D148F202017868FB
:1056D00000F0DEFC7B6822221A630AE0FB7A282BAA
:1056E00007D148F20301786800F0D2FC7B68002201
:1056F0001A637B681B685A687B681B6842F4004227
:105700005A607B681B6859687B681A688C4B0B4031
:105710005360786800F085FA3B699B0B03F0010346
:10572000002B13D07B681B681A687B681B6822F407
:1057300080421A607B689B6B002B20D07B689B6B40
:105740001B685B689AB27B685A8518E03B69DB0B83
:1057500003F00103002B12D07B681B681A687B687A
:105760001B6822F400421A607B68DB6B002B06D0BA
:105770007B68DB6B1B685B689AB27B685A857B69C8
:105780009B0803F00103002B20D07B6923F0040366
:105790007B617B681B685A6A7B685B6AD2B21A704D
:1057A0007B685B6A5A1C7B685A627B681B8D002B86
:1057B0000CD07B681B8D013B9AB27B681A857B6895
:1057C0005B8D9BB2013B9AB27B685A857B685B8D8F
:1057D0009BB2002B05D07B685B6C43F004027B68B6
:1057E0005A647B691B0903F00103002B4AD03B6913
:1057F0001B0903F00103002B44D07B685B8D9BB237
:10580000002B28D17B6893F84130DBB2282B08D1DC
:10581000FB68B3F1007F04D17969786800F094F8EF
:1058200030E07B6893F84130DBB2292B0ED1FB6866
:1058300013F5803F0AD07B681B681022DA61786814
:1058400000F0EFF97868FFF7B7FE1BE07B681B6894
:105850001022DA6116E07B681B681022DA617B682F
:105860005B6C43F004027B685A64FB68002B03D036
:10587000FB68B3F1807F05D17B685B6C1946786863
:1058800000F0B8F87B68002283F842207B68002291
:105890005A637B685B6C002B10D07B685B6C19468D
:1058A000786800F0A7F87B6893F84130DBB2282BCA
:1058B00041D17969786800F047F83CE07B68DB6AA1
:1058C00013F5803F14D07868FFF776FE7B681D4A99
:1058D000DA627B68202283F841207B6800221A6309
:1058E0007B68002283F840207868FFF716FC22E0EE
:1058F0007B6893F84130DBB2222B0ED17B682022EB
:1059000083F841207B6800221A637B68002283F8B9
:1059100040207868FFF7E9FB0DE07B68202283F8E0
:1059200041207B6800221A637B68002283F84020B4
:105930007868FFF7D0FB00BF1837BD4680BD00BFB9
:1059400000E800FE0000FFFF80B582B000AF786085
:1059500039607B68264ADA627B6800221A637B68BA
:10596000202283F841207B68002283F842207B6854
:1059700000225A633B689B0803F00103002B22D0EE
:105980007B681B685A6A7B685B6AD2B21A707B6854
:105990005B6A5A1C7B685A627B681B8D002B12D095
:1059A0007B681B8D013B9AB27B681A857B685B8D97
:1059B0009BB2013B9AB27B685A857B685B6C43F073
:1059C00004027B685A6448F20301786800F060FBC7
:1059D0007B681B681022DA617B68002283F8402014
:1059E0007868FFF79AFB00BF0837BD4680BD00BF4F
:1059F0000000FFFF80B584B000AF786039607B683D
:105A000093F84130FB737B68002283F842207B6867
:105A10006D4ADA627B6800225A857B685A6C3B6863
:105A20001A437B685A64FB7B282B05D0FB7B292B10
:105A300002D0FB7B2A2B0BD10321786800F028FBD6
:105A40007B68282283F841207B68604A5A6330E0F3
:105A500048F20301786800F01BFB786800F0E1F879
:105A60007B6893F84130DBB2602B1FD07B6820222B
:105A700083F841207B681B689B6903F02003202B7F
:105A800014D17B681B689B6903F01003102B09D1AC
:105A90007B681B681022DA617B685B6C43F0040250
:105AA0007B685A647B681B682022DA617B6800226D
:105AB0005A637B681B6BBB607B689B6B002B39D088
:105AC000BB68112B02D0BB68212B33D17B681B68CC
:105AD0001B6803F48043B3F5804F07D17B681B68D4
